{
  "_format": "hh-sol-artifact-1",
  "contractName": "SassyBridgeV2",
  "sourceName": "contracts/SassyBridge.sol",
  "abi": [
    {
      "inputs": [
        {
          "internalType": "address",
          "name": "_owner",
          "type": "address"
        }
      ],
      "stateMutability": "nonpayable",
      "type": "constructor"
    },
    {
      "inputs": [],
      "name": "AccessControlBadConfirmation",
      "type": "error"
    },
    {
      "inputs": [
        {
          "internalType": "address",
          "name": "account",
          "type": "address"
        },
        {
          "internalType": "bytes32",
          "name": "neededRole",
          "type": "bytes32"
        }
      ],
      "name": "AccessControlUnauthorizedAccount",
      "type": "error"
    },
    {
      "anonymous": false,
      "inputs": [
        {
          "indexed": true,
          "internalType": "bytes32",
          "name": "role",
          "type": "bytes32"
        },
        {
          "indexed": true,
          "internalType": "bytes32",
          "name": "previousAdminRole",
          "type": "bytes32"
        },
        {
          "indexed": true,
          "internalType": "bytes32",
          "name": "newAdminRole",
          "type": "bytes32"
        }
      ],
      "name": "RoleAdminChanged",
      "type": "event"
    },
    {
      "anonymous": false,
      "inputs": [
        {
          "indexed": true,
          "internalType": "bytes32",
          "name": "role",
          "type": "bytes32"
        },
        {
          "indexed": true,
          "internalType": "address",
          "name": "account",
          "type": "address"
        },
        {
          "indexed": true,
          "internalType": "address",
          "name": "sender",
          "type": "address"
        }
      ],
      "name": "RoleGranted",
      "type": "event"
    },
    {
      "anonymous": false,
      "inputs": [
        {
          "indexed": true,
          "internalType": "bytes32",
          "name": "role",
          "type": "bytes32"
        },
        {
          "indexed": true,
          "internalType": "address",
          "name": "account",
          "type": "address"
        }
      ],
      "name": "RoleGranted",
      "type": "event"
    },
    {
      "anonymous": false,
      "inputs": [
        {
          "indexed": true,
          "internalType": "bytes32",
          "name": "role",
          "type": "bytes32"
        },
        {
          "indexed": true,
          "internalType": "address",
          "name": "account",
          "type": "address"
        },
        {
          "indexed": true,
          "internalType": "address",
          "name": "sender",
          "type": "address"
        }
      ],
      "name": "RoleRevoked",
      "type": "event"
    },
    {
      "anonymous": false,
      "inputs": [
        {
          "indexed": true,
          "internalType": "bytes32",
          "name": "role",
          "type": "bytes32"
        },
        {
          "indexed": true,
          "internalType": "address",
          "name": "account",
          "type": "address"
        }
      ],
      "name": "RoleRevoked",
      "type": "event"
    },
    {
      "anonymous": false,
      "inputs": [
        {
          "indexed": false,
          "internalType": "address",
          "name": "contractAddress",
          "type": "address"
        },
        {
          "indexed": false,
          "internalType": "address",
          "name": "deployer",
          "type": "address"
        }
      ],
      "name": "SassyEscrowCreated",
      "type": "event"
    },
    {
      "anonymous": false,
      "inputs": [
        {
          "indexed": false,
          "internalType": "uint256[]",
          "name": "caseID",
          "type": "uint256[]"
        },
        {
          "indexed": false,
          "internalType": "string[]",
          "name": "ipfsHash",
          "type": "string[]"
        },
        {
          "indexed": true,
          "internalType": "address",
          "name": "submmiter",
          "type": "address"
        }
      ],
      "name": "disputeCasesReceived",
      "type": "event"
    },
    {
      "inputs": [],
      "name": "DEFAULT_ADMIN_ROLE",
      "outputs": [
        {
          "internalType": "bytes32",
          "name": "",
          "type": "bytes32"
        }
      ],
      "stateMutability": "view",
      "type": "function"
    },
    {
      "inputs": [],
      "name": "PartnerContract",
      "outputs": [
        {
          "internalType": "contract IPartnerContract",
          "name": "",
          "type": "address"
        }
      ],
      "stateMutability": "view",
      "type": "function"
    },
    {
      "inputs": [],
      "name": "getDisputeCases",
      "outputs": [
        {
          "internalType": "string[]",
          "name": "",
          "type": "string[]"
        }
      ],
      "stateMutability": "view",
      "type": "function"
    },
    {
      "inputs": [
        {
          "internalType": "bytes32",
          "name": "role",
          "type": "bytes32"
        }
      ],
      "name": "getRoleAdmin",
      "outputs": [
        {
          "internalType": "bytes32",
          "name": "",
          "type": "bytes32"
        }
      ],
      "stateMutability": "view",
      "type": "function"
    },
    {
      "inputs": [
        {
          "internalType": "bytes32",
          "name": "role",
          "type": "bytes32"
        },
        {
          "internalType": "address",
          "name": "account",
          "type": "address"
        }
      ],
      "name": "grantRole",
      "outputs": [],
      "stateMutability": "nonpayable",
      "type": "function"
    },
    {
      "inputs": [
        {
          "internalType": "bytes32",
          "name": "role",
          "type": "bytes32"
        },
        {
          "internalType": "address",
          "name": "account",
          "type": "address"
        }
      ],
      "name": "hasRole",
      "outputs": [
        {
          "internalType": "bool",
          "name": "",
          "type": "bool"
        }
      ],
      "stateMutability": "view",
      "type": "function"
    },
    {
      "inputs": [
        {
          "internalType": "uint256",
          "name": "",
          "type": "uint256"
        }
      ],
      "name": "ipfsHashes",
      "outputs": [
        {
          "internalType": "string",
          "name": "",
          "type": "string"
        }
      ],
      "stateMutability": "view",
      "type": "function"
    },
    {
      "inputs": [
        {
          "internalType": "bytes32",
          "name": "role",
          "type": "bytes32"
        },
        {
          "internalType": "address",
          "name": "callerConfirmation",
          "type": "address"
        }
      ],
      "name": "renounceRole",
      "outputs": [],
      "stateMutability": "nonpayable",
      "type": "function"
    },
    {
      "inputs": [
        {
          "internalType": "bytes32",
          "name": "role",
          "type": "bytes32"
        },
        {
          "internalType": "address",
          "name": "account",
          "type": "address"
        }
      ],
      "name": "revokeRole",
      "outputs": [],
      "stateMutability": "nonpayable",
      "type": "function"
    },
    {
      "inputs": [
        {
          "internalType": "address",
          "name": "_payer",
          "type": "address"
        },
        {
          "internalType": "address",
          "name": "_payee",
          "type": "address"
        },
        {
          "internalType": "uint256",
          "name": "_disputeCasesAgreed",
          "type": "uint256"
        },
        {
          "internalType": "address",
          "name": "_SassyToken",
          "type": "address"
        },
        {
          "internalType": "uint256",
          "name": "_fundsAgreed",
          "type": "uint256"
        },
        {
          "internalType": "uint256",
          "name": "_holdDuration",
          "type": "uint256"
        }
      ],
      "name": "setBridge",
      "outputs": [],
      "stateMutability": "nonpayable",
      "type": "function"
    },
    {
      "inputs": [
        {
          "internalType": "address",
          "name": "_payer",
          "type": "address"
        },
        {
          "internalType": "address",
          "name": "_payee",
          "type": "address"
        },
        {
          "internalType": "uint256",
          "name": "_disputeCasesAgreed",
          "type": "uint256"
        },
        {
          "internalType": "string[]",
          "name": "_disputeCases",
          "type": "string[]"
        },
        {
          "internalType": "address",
          "name": "_SassyToken",
          "type": "address"
        },
        {
          "internalType": "uint256",
          "name": "_fundsAgreed",
          "type": "uint256"
        },
        {
          "internalType": "uint256",
          "name": "_holdDuration",
          "type": "uint256"
        }
      ],
      "name": "setBridge",
      "outputs": [],
      "stateMutability": "nonpayable",
      "type": "function"
    },
    {
      "inputs": [
        {
          "internalType": "bytes4",
          "name": "interfaceId",
          "type": "bytes4"
        }
      ],
      "name": "supportsInterface",
      "outputs": [
        {
          "internalType": "bool",
          "name": "",
          "type": "bool"
        }
      ],
      "stateMutability": "view",
      "type": "function"
    }
  ],
  "bytecode": "0x60806040523480156200001157600080fd5b5060405162003ee638038062003ee6833981810160405281019062000037919062000376565b80600160006101000a81548173ffffffffffffffffffffffffffffffffffffffff021916908373ffffffffffffffffffffffffffffffffffffffff160217905550620000b36000801b604051602001620000919062000403565b604051602081830303815290604052805190602001206200011560201b60201c565b6200010d604051602001620000c89062000403565b60405160208183030381529060405280519060200120600160009054906101000a900473ffffffffffffffffffffffffffffffffffffffff166200017860201b60201c565b50506200041a565b600062000128836200027b60201b60201c565b905081600080858152602001908152602001600020600101819055508181847fbd79b86ffe0ab8e8776151514217cd7cacd52c909f66475c3af44e129f0b00ff60405160405180910390a4505050565b60006200018c83836200029a60201b60201c565b6200027057600160008085815260200190815260200160002060000160008473ffffffffffffffffffffffffffffffffffffffff1673ffffffffffffffffffffffffffffffffffffffff16815260200190815260200160002060006101000a81548160ff0219169083151502179055506200020c6200030460201b60201c565b73ffffffffffffffffffffffffffffffffffffffff168273ffffffffffffffffffffffffffffffffffffffff16847f2f8788117e7eff1d82e926ec794901d17c78024a50270940304540a733656f0d60405160405180910390a46001905062000275565b600090505b92915050565b6000806000838152602001908152602001600020600101549050919050565b600080600084815260200190815260200160002060000160008373ffffffffffffffffffffffffffffffffffffffff1673ffffffffffffffffffffffffffffffffffffffff16815260200190815260200160002060009054906101000a900460ff16905092915050565b600033905090565b600080fd5b600073ffffffffffffffffffffffffffffffffffffffff82169050919050565b60006200033e8262000311565b9050919050565b620003508162000331565b81146200035c57600080fd5b50565b600081519050620003708162000345565b92915050565b6000602082840312156200038f576200038e6200030c565b5b60006200039f848285016200035f565b91505092915050565b600081905092915050565b7f41444d494e000000000000000000000000000000000000000000000000000000600082015250565b6000620003eb600583620003a8565b9150620003f882620003b3565b600582019050919050565b60006200041082620003dc565b9150819050919050565b613abc806200042a6000396000f3fe60806040523480156200001157600080fd5b5060043610620000c45760003560e01c806391d14854116200007b57806391d1485414620001b9578063a217fddf14620001ef578063a4de2f5c1462000211578063a7a63ce41462000247578063bf8402a01462000267578063d547741f146200028757620000c4565b806301ffc9a714620000c95780630633a04214620000ff578063248a9ca314620001215780632b804ee414620001575780632f2ff15d146200017957806336568abe1462000199575b600080fd5b620000e76004803603810190620000e1919062000f11565b620002a7565b604051620000f6919062000f60565b60405180910390f35b6200010962000324565b60405162000118919062001008565b60405180910390f35b6200013f600480360381019062000139919062001060565b6200034a565b6040516200014e9190620010a3565b60405180910390f35b6200016162000369565b6040516200017091906200122a565b60405180910390f35b62000197600480360381019062000191919062001293565b6200047f565b005b620001b76004803603810190620001b1919062001293565b620004a7565b005b620001d76004803603810190620001d1919062001293565b62000527565b604051620001e6919062000f60565b60405180910390f35b620001f962000591565b604051620002089190620010a3565b60405180910390f35b6200022f600480360381019062000229919062001315565b62000598565b6040516200023e919062001399565b60405180910390f35b6200026560048036038101906200025f9190620013bd565b6200064d565b005b6200028560048036038101906200027f9190620016a6565b6200093e565b005b620002a560048036038101906200029f919062001293565b62000abf565b005b60007f7965db0b000000000000000000000000000000000000000000000000000000007bffffffffffffffffffffffffffffffffffffffffffffffffffffffff1916827bffffffffffffffffffffffffffffffffffffffffffffffffffffffff191614806200031d57506200031c8262000ae7565b5b9050919050565b600360009054906101000a900473ffffffffffffffffffffffffffffffffffffffff1681565b6000806000838152602001908152602001600020600101549050919050565b60606040516020016200037c90620017d3565b604051602081830303815290604052805190602001206200039d8162000b51565b6002805480602002602001604051908101604052809291908181526020016000905b8282101562000475578382906000526020600020018054620003e19062001819565b80601f01602080910402602001604051908101604052809291908181526020018280546200040f9062001819565b8015620004605780601f10620004345761010080835404028352916020019162000460565b820191906000526020600020905b8154815290600101906020018083116200044257829003601f168201915b505050505081526020019060010190620003bf565b5050505091505090565b6200048a826200034a565b620004958162000b51565b620004a1838362000b69565b50505050565b620004b162000c60565b73ffffffffffffffffffffffffffffffffffffffff168173ffffffffffffffffffffffffffffffffffffffff161462000516576040517f6697b23200000000000000000000000000000000000000000000000000000000815260040160405180910390fd5b62000522828262000c68565b505050565b600080600084815260200190815260200160002060000160008373ffffffffffffffffffffffffffffffffffffffff1673ffffffffffffffffffffffffffffffffffffffff16815260200190815260200160002060009054906101000a900460ff16905092915050565b6000801b81565b60028181548110620005a957600080fd5b906000526020600020016000915090508054620005c69062001819565b80601f0160208091040260200160405190810160405280929190818152602001828054620005f49062001819565b8015620006455780601f10620006195761010080835404028352916020019162000645565b820191906000526020600020905b8154815290600101906020018083116200062757829003601f168201915b505050505081565b6040516020016200065e906200189e565b604051602081830303815290604052805190602001206200067f8162000b51565b84600360009054906101000a900473ffffffffffffffffffffffffffffffffffffffff1673ffffffffffffffffffffffffffffffffffffffff16632b804ee46040518163ffffffff1660e01b8152600401600060405180830381865afa158015620006ee573d6000803e3d6000fd5b505050506040513d6000823e3d601f19601f82011682018060405250810190620007199190620019fb565b51146200075d576040517f08c379a0000000000000000000000000000000000000000000000000000000008152600401620007549062001b34565b60405180910390fd5b620007688562000d60565b92506000878787878787604051620007809062000e92565b620007919695949392919062001b78565b604051809103906000f080158015620007ae573d6000803e3d6000fd5b5090507f73ed91ec876a6ef07b2d4bbd36371e6eb6c5269d213084d4ff40ade4e3564f7a8130604051620007e492919062001be5565b60405180910390a186600360006101000a81548173ffffffffffffffffffffffffffffffffffffffff021916908373ffffffffffffffffffffffffffffffffffffffff1602179055508073ffffffffffffffffffffffffffffffffffffffff16634be9b707600360009054906101000a900473ffffffffffffffffffffffffffffffffffffffff1673ffffffffffffffffffffffffffffffffffffffff16632b804ee46040518163ffffffff1660e01b8152600401600060405180830381865afa158015620008b7573d6000803e3d6000fd5b505050506040513d6000823e3d601f19601f82011682018060405250810190620008e29190620019fb565b6040518263ffffffff1660e01b81526004016200090091906200122a565b600060405180830381600087803b1580156200091b57600080fd5b505af115801562000930573d6000803e3d6000fd5b505050505050505050505050565b6040516020016200094f906200189e565b60405160208183030381529060405280519060200120620009708162000b51565b85855114620009b6576040517f08c379a0000000000000000000000000000000000000000000000000000000008152600401620009ad9062001c88565b60405180910390fd5b620009c18662000d60565b92506000888888878787604051620009d99062000e92565b620009ea9695949392919062001b78565b604051809103906000f08015801562000a07573d6000803e3d6000fd5b5090507f73ed91ec876a6ef07b2d4bbd36371e6eb6c5269d213084d4ff40ade4e3564f7a813060405162000a3d92919062001be5565b60405180910390a18073ffffffffffffffffffffffffffffffffffffffff16634be9b707876040518263ffffffff1660e01b815260040162000a8091906200122a565b600060405180830381600087803b15801562000a9b57600080fd5b505af115801562000ab0573d6000803e3d6000fd5b50505050505050505050505050565b62000aca826200034a565b62000ad58162000b51565b62000ae1838362000c68565b50505050565b60007f01ffc9a7000000000000000000000000000000000000000000000000000000007bffffffffffffffffffffffffffffffffffffffffffffffffffffffff1916827bffffffffffffffffffffffffffffffffffffffffffffffffffffffff1916149050919050565b62000b668162000b6062000c60565b62000e3c565b50565b600062000b77838362000527565b62000c5557600160008085815260200190815260200160002060000160008473ffffffffffffffffffffffffffffffffffffffff1673ffffffffffffffffffffffffffffffffffffffff16815260200190815260200160002060006101000a81548160ff02191690831515021790555062000bf162000c60565b73ffffffffffffffffffffffffffffffffffffffff168273ffffffffffffffffffffffffffffffffffffffff16847f2f8788117e7eff1d82e926ec794901d17c78024a50270940304540a733656f0d60405160405180910390a46001905062000c5a565b600090505b92915050565b600033905090565b600062000c76838362000527565b1562000d5557600080600085815260200190815260200160002060000160008473ffffffffffffffffffffffffffffffffffffffff1673ffffffffffffffffffffffffffffffffffffffff16815260200190815260200160002060006101000a81548160ff02191690831515021790555062000cf162000c60565b73ffffffffffffffffffffffffffffffffffffffff168273ffffffffffffffffffffffffffffffffffffffff16847ff6391f5c32d9c69d2a47ea670b442974b53935d1edc7fd64eb21e047a839171b60405160405180910390a46001905062000d5a565b600090505b92915050565b60008066038d7ea4c680009050620186a0831062000dab5760646023828562000d8a919062001cd9565b62000d96919062001cd9565b62000da2919062001d53565b91505062000e37565b612710831062000de85760646032828562000dc7919062001cd9565b62000dd3919062001cd9565b62000ddf919062001d53565b91505062000e37565b6103e8831062000e255760646050828562000e04919062001cd9565b62000e10919062001cd9565b62000e1c919062001d53565b91505062000e37565b808362000e33919062001cd9565b9150505b919050565b62000e48828262000527565b62000e8e5780826040517fe2517d3f00000000000000000000000000000000000000000000000000000000815260040162000e8592919062001d8b565b60405180910390fd5b5050565b611cce8062001db983390190565b6000604051905090565b600080fd5b600080fd5b60007fffffffff0000000000000000000000000000000000000000000000000000000082169050919050565b62000eeb8162000eb4565b811462000ef757600080fd5b50565b60008135905062000f0b8162000ee0565b92915050565b60006020828403121562000f2a5762000f2962000eaa565b5b600062000f3a8482850162000efa565b91505092915050565b60008115159050919050565b62000f5a8162000f43565b82525050565b600060208201905062000f77600083018462000f4f565b92915050565b600073ffffffffffffffffffffffffffffffffffffffff82169050919050565b6000819050919050565b600062000fc862000fc262000fbc8462000f7d565b62000f9d565b62000f7d565b9050919050565b600062000fdc8262000fa7565b9050919050565b600062000ff08262000fcf565b9050919050565b620010028162000fe3565b82525050565b60006020820190506200101f600083018462000ff7565b92915050565b6000819050919050565b6200103a8162001025565b81146200104657600080fd5b50565b6000813590506200105a816200102f565b92915050565b60006020828403121562001079576200107862000eaa565b5b6000620010898482850162001049565b91505092915050565b6200109d8162001025565b82525050565b6000602082019050620010ba600083018462001092565b92915050565b600081519050919050565b600082825260208201905092915050565b6000819050602082019050919050565b600081519050919050565b600082825260208201905092915050565b60005b83811015620011285780820151818401526020810190506200110b565b60008484015250505050565b6000601f19601f8301169050919050565b60006200115282620010ec565b6200115e8185620010f7565b93506200117081856020860162001108565b6200117b8162001134565b840191505092915050565b600062001194838362001145565b905092915050565b6000602082019050919050565b6000620011b682620010c0565b620011c28185620010cb565b935083602082028501620011d685620010dc565b8060005b85811015620012185784840389528151620011f6858262001186565b945062001203836200119c565b925060208a01995050600181019050620011da565b50829750879550505050505092915050565b60006020820190508181036000830152620012468184620011a9565b905092915050565b60006200125b8262000f7d565b9050919050565b6200126d816200124e565b81146200127957600080fd5b50565b6000813590506200128d8162001262565b92915050565b60008060408385031215620012ad57620012ac62000eaa565b5b6000620012bd8582860162001049565b9250506020620012d0858286016200127c565b9150509250929050565b6000819050919050565b620012ef81620012da565b8114620012fb57600080fd5b50565b6000813590506200130f81620012e4565b92915050565b6000602082840312156200132e576200132d62000eaa565b5b60006200133e84828501620012fe565b91505092915050565b600082825260208201905092915050565b60006200136582620010ec565b62001371818562001347565b93506200138381856020860162001108565b6200138e8162001134565b840191505092915050565b60006020820190508181036000830152620013b5818462001358565b905092915050565b60008060008060008060c08789031215620013dd57620013dc62000eaa565b5b6000620013ed89828a016200127c565b96505060206200140089828a016200127c565b95505060406200141389828a01620012fe565b94505060606200142689828a016200127c565b93505060806200143989828a01620012fe565b92505060a06200144c89828a01620012fe565b9150509295509295509295565b600080fd5b7f4e487b7100000000000000000000000000000000000000000000000000000000600052604160045260246000fd5b620014988262001134565b810181811067ffffffffffffffff82111715620014ba57620014b96200145e565b5b80604052505050565b6000620014cf62000ea0565b9050620014dd82826200148d565b919050565b600067ffffffffffffffff8211156200150057620014ff6200145e565b5b602082029050602081019050919050565b600080fd5b600080fd5b600067ffffffffffffffff8211156200153957620015386200145e565b5b620015448262001134565b9050602081019050919050565b82818337600083830152505050565b60006200157762001571846200151b565b620014c3565b90508281526020810184848401111562001596576200159562001516565b5b620015a384828562001551565b509392505050565b600082601f830112620015c357620015c262001459565b5b8135620015d584826020860162001560565b91505092915050565b6000620015f5620015ef84620014e2565b620014c3565b905080838252602082019050602084028301858111156200161b576200161a62001511565b5b835b818110156200166957803567ffffffffffffffff81111562001644576200164362001459565b5b808601620016538982620015ab565b855260208501945050506020810190506200161d565b5050509392505050565b600082601f8301126200168b576200168a62001459565b5b81356200169d848260208601620015de565b91505092915050565b600080600080600080600060e0888a031215620016c857620016c762000eaa565b5b6000620016d88a828b016200127c565b9750506020620016eb8a828b016200127c565b9650506040620016fe8a828b01620012fe565b955050606088013567ffffffffffffffff81111562001722576200172162000eaf565b5b620017308a828b0162001673565b9450506080620017438a828b016200127c565b93505060a0620017568a828b01620012fe565b92505060c0620017698a828b01620012fe565b91505092959891949750929550565b600081905092915050565b7f41444d494e000000000000000000000000000000000000000000000000000000600082015250565b6000620017bb60058362001778565b9150620017c88262001783565b600582019050919050565b6000620017e082620017ac565b9150819050919050565b7f4e487b7100000000000000000000000000000000000000000000000000000000600052602260045260246000fd5b600060028204905060018216806200183257607f821691505b602082108103620018485762001847620017ea565b5b50919050565b7f504152544e455200000000000000000000000000000000000000000000000000600082015250565b60006200188660078362001778565b915062001893826200184e565b600782019050919050565b6000620018ab8262001877565b9150819050919050565b6000620018cc620018c6846200151b565b620014c3565b905082815260208101848484011115620018eb57620018ea62001516565b5b620018f884828562001108565b509392505050565b600082601f83011262001918576200191762001459565b5b81516200192a848260208601620018b5565b91505092915050565b60006200194a6200194484620014e2565b620014c3565b9050808382526020820190506020840283018581111562001970576200196f62001511565b5b835b81811015620019be57805167ffffffffffffffff81111562001999576200199862001459565b5b808601620019a8898262001900565b8552602085019450505060208101905062001972565b5050509392505050565b600082601f830112620019e057620019df62001459565b5b8151620019f284826020860162001933565b91505092915050565b60006020828403121562001a145762001a1362000eaa565b5b600082015167ffffffffffffffff81111562001a355762001a3462000eaf565b5b62001a4384828501620019c8565b91505092915050565b7f4469737075746520636173657320646f65736e2774206d61746368206469737060008201527f75746520636173657320616772656564207c7c2052657472696576696e67206460208201527f6973707574652063617365732066726f6d20636f6e7472616374206661696c6560408201527f642c20706c65617365207265766973652067657444697370757465436173657360608201527f28292066756e6374696f6e000000000000000000000000000000000000000000608082015250565b600062001b1c608b8362001347565b915062001b298262001a4c565b60a082019050919050565b6000602082019050818103600083015262001b4f8162001b0d565b9050919050565b62001b61816200124e565b82525050565b62001b7281620012da565b82525050565b600060c08201905062001b8f600083018962001b56565b62001b9e602083018862001b56565b62001bad604083018762001b67565b62001bbc606083018662001b56565b62001bcb608083018562001b67565b62001bda60a083018462001b67565b979650505050505050565b600060408201905062001bfc600083018562001b56565b62001c0b602083018462001b56565b9392505050565b7f4469737075746520636173657320646f65736e2774206d61746368206469737060008201527f7574652063617365732061677265656400000000000000000000000000000000602082015250565b600062001c7060308362001347565b915062001c7d8262001c12565b604082019050919050565b6000602082019050818103600083015262001ca38162001c61565b9050919050565b7f4e487b7100000000000000000000000000000000000000000000000000000000600052601160045260246000fd5b600062001ce682620012da565b915062001cf383620012da565b925082820262001d0381620012da565b9150828204841483151762001d1d5762001d1c62001caa565b5b5092915050565b7f4e487b7100000000000000000000000000000000000000000000000000000000600052601260045260246000fd5b600062001d6082620012da565b915062001d6d83620012da565b92508262001d805762001d7f62001d24565b5b828204905092915050565b600060408201905062001da2600083018562001b56565b62001db1602083018462001092565b939250505056fe60806040523480156200001157600080fd5b5060405162001cce38038062001cce83398181016040528101906200003791906200020d565b336000806101000a81548173ffffffffffffffffffffffffffffffffffffffff021916908373ffffffffffffffffffffffffffffffffffffffff16021790555085600160006101000a81548173ffffffffffffffffffffffffffffffffffffffff021916908373ffffffffffffffffffffffffffffffffffffffff16021790555084600260006101000a81548173ffffffffffffffffffffffffffffffffffffffff021916908373ffffffffffffffffffffffffffffffffffffffff1602179055508360038190555082600760006101000a81548173ffffffffffffffffffffffffffffffffffffffff021916908373ffffffffffffffffffffffffffffffffffffffff160217905550816005819055508042620001569190620002d8565b60088190555050505050505062000313565b600080fd5b600073ffffffffffffffffffffffffffffffffffffffff82169050919050565b60006200019a826200016d565b9050919050565b620001ac816200018d565b8114620001b857600080fd5b50565b600081519050620001cc81620001a1565b92915050565b6000819050919050565b620001e781620001d2565b8114620001f357600080fd5b50565b6000815190506200020781620001dc565b92915050565b60008060008060008060c087890312156200022d576200022c62000168565b5b60006200023d89828a01620001bb565b96505060206200025089828a01620001bb565b95505060406200026389828a01620001f6565b94505060606200027689828a01620001bb565b93505060806200028989828a01620001f6565b92505060a06200029c89828a01620001f6565b9150509295509295509295565b7f4e487b7100000000000000000000000000000000000000000000000000000000600052601160045260246000fd5b6000620002e582620001d2565b9150620002f283620001d2565b92508282019050808211156200030d576200030c620002a9565b5b92915050565b6119ab80620003236000396000f3fe608060405234801561001057600080fd5b50600436106100cf5760003560e01c8063aa93b1b31161008c578063be34d4c111610066578063be34d4c1146101dc578063c52f2e08146101fa578063e1f6c09814610218578063fc0c546a14610236576100cf565b8063aa93b1b314610170578063ae90b2131461018e578063b95d387b146101ac576100cf565b80630a3f013f146100d4578063123119cd146100f25780633b76594d14610110578063419791441461012c5780634be9b7071461014a57806369d8957514610166575b600080fd5b6100dc610254565b6040516100e99190610c22565b60405180910390f35b6100fa61025a565b6040516101079190610c7e565b60405180910390f35b61012a60048036038101906101259190610cd9565b610280565b005b6101346104c7565b6040516101419190610c22565b60405180910390f35b610164600480360381019061015f9190610f32565b6104cd565b005b61016e610577565b005b6101786106e3565b6040516101859190610c22565b60405180910390f35b6101966106e9565b6040516101a39190610c7e565b60405180910390f35b6101c660048036038101906101c19190610cd9565b61070f565b6040516101d39190610ffa565b60405180910390f35b6101e46107bb565b6040516101f19190610c22565b60405180910390f35b6102026107c1565b60405161020f9190611037565b60405180910390f35b6102206107d4565b60405161022d9190610c7e565b60405180910390f35b61023e6107f8565b60405161024b91906110b1565b60405180910390f35b60085481565b600160009054906101000a900473ffffffffffffffffffffffffffffffffffffffff1681565b600160009054906101000a900473ffffffffffffffffffffffffffffffffffffffff1673ffffffffffffffffffffffffffffffffffffffff163373ffffffffffffffffffffffffffffffffffffffff1614610310576040517f08c379a000000000000000000000000000000000000000000000000000000000815260040161030790611118565b60405180910390fd5b600960009054906101000a900460ff1615610360576040517f08c379a000000000000000000000000000000000000000000000000000000000815260040161035790611184565b60405180910390fd5b80600554146103a4576040517f08c379a000000000000000000000000000000000000000000000000000000000815260040161039b90611216565b60405180910390fd5b6001600960006101000a81548160ff021916908315150217905550600760009054906101000a900473ffffffffffffffffffffffffffffffffffffffff1673ffffffffffffffffffffffffffffffffffffffff166323b872dd600160009054906101000a900473ffffffffffffffffffffffffffffffffffffffff16306006546040518463ffffffff1660e01b815260040161044293929190611236565b6020604051808303816000875af1158015610461573d6000803e3d6000fd5b505050506040513d601f19601f820116820180604052508101906104859190611299565b6104c4576040517f08c379a00000000000000000000000000000000000000000000000000000000081526004016104bb90611312565b60405180910390fd5b50565b60065481565b600260009054906101000a900473ffffffffffffffffffffffffffffffffffffffff1673ffffffffffffffffffffffffffffffffffffffff163373ffffffffffffffffffffffffffffffffffffffff161461055d576040517f08c379a000000000000000000000000000000000000000000000000000000000815260040161055490611118565b60405180910390fd5b8060049080519060200190610573929190610b2f565b5050565b60008054906101000a900473ffffffffffffffffffffffffffffffffffffffff1673ffffffffffffffffffffffffffffffffffffffff163373ffffffffffffffffffffffffffffffffffffffff1614610605576040517f08c379a00000000000000000000000000000000000000000000000000000000081526004016105fc90611118565b60405180910390fd5b600960009054906101000a900460ff16610654576040517f08c379a000000000000000000000000000000000000000000000000000000000815260040161064b9061137e565b60405180910390fd5b600854421015610699576040517f08c379a0000000000000000000000000000000000000000000000000000000008152600401610690906113ea565b60405180910390fd5b600960009054906101000a900460ff1680156106b757506008544210155b156106e157600354600480549050036106d7576106d261081e565b6106e0565b6106df61097f565b5b5b565b60035481565b600260009054906101000a900473ffffffffffffffffffffffffffffffffffffffff1681565b6004818154811061071f57600080fd5b90600052602060002001600091509050805461073a90611439565b80601f016020809104026020016040519081016040528092919081815260200182805461076690611439565b80156107b35780601f10610788576101008083540402835291602001916107b3565b820191906000526020600020905b81548152906001019060200180831161079657829003601f168201915b505050505081565b60055481565b600960009054906101000a900460ff1681565b60008054906101000a900473ffffffffffffffffffffffffffffffffffffffff1681565b600760009054906101000a900473ffffffffffffffffffffffffffffffffffffffff1681565b600760009054906101000a900473ffffffffffffffffffffffffffffffffffffffff1673ffffffffffffffffffffffffffffffffffffffff1663a9059cbb600260009054906101000a900473ffffffffffffffffffffffffffffffffffffffff166006546040518363ffffffff1660e01b815260040161089f92919061146a565b6020604051808303816000875af11580156108be573d6000803e3d6000fd5b505050506040513d601f19601f820116820180604052508101906108e29190611299565b610921576040517f08c379a0000000000000000000000000000000000000000000000000000000008152600401610918906114df565b60405180910390fd5b6000600960006101000a81548160ff02191690831515021790555060006006819055506040517f08c379a000000000000000000000000000000000000000000000000000000000815260040161097690611597565b60405180910390fd5b600960009054906101000a900460ff166109ce576040517f08c379a00000000000000000000000000000000000000000000000000000000081526004016109c59061137e565b60405180910390fd5b600760009054906101000a900473ffffffffffffffffffffffffffffffffffffffff1673ffffffffffffffffffffffffffffffffffffffff1663a9059cbb600160009054906101000a900473ffffffffffffffffffffffffffffffffffffffff166006546040518363ffffffff1660e01b8152600401610a4f92919061146a565b6020604051808303816000875af1158015610a6e573d6000803e3d6000fd5b505050506040513d601f19601f82011682018060405250810190610a929190611299565b610ad1576040517f08c379a0000000000000000000000000000000000000000000000000000000008152600401610ac890611603565b60405180910390fd5b6000600960006101000a81548160ff02191690831515021790555060006006819055506040517f08c379a0000000000000000000000000000000000000000000000000000000008152600401610b26906116e1565b60405180910390fd5b828054828255906000526020600020908101928215610b77579160200282015b82811115610b76578251829081610b6691906118a3565b5091602001919060010190610b4f565b5b509050610b849190610b88565b5090565b5b80821115610ba85760008181610b9f9190610bac565b50600101610b89565b5090565b508054610bb890611439565b6000825580601f10610bca5750610be9565b601f016020900490600052602060002090810190610be89190610bec565b5b50565b5b80821115610c05576000816000905550600101610bed565b5090565b6000819050919050565b610c1c81610c09565b82525050565b6000602082019050610c376000830184610c13565b92915050565b600073ffffffffffffffffffffffffffffffffffffffff82169050919050565b6000610c6882610c3d565b9050919050565b610c7881610c5d565b82525050565b6000602082019050610c936000830184610c6f565b92915050565b6000604051905090565b600080fd5b600080fd5b610cb681610c09565b8114610cc157600080fd5b50565b600081359050610cd381610cad565b92915050565b600060208284031215610cef57610cee610ca3565b5b6000610cfd84828501610cc4565b91505092915050565b600080fd5b6000601f19601f8301169050919050565b7f4e487b7100000000000000000000000000000000000000000000000000000000600052604160045260246000fd5b610d5482610d0b565b810181811067ffffffffffffffff82111715610d7357610d72610d1c565b5b80604052505050565b6000610d86610c99565b9050610d928282610d4b565b919050565b600067ffffffffffffffff821115610db257610db1610d1c565b5b602082029050602081019050919050565b600080fd5b600080fd5b600067ffffffffffffffff821115610de857610de7610d1c565b5b610df182610d0b565b9050602081019050919050565b82818337600083830152505050565b6000610e20610e1b84610dcd565b610d7c565b905082815260208101848484011115610e3c57610e3b610dc8565b5b610e47848285610dfe565b509392505050565b600082601f830112610e6457610e63610d06565b5b8135610e74848260208601610e0d565b91505092915050565b6000610e90610e8b84610d97565b610d7c565b90508083825260208201905060208402830185811115610eb357610eb2610dc3565b5b835b81811015610efa57803567ffffffffffffffff811115610ed857610ed7610d06565b5b808601610ee58982610e4f565b85526020850194505050602081019050610eb5565b5050509392505050565b600082601f830112610f1957610f18610d06565b5b8135610f29848260208601610e7d565b91505092915050565b600060208284031215610f4857610f47610ca3565b5b600082013567ffffffffffffffff811115610f6657610f65610ca8565b5b610f7284828501610f04565b91505092915050565b600081519050919050565b600082825260208201905092915050565b60005b83811015610fb5578082015181840152602081019050610f9a565b60008484015250505050565b6000610fcc82610f7b565b610fd68185610f86565b9350610fe6818560208601610f97565b610fef81610d0b565b840191505092915050565b600060208201905081810360008301526110148184610fc1565b905092915050565b60008115159050919050565b6110318161101c565b82525050565b600060208201905061104c6000830184611028565b92915050565b6000819050919050565b600061107761107261106d84610c3d565b611052565b610c3d565b9050919050565b60006110898261105c565b9050919050565b600061109b8261107e565b9050919050565b6110ab81611090565b82525050565b60006020820190506110c660008301846110a2565b92915050565b7f6e6f7420617574686f72697a6564000000000000000000000000000000000000600082015250565b6000611102600e83610f86565b915061110d826110cc565b602082019050919050565b60006020820190508181036000830152611131816110f5565b9050919050565b7f46756e647320616c7265616479206465706f7369746564000000000000000000600082015250565b600061116e601783610f86565b915061117982611138565b602082019050919050565b6000602082019050818103600083015261119d81611161565b9050919050565b7f43757272656e742066756e647320646f65736e2774206d6174636820696e697460008201527f69616c206167726565642066756e647300000000000000000000000000000000602082015250565b6000611200603083610f86565b915061120b826111a4565b604082019050919050565b6000602082019050818103600083015261122f816111f3565b9050919050565b600060608201905061124b6000830186610c6f565b6112586020830185610c6f565b6112656040830184610c13565b949350505050565b6112768161101c565b811461128157600080fd5b50565b6000815190506112938161126d565b92915050565b6000602082840312156112af576112ae610ca3565b5b60006112bd84828501611284565b91505092915050565b7f546f6b656e73206465706f736974206661696c65640000000000000000000000600082015250565b60006112fc601583610f86565b9150611307826112c6565b602082019050919050565b6000602082019050818103600083015261132b816112ef565b9050919050565b7f4e6f2066756e6473206465706f73697465640000000000000000000000000000600082015250565b6000611368601283610f86565b915061137382611332565b602082019050919050565b600060208201905081810360008301526113978161135b565b9050919050565b7f46756e647320617265207374696c6c2068656c64000000000000000000000000600082015250565b60006113d4601483610f86565b91506113df8261139e565b602082019050919050565b60006020820190508181036000830152611403816113c7565b9050919050565b7f4e487b7100000000000000000000000000000000000000000000000000000000600052602260045260246000fd5b6000600282049050600182168061145157607f821691505b6020821081036114645761146361140a565b5b50919050565b600060408201905061147f6000830185610c6f565b61148c6020830184610c13565b9392505050565b7f46756e64732072656c65617365206661696c6564000000000000000000000000600082015250565b60006114c9601483610f86565b91506114d482611493565b602082019050919050565b600060208201905081810360008301526114f8816114bc565b9050919050565b7f4465706f73697465642064697370757465206361736573206d6174636820696e60008201527f697469616c2061677265656420646973707574652063617365732c2066756e6460208201527f73206172652073656e7420746f20706179656500000000000000000000000000604082015250565b6000611581605383610f86565b915061158c826114ff565b606082019050919050565b600060208201905081810360008301526115b081611574565b9050919050565b7f46756e64732072657475726e206661696c656400000000000000000000000000600082015250565b60006115ed601383610f86565b91506115f8826115b7565b602082019050919050565b6000602082019050818103600083015261161c816115e0565b9050919050565b7f4465706f73697465642064697370757465206361736573206469646e2774206d60008201527f6174636820696e697469616c206167726565642064697370757465206361736560208201527f732c2066756e6473206172652072657475726e6564206261636b20746f20706160408201527f7965720000000000000000000000000000000000000000000000000000000000606082015250565b60006116cb606383610f86565b91506116d682611623565b608082019050919050565b600060208201905081810360008301526116fa816116be565b9050919050565b60008190508160005260206000209050919050565b60006020601f8301049050919050565b600082821b905092915050565b6000600883026117637fffffffffffffffffffffffffffffffffffffffffffffffffffffffffffffffff82611726565b61176d8683611726565b95508019841693508086168417925050509392505050565b60006117a061179b61179684610c09565b611052565b610c09565b9050919050565b6000819050919050565b6117ba83611785565b6117ce6117c6826117a7565b848454611733565b825550505050565b600090565b6117e36117d6565b6117ee8184846117b1565b505050565b5b81811015611812576118076000826117db565b6001810190506117f4565b5050565b601f8211156118575761182881611701565b61183184611716565b81016020851015611840578190505b61185461184c85611716565b8301826117f3565b50505b505050565b600082821c905092915050565b600061187a6000198460080261185c565b1980831691505092915050565b60006118938383611869565b9150826002028217905092915050565b6118ac82610f7b565b67ffffffffffffffff8111156118c5576118c4610d1c565b5b6118cf8254611439565b6118da828285611816565b600060209050601f83116001811461190d57600084156118fb578287015190505b6119058582611887565b86555061196d565b601f19841661191b86611701565b60005b828110156119435784890151825560018201915060208501945060208101905061191e565b86831015611960578489015161195c601f891682611869565b8355505b6001600288020188555050505b50505050505056fea2646970667358221220f62938d093b4b2d0d4cbde4502248ff1333aaf4bcbbe60978f44024510f0c65964736f6c63430008180033a2646970667358221220d4462b859ffcfd865b64650371267f0406efaa323e677414dcc936d08c44f41e64736f6c63430008180033",
  "linkReferences": {},
  "deployedLinkReferences": {}
}