{
  "_format": "hh-sol-artifact-1",
  "contractName": "SassyToken",
  "sourceName": "contracts/SassyToken.sol",
  "abi": [
    {
      "inputs": [
        {
          "internalType": "address",
          "name": "initialOwner",
          "type": "address"
        },
        {
          "internalType": "address",
          "name": "_SassyJuggler",
          "type": "address"
        }
      ],
      "stateMutability": "nonpayable",
      "type": "constructor"
    },
    {
      "inputs": [],
      "name": "ECDSAInvalidSignature",
      "type": "error"
    },
    {
      "inputs": [
        {
          "internalType": "uint256",
          "name": "length",
          "type": "uint256"
        }
      ],
      "name": "ECDSAInvalidSignatureLength",
      "type": "error"
    },
    {
      "inputs": [
        {
          "internalType": "bytes32",
          "name": "s",
          "type": "bytes32"
        }
      ],
      "name": "ECDSAInvalidSignatureS",
      "type": "error"
    },
    {
      "inputs": [
        {
          "internalType": "address",
          "name": "spender",
          "type": "address"
        },
        {
          "internalType": "uint256",
          "name": "allowance",
          "type": "uint256"
        },
        {
          "internalType": "uint256",
          "name": "needed",
          "type": "uint256"
        }
      ],
      "name": "ERC20InsufficientAllowance",
      "type": "error"
    },
    {
      "inputs": [
        {
          "internalType": "address",
          "name": "sender",
          "type": "address"
        },
        {
          "internalType": "uint256",
          "name": "balance",
          "type": "uint256"
        },
        {
          "internalType": "uint256",
          "name": "needed",
          "type": "uint256"
        }
      ],
      "name": "ERC20InsufficientBalance",
      "type": "error"
    },
    {
      "inputs": [
        {
          "internalType": "address",
          "name": "approver",
          "type": "address"
        }
      ],
      "name": "ERC20InvalidApprover",
      "type": "error"
    },
    {
      "inputs": [
        {
          "internalType": "address",
          "name": "receiver",
          "type": "address"
        }
      ],
      "name": "ERC20InvalidReceiver",
      "type": "error"
    },
    {
      "inputs": [
        {
          "internalType": "address",
          "name": "sender",
          "type": "address"
        }
      ],
      "name": "ERC20InvalidSender",
      "type": "error"
    },
    {
      "inputs": [
        {
          "internalType": "address",
          "name": "spender",
          "type": "address"
        }
      ],
      "name": "ERC20InvalidSpender",
      "type": "error"
    },
    {
      "inputs": [
        {
          "internalType": "uint256",
          "name": "deadline",
          "type": "uint256"
        }
      ],
      "name": "ERC2612ExpiredSignature",
      "type": "error"
    },
    {
      "inputs": [
        {
          "internalType": "address",
          "name": "signer",
          "type": "address"
        },
        {
          "internalType": "address",
          "name": "owner",
          "type": "address"
        }
      ],
      "name": "ERC2612InvalidSigner",
      "type": "error"
    },
    {
      "inputs": [
        {
          "internalType": "address",
          "name": "account",
          "type": "address"
        },
        {
          "internalType": "uint256",
          "name": "currentNonce",
          "type": "uint256"
        }
      ],
      "name": "InvalidAccountNonce",
      "type": "error"
    },
    {
      "inputs": [],
      "name": "InvalidShortString",
      "type": "error"
    },
    {
      "inputs": [
        {
          "internalType": "address",
          "name": "owner",
          "type": "address"
        }
      ],
      "name": "OwnableInvalidOwner",
      "type": "error"
    },
    {
      "inputs": [
        {
          "internalType": "address",
          "name": "account",
          "type": "address"
        }
      ],
      "name": "OwnableUnauthorizedAccount",
      "type": "error"
    },
    {
      "inputs": [],
      "name": "ReentrancyGuardReentrantCall",
      "type": "error"
    },
    {
      "inputs": [
        {
          "internalType": "string",
          "name": "str",
          "type": "string"
        }
      ],
      "name": "StringTooLong",
      "type": "error"
    },
    {
      "anonymous": false,
      "inputs": [
        {
          "indexed": true,
          "internalType": "address",
          "name": "owner",
          "type": "address"
        },
        {
          "indexed": true,
          "internalType": "address",
          "name": "spender",
          "type": "address"
        },
        {
          "indexed": false,
          "internalType": "uint256",
          "name": "value",
          "type": "uint256"
        }
      ],
      "name": "Approval",
      "type": "event"
    },
    {
      "anonymous": false,
      "inputs": [],
      "name": "EIP712DomainChanged",
      "type": "event"
    },
    {
      "anonymous": false,
      "inputs": [
        {
          "indexed": true,
          "internalType": "address",
          "name": "previousOwner",
          "type": "address"
        },
        {
          "indexed": true,
          "internalType": "address",
          "name": "newOwner",
          "type": "address"
        }
      ],
      "name": "OwnershipTransferred",
      "type": "event"
    },
    {
      "anonymous": false,
      "inputs": [
        {
          "indexed": true,
          "internalType": "address",
          "name": "from",
          "type": "address"
        },
        {
          "indexed": true,
          "internalType": "address",
          "name": "to",
          "type": "address"
        },
        {
          "indexed": false,
          "internalType": "uint256",
          "name": "value",
          "type": "uint256"
        }
      ],
      "name": "Transfer",
      "type": "event"
    },
    {
      "anonymous": false,
      "inputs": [
        {
          "indexed": true,
          "internalType": "address",
          "name": "receiver",
          "type": "address"
        },
        {
          "indexed": false,
          "internalType": "uint256",
          "name": "amount",
          "type": "uint256"
        }
      ],
      "name": "tokens_minted",
      "type": "event"
    },
    {
      "anonymous": false,
      "inputs": [
        {
          "indexed": true,
          "internalType": "address",
          "name": "spender",
          "type": "address"
        },
        {
          "indexed": false,
          "internalType": "uint256",
          "name": "value",
          "type": "uint256"
        }
      ],
      "name": "tokens_permitted",
      "type": "event"
    },
    {
      "anonymous": false,
      "inputs": [
        {
          "indexed": true,
          "internalType": "address",
          "name": "owner",
          "type": "address"
        },
        {
          "indexed": false,
          "internalType": "uint256",
          "name": "amount",
          "type": "uint256"
        }
      ],
      "name": "withdrawalOwner",
      "type": "event"
    },
    {
      "inputs": [],
      "name": "DOMAIN_SEPARATOR",
      "outputs": [
        {
          "internalType": "bytes32",
          "name": "",
          "type": "bytes32"
        }
      ],
      "stateMutability": "view",
      "type": "function"
    },
    {
      "inputs": [],
      "name": "SassyJuggler",
      "outputs": [
        {
          "internalType": "address",
          "name": "",
          "type": "address"
        }
      ],
      "stateMutability": "view",
      "type": "function"
    },
    {
      "inputs": [],
      "name": "_withdraw",
      "outputs": [],
      "stateMutability": "nonpayable",
      "type": "function"
    },
    {
      "inputs": [
        {
          "internalType": "address",
          "name": "owner",
          "type": "address"
        },
        {
          "internalType": "address",
          "name": "spender",
          "type": "address"
        }
      ],
      "name": "allowance",
      "outputs": [
        {
          "internalType": "uint256",
          "name": "",
          "type": "uint256"
        }
      ],
      "stateMutability": "view",
      "type": "function"
    },
    {
      "inputs": [
        {
          "internalType": "address",
          "name": "spender",
          "type": "address"
        },
        {
          "internalType": "uint256",
          "name": "value",
          "type": "uint256"
        }
      ],
      "name": "approve",
      "outputs": [
        {
          "internalType": "bool",
          "name": "",
          "type": "bool"
        }
      ],
      "stateMutability": "nonpayable",
      "type": "function"
    },
    {
      "inputs": [
        {
          "internalType": "address",
          "name": "account",
          "type": "address"
        }
      ],
      "name": "balanceOf",
      "outputs": [
        {
          "internalType": "uint256",
          "name": "",
          "type": "uint256"
        }
      ],
      "stateMutability": "view",
      "type": "function"
    },
    {
      "inputs": [
        {
          "internalType": "uint256",
          "name": "value",
          "type": "uint256"
        }
      ],
      "name": "burn",
      "outputs": [],
      "stateMutability": "nonpayable",
      "type": "function"
    },
    {
      "inputs": [
        {
          "internalType": "address",
          "name": "account",
          "type": "address"
        },
        {
          "internalType": "uint256",
          "name": "value",
          "type": "uint256"
        }
      ],
      "name": "burnFrom",
      "outputs": [],
      "stateMutability": "nonpayable",
      "type": "function"
    },
    {
      "inputs": [],
      "name": "decimals",
      "outputs": [
        {
          "internalType": "uint8",
          "name": "",
          "type": "uint8"
        }
      ],
      "stateMutability": "view",
      "type": "function"
    },
    {
      "inputs": [],
      "name": "eip712Domain",
      "outputs": [
        {
          "internalType": "bytes1",
          "name": "fields",
          "type": "bytes1"
        },
        {
          "internalType": "string",
          "name": "name",
          "type": "string"
        },
        {
          "internalType": "string",
          "name": "version",
          "type": "string"
        },
        {
          "internalType": "uint256",
          "name": "chainId",
          "type": "uint256"
        },
        {
          "internalType": "address",
          "name": "verifyingContract",
          "type": "address"
        },
        {
          "internalType": "bytes32",
          "name": "salt",
          "type": "bytes32"
        },
        {
          "internalType": "uint256[]",
          "name": "extensions",
          "type": "uint256[]"
        }
      ],
      "stateMutability": "view",
      "type": "function"
    },
    {
      "inputs": [
        {
          "internalType": "address",
          "name": "receiver",
          "type": "address"
        },
        {
          "internalType": "uint256",
          "name": "amount",
          "type": "uint256"
        }
      ],
      "name": "mint_token",
      "outputs": [],
      "stateMutability": "nonpayable",
      "type": "function"
    },
    {
      "inputs": [],
      "name": "name",
      "outputs": [
        {
          "internalType": "string",
          "name": "",
          "type": "string"
        }
      ],
      "stateMutability": "view",
      "type": "function"
    },
    {
      "inputs": [
        {
          "internalType": "address",
          "name": "owner",
          "type": "address"
        }
      ],
      "name": "nonces",
      "outputs": [
        {
          "internalType": "uint256",
          "name": "",
          "type": "uint256"
        }
      ],
      "stateMutability": "view",
      "type": "function"
    },
    {
      "inputs": [],
      "name": "owner",
      "outputs": [
        {
          "internalType": "address",
          "name": "",
          "type": "address"
        }
      ],
      "stateMutability": "view",
      "type": "function"
    },
    {
      "inputs": [
        {
          "internalType": "address",
          "name": "owner",
          "type": "address"
        },
        {
          "internalType": "address",
          "name": "spender",
          "type": "address"
        },
        {
          "internalType": "uint256",
          "name": "value",
          "type": "uint256"
        },
        {
          "internalType": "uint256",
          "name": "deadline",
          "type": "uint256"
        },
        {
          "internalType": "uint8",
          "name": "v",
          "type": "uint8"
        },
        {
          "internalType": "bytes32",
          "name": "r",
          "type": "bytes32"
        },
        {
          "internalType": "bytes32",
          "name": "s",
          "type": "bytes32"
        }
      ],
      "name": "permit",
      "outputs": [],
      "stateMutability": "nonpayable",
      "type": "function"
    },
    {
      "inputs": [
        {
          "internalType": "address",
          "name": "spender",
          "type": "address"
        },
        {
          "internalType": "uint256",
          "name": "value",
          "type": "uint256"
        },
        {
          "internalType": "uint256",
          "name": "deadline",
          "type": "uint256"
        },
        {
          "internalType": "uint8",
          "name": "v",
          "type": "uint8"
        },
        {
          "internalType": "bytes32",
          "name": "r",
          "type": "bytes32"
        },
        {
          "internalType": "bytes32",
          "name": "s",
          "type": "bytes32"
        }
      ],
      "name": "permit_token",
      "outputs": [],
      "stateMutability": "nonpayable",
      "type": "function"
    },
    {
      "inputs": [],
      "name": "renounceOwnership",
      "outputs": [],
      "stateMutability": "nonpayable",
      "type": "function"
    },
    {
      "inputs": [],
      "name": "symbol",
      "outputs": [
        {
          "internalType": "string",
          "name": "",
          "type": "string"
        }
      ],
      "stateMutability": "view",
      "type": "function"
    },
    {
      "inputs": [],
      "name": "totalSupply",
      "outputs": [
        {
          "internalType": "uint256",
          "name": "",
          "type": "uint256"
        }
      ],
      "stateMutability": "view",
      "type": "function"
    },
    {
      "inputs": [
        {
          "internalType": "address",
          "name": "to",
          "type": "address"
        },
        {
          "internalType": "uint256",
          "name": "value",
          "type": "uint256"
        }
      ],
      "name": "transfer",
      "outputs": [
        {
          "internalType": "bool",
          "name": "",
          "type": "bool"
        }
      ],
      "stateMutability": "nonpayable",
      "type": "function"
    },
    {
      "inputs": [
        {
          "internalType": "address",
          "name": "from",
          "type": "address"
        },
        {
          "internalType": "address",
          "name": "to",
          "type": "address"
        },
        {
          "internalType": "uint256",
          "name": "value",
          "type": "uint256"
        }
      ],
      "name": "transferFrom",
      "outputs": [
        {
          "internalType": "bool",
          "name": "",
          "type": "bool"
        }
      ],
      "stateMutability": "nonpayable",
      "type": "function"
    },
    {
      "inputs": [
        {
          "internalType": "address",
          "name": "newOwner",
          "type": "address"
        }
      ],
      "name": "transferOwnership",
      "outputs": [],
      "stateMutability": "nonpayable",
      "type": "function"
    }
  ],
  "bytecode": "0x6101606040523480156200001257600080fd5b50604051620030ad380380620030ad83398181016040528101906200003891906200051d565b816040518060400160405280600a81526020017f5361737379546f6b656e00000000000000000000000000000000000000000000815250806040518060400160405280600181526020017f31000000000000000000000000000000000000000000000000000000000000008152506040518060400160405280600a81526020017f5361737379546f6b656e000000000000000000000000000000000000000000008152506040518060400160405280600281526020017f53540000000000000000000000000000000000000000000000000000000000008152508160039081620001239190620007de565b508060049081620001359190620007de565b5050506200014e600583620002c160201b90919060201c565b61012081815250506200016c600682620002c160201b90919060201c565b6101408181525050818051906020012060e08181525050808051906020012061010081815250504660a08181525050620001ab6200031960201b60201c565b608081815250503073ffffffffffffffffffffffffffffffffffffffff1660c08173ffffffffffffffffffffffffffffffffffffffff1681525050505050600073ffffffffffffffffffffffffffffffffffffffff168173ffffffffffffffffffffffffffffffffffffffff16036200025e5760006040517f1e4fbdf7000000000000000000000000000000000000000000000000000000008152600401620002559190620008d6565b60405180910390fd5b6200026f816200037660201b60201c565b50600160098190555080600a60006101000a81548173ffffffffffffffffffffffffffffffffffffffff021916908373ffffffffffffffffffffffffffffffffffffffff160217905550505062000ad1565b6000602083511015620002e757620002df836200043c60201b60201c565b905062000313565b82620002f983620004a960201b60201c565b60000190816200030a9190620007de565b5060ff60001b90505b92915050565b60007f8b73c3c69bb8fe3d512ecc4cf759cc79239f7b179b0ffacaa9a75d522b39400f60e0516101005146306040516020016200035b9594939291906200091f565b60405160208183030381529060405280519060200120905090565b6000600860009054906101000a900473ffffffffffffffffffffffffffffffffffffffff16905081600860006101000a81548173ffffffffffffffffffffffffffffffffffffffff021916908373ffffffffffffffffffffffffffffffffffffffff1602179055508173ffffffffffffffffffffffffffffffffffffffff168173ffffffffffffffffffffffffffffffffffffffff167f8be0079c531659141344cd1fd0a4f28419497f9722a3daafe3b4186f6b6457e060405160405180910390a35050565b600080829050601f815111156200048c57826040517f305a27a900000000000000000000000000000000000000000000000000000000815260040162000483919062000a0b565b60405180910390fd5b8051816200049a9062000a61565b60001c1760001b915050919050565b6000819050919050565b600080fd5b600073ffffffffffffffffffffffffffffffffffffffff82169050919050565b6000620004e582620004b8565b9050919050565b620004f781620004d8565b81146200050357600080fd5b50565b6000815190506200051781620004ec565b92915050565b60008060408385031215620005375762000536620004b3565b5b6000620005478582860162000506565b92505060206200055a8582860162000506565b9150509250929050565b600081519050919050565b7f4e487b7100000000000000000000000000000000000000000000000000000000600052604160045260246000fd5b7f4e487b7100000000000000000000000000000000000000000000000000000000600052602260045260246000fd5b60006002820490506001821680620005e657607f821691505b602082108103620005fc57620005fb6200059e565b5b50919050565b60008190508160005260206000209050919050565b60006020601f8301049050919050565b600082821b905092915050565b600060088302620006667fffffffffffffffffffffffffffffffffffffffffffffffffffffffffffffffff8262000627565b62000672868362000627565b95508019841693508086168417925050509392505050565b6000819050919050565b6000819050919050565b6000620006bf620006b9620006b3846200068a565b62000694565b6200068a565b9050919050565b6000819050919050565b620006db836200069e565b620006f3620006ea82620006c6565b84845462000634565b825550505050565b600090565b6200070a620006fb565b62000717818484620006d0565b505050565b5b818110156200073f576200073360008262000700565b6001810190506200071d565b5050565b601f8211156200078e57620007588162000602565b620007638462000617565b8101602085101562000773578190505b6200078b620007828562000617565b8301826200071c565b50505b505050565b600082821c905092915050565b6000620007b36000198460080262000793565b1980831691505092915050565b6000620007ce8383620007a0565b9150826002028217905092915050565b620007e98262000564565b67ffffffffffffffff8111156200080557620008046200056f565b5b620008118254620005cd565b6200081e82828562000743565b600060209050601f83116001811462000856576000841562000841578287015190505b6200084d8582620007c0565b865550620008bd565b601f198416620008668662000602565b60005b82811015620008905784890151825560018201915060208501945060208101905062000869565b86831015620008b05784890151620008ac601f891682620007a0565b8355505b6001600288020188555050505b505050505050565b620008d081620004d8565b82525050565b6000602082019050620008ed6000830184620008c5565b92915050565b6000819050919050565b6200090881620008f3565b82525050565b62000919816200068a565b82525050565b600060a082019050620009366000830188620008fd565b620009456020830187620008fd565b620009546040830186620008fd565b6200096360608301856200090e565b620009726080830184620008c5565b9695505050505050565b600082825260208201905092915050565b60005b83811015620009ad57808201518184015260208101905062000990565b60008484015250505050565b6000601f19601f8301169050919050565b6000620009d78262000564565b620009e381856200097c565b9350620009f58185602086016200098d565b62000a0081620009b9565b840191505092915050565b6000602082019050818103600083015262000a278184620009ca565b905092915050565b600081519050919050565b6000819050602082019050919050565b600062000a588251620008f3565b80915050919050565b600062000a6e8262000a2f565b8262000a7a8462000a3a565b905062000a878162000a4a565b9250602082101562000aca5762000ac57fffffffffffffffffffffffffffffffffffffffffffffffffffffffffffffffff8360200360080262000627565b831692505b5050919050565b60805160a05160c05160e05161010051610120516101405161258162000b2c600039600061118401526000611149015260006116e9015260006116c801526000610df301526000610e4901526000610e7201526125816000f3fe608060405234801561001057600080fd5b50600436106101425760003560e01c806379cc6790116100b8578063996b2bf71161007c578063996b2bf71461035b578063a9059cbb14610377578063c10eb14d146103a7578063d505accf146103b1578063dd62ed3e146103cd578063f2fde38b146103fd57610142565b806379cc6790146102af5780637ecebe00146102cb57806384b0196e146102fb5780638da5cb5b1461031f57806395d89b411461033d57610142565b80633644e5151161010a5780633644e5151461020157806342966c681461021f578063578c7a0b1461023b5780636e5b38e61461025957806370a0823114610275578063715018a6146102a557610142565b806306fdde0314610147578063095ea7b31461016557806318160ddd1461019557806323b872dd146101b3578063313ce567146101e3575b600080fd5b61014f610419565b60405161015c9190611bd6565b60405180910390f35b61017f600480360381019061017a9190611c91565b6104ab565b60405161018c9190611cec565b60405180910390f35b61019d6104ce565b6040516101aa9190611d16565b60405180910390f35b6101cd60048036038101906101c89190611d31565b6104d8565b6040516101da9190611cec565b60405180910390f35b6101eb610507565b6040516101f89190611da0565b60405180910390f35b610209610510565b6040516102169190611dd4565b60405180910390f35b61023960048036038101906102349190611def565b61051f565b005b610243610533565b6040516102509190611e2b565b60405180910390f35b610273600480360381019061026e9190611c91565b610559565b005b61028f600480360381019061028a9190611e46565b6105d3565b60405161029c9190611d16565b60405180910390f35b6102ad61061b565b005b6102c960048036038101906102c49190611c91565b61062f565b005b6102e560048036038101906102e09190611e46565b61064f565b6040516102f29190611d16565b60405180910390f35b610303610661565b6040516103169796959493929190611f6c565b60405180910390f35b61032761070b565b6040516103349190611e2b565b60405180910390f35b610345610735565b6040516103529190611bd6565b60405180910390f35b61037560048036038101906103709190612048565b6107c7565b005b610391600480360381019061038c9190611c91565b6108d5565b60405161039e9190611cec565b60405180910390f35b6103af6108f8565b005b6103cb60048036038101906103c691906120d5565b6109f8565b005b6103e760048036038101906103e29190612177565b610b40565b6040516103f49190611d16565b60405180910390f35b61041760048036038101906104129190611e46565b610bc7565b005b606060038054610428906121e6565b80601f0160208091040260200160405190810160405280929190818152602001828054610454906121e6565b80156104a15780601f10610476576101008083540402835291602001916104a1565b820191906000526020600020905b81548152906001019060200180831161048457829003601f168201915b5050505050905090565b6000806104b6610c4d565b90506104c3818585610c55565b600191505092915050565b6000600254905090565b6000806104e3610c4d565b90506104f0858285610c67565b6104fb858585610cfb565b60019150509392505050565b60006012905090565b600061051a610def565b905090565b61053061052a610c4d565b82610ea6565b50565b600a60009054906101000a900473ffffffffffffffffffffffffffffffffffffffff1681565b610561610f28565b670de0b6b3a7640000816105759190612246565b90506105818282610faf565b8173ffffffffffffffffffffffffffffffffffffffff167f94f5d0eb51628706001b975fb0901fb19b838dd2711288b56f8bf486d43f41a7826040516105c79190611d16565b60405180910390a25050565b60008060008373ffffffffffffffffffffffffffffffffffffffff1673ffffffffffffffffffffffffffffffffffffffff168152602001908152602001600020549050919050565b610623610f28565b61062d6000611031565b565b6106418261063b610c4d565b83610c67565b61064b8282610ea6565b5050565b600061065a826110f7565b9050919050565b600060608060008060006060610675611140565b61067d61117b565b46306000801b600067ffffffffffffffff81111561069e5761069d612288565b5b6040519080825280602002602001820160405280156106cc5781602001602082028036833780820191505090505b507f0f00000000000000000000000000000000000000000000000000000000000000959493929190965096509650965096509650965090919293949596565b6000600860009054906101000a900473ffffffffffffffffffffffffffffffffffffffff16905090565b606060048054610744906121e6565b80601f0160208091040260200160405190810160405280929190818152602001828054610770906121e6565b80156107bd5780601f10610792576101008083540402835291602001916107bd565b820191906000526020600020905b8154815290600101906020018083116107a057829003601f168201915b5050505050905090565b600a60009054906101000a900473ffffffffffffffffffffffffffffffffffffffff1673ffffffffffffffffffffffffffffffffffffffff163373ffffffffffffffffffffffffffffffffffffffff1614610857576040517f08c379a000000000000000000000000000000000000000000000000000000000815260040161084e90612303565b60405180910390fd5b600061086161070b565b9050610872818888888888886109f8565b61087d8188886104d8565b508673ffffffffffffffffffffffffffffffffffffffff167f44140317700ef8b5a92db63afb1f8e832bf877ae35b1aeed827fff1050b3c102876040516108c49190611d16565b60405180910390a250505050505050565b6000806108e0610c4d565b90506108ed818585610cfb565b600191505092915050565b610900610f28565b6109086111b6565b6000471161094b576040517f08c379a00000000000000000000000000000000000000000000000000000000081526004016109429061236f565b60405180910390fd5b61095361070b565b73ffffffffffffffffffffffffffffffffffffffff166108fc479081150290604051600060405180830381858888f19350505050158015610998573d6000803e3d6000fd5b506109a161070b565b73ffffffffffffffffffffffffffffffffffffffff167f5dea3aaa823f909badcbd35127cf03c9617425b13f68b64c6654e767bc665a12476040516109e69190611d16565b60405180910390a26109f66111fc565b565b83421115610a3d57836040517f62791302000000000000000000000000000000000000000000000000000000008152600401610a349190611d16565b60405180910390fd5b60007f6e71edae12b1b97f4d1f60370fef10105fa2faae0126114a169c64845d6126c9888888610a6c8c611206565b89604051602001610a829695949392919061238f565b6040516020818303038152906040528051906020012090506000610aa58261125d565b90506000610ab582878787611277565b90508973ffffffffffffffffffffffffffffffffffffffff168173ffffffffffffffffffffffffffffffffffffffff1614610b2957808a6040517f4b800e46000000000000000000000000000000000000000000000000000000008152600401610b209291906123f0565b60405180910390fd5b610b348a8a8a610c55565b50505050505050505050565b6000600160008473ffffffffffffffffffffffffffffffffffffffff1673ffffffffffffffffffffffffffffffffffffffff16815260200190815260200160002060008373ffffffffffffffffffffffffffffffffffffffff1673ffffffffffffffffffffffffffffffffffffffff16815260200190815260200160002054905092915050565b610bcf610f28565b600073ffffffffffffffffffffffffffffffffffffffff168173ffffffffffffffffffffffffffffffffffffffff1603610c415760006040517f1e4fbdf7000000000000000000000000000000000000000000000000000000008152600401610c389190611e2b565b60405180910390fd5b610c4a81611031565b50565b600033905090565b610c6283838360016112a7565b505050565b6000610c738484610b40565b90507fffffffffffffffffffffffffffffffffffffffffffffffffffffffffffffffff8114610cf55781811015610ce5578281836040517ffb8f41b2000000000000000000000000000000000000000000000000000000008152600401610cdc93929190612419565b60405180910390fd5b610cf4848484840360006112a7565b5b50505050565b600073ffffffffffffffffffffffffffffffffffffffff168373ffffffffffffffffffffffffffffffffffffffff1603610d6d5760006040517f96c6fd1e000000000000000000000000000000000000000000000000000000008152600401610d649190611e2b565b60405180910390fd5b600073ffffffffffffffffffffffffffffffffffffffff168273ffffffffffffffffffffffffffffffffffffffff1603610ddf5760006040517fec442f05000000000000000000000000000000000000000000000000000000008152600401610dd69190611e2b565b60405180910390fd5b610dea83838361147e565b505050565b60007f000000000000000000000000000000000000000000000000000000000000000073ffffffffffffffffffffffffffffffffffffffff163073ffffffffffffffffffffffffffffffffffffffff16148015610e6b57507f000000000000000000000000000000000000000000000000000000000000000046145b15610e98577f00000000000000000000000000000000000000000000000000000000000000009050610ea3565b610ea06116a3565b90505b90565b600073ffffffffffffffffffffffffffffffffffffffff168273ffffffffffffffffffffffffffffffffffffffff1603610f185760006040517f96c6fd1e000000000000000000000000000000000000000000000000000000008152600401610f0f9190611e2b565b60405180910390fd5b610f248260008361147e565b5050565b610f30610c4d565b73ffffffffffffffffffffffffffffffffffffffff16610f4e61070b565b73ffffffffffffffffffffffffffffffffffffffff1614610fad57610f71610c4d565b6040517f118cdaa7000000000000000000000000000000000000000000000000000000008152600401610fa49190611e2b565b60405180910390fd5b565b600073ffffffffffffffffffffffffffffffffffffffff168273ffffffffffffffffffffffffffffffffffffffff16036110215760006040517fec442f050000000000000000000000000000000000000000000000000000000081526004016110189190611e2b565b60405180910390fd5b61102d6000838361147e565b5050565b6000600860009054906101000a900473ffffffffffffffffffffffffffffffffffffffff16905081600860006101000a81548173ffffffffffffffffffffffffffffffffffffffff021916908373ffffffffffffffffffffffffffffffffffffffff1602179055508173ffffffffffffffffffffffffffffffffffffffff168173ffffffffffffffffffffffffffffffffffffffff167f8be0079c531659141344cd1fd0a4f28419497f9722a3daafe3b4186f6b6457e060405160405180910390a35050565b6000600760008373ffffffffffffffffffffffffffffffffffffffff1673ffffffffffffffffffffffffffffffffffffffff168152602001908152602001600020549050919050565b606061117660057f000000000000000000000000000000000000000000000000000000000000000061173990919063ffffffff16565b905090565b60606111b160067f000000000000000000000000000000000000000000000000000000000000000061173990919063ffffffff16565b905090565b6002600954036111f2576040517f3ee5aeb500000000000000000000000000000000000000000000000000000000815260040160405180910390fd5b6002600981905550565b6001600981905550565b6000600760008373ffffffffffffffffffffffffffffffffffffffff1673ffffffffffffffffffffffffffffffffffffffff1681526020019081526020016000206000815480929190600101919050559050919050565b600061127061126a610def565b836117e9565b9050919050565b6000806000806112898888888861182a565b925092509250611299828261191e565b829350505050949350505050565b600073ffffffffffffffffffffffffffffffffffffffff168473ffffffffffffffffffffffffffffffffffffffff16036113195760006040517fe602df050000000000000000000000000000000000000000000000000000000081526004016113109190611e2b565b60405180910390fd5b600073ffffffffffffffffffffffffffffffffffffffff168373ffffffffffffffffffffffffffffffffffffffff160361138b5760006040517f94280d620000000000000000000000000000000000000000000000000000000081526004016113829190611e2b565b60405180910390fd5b81600160008673ffffffffffffffffffffffffffffffffffffffff1673ffffffffffffffffffffffffffffffffffffffff16815260200190815260200160002060008573ffffffffffffffffffffffffffffffffffffffff1673ffffffffffffffffffffffffffffffffffffffff168152602001908152602001600020819055508015611478578273ffffffffffffffffffffffffffffffffffffffff168473ffffffffffffffffffffffffffffffffffffffff167f8c5be1e5ebec7d5bd14f71427d1e84f3dd0314c0f7b2291e5b200ac8c7c3b9258460405161146f9190611d16565b60405180910390a35b50505050565b600073ffffffffffffffffffffffffffffffffffffffff168373ffffffffffffffffffffffffffffffffffffffff16036114d05780600260008282546114c49190612450565b925050819055506115a3565b60008060008573ffffffffffffffffffffffffffffffffffffffff1673ffffffffffffffffffffffffffffffffffffffff1681526020019081526020016000205490508181101561155c578381836040517fe450d38c00000000000000000000000000000000000000000000000000000000815260040161155393929190612419565b60405180910390fd5b8181036000808673ffffffffffffffffffffffffffffffffffffffff1673ffffffffffffffffffffffffffffffffffffffff16815260200190815260200160002081905550505b600073ffffffffffffffffffffffffffffffffffffffff168273ffffffffffffffffffffffffffffffffffffffff16036115ec5780600260008282540392505081905550611639565b806000808473ffffffffffffffffffffffffffffffffffffffff1673ffffffffffffffffffffffffffffffffffffffff168152602001908152602001600020600082825401925050819055505b8173ffffffffffffffffffffffffffffffffffffffff168373ffffffffffffffffffffffffffffffffffffffff167fddf252ad1be2c89b69c2b068fc378daa952ba7f163c4a11628f55a4df523b3ef836040516116969190611d16565b60405180910390a3505050565b60007f8b73c3c69bb8fe3d512ecc4cf759cc79239f7b179b0ffacaa9a75d522b39400f7f00000000000000000000000000000000000000000000000000000000000000007f0000000000000000000000000000000000000000000000000000000000000000463060405160200161171e959493929190612484565b60405160208183030381529060405280519060200120905090565b606060ff60001b83146117565761174f83611a82565b90506117e3565b818054611762906121e6565b80601f016020809104026020016040519081016040528092919081815260200182805461178e906121e6565b80156117db5780601f106117b0576101008083540402835291602001916117db565b820191906000526020600020905b8154815290600101906020018083116117be57829003601f168201915b505050505090505b92915050565b60006040517f190100000000000000000000000000000000000000000000000000000000000081528360028201528260228201526042812091505092915050565b60008060007f7fffffffffffffffffffffffffffffff5d576e7357a4501ddfe92f46681b20a08460001c111561186a576000600385925092509250611914565b60006001888888886040516000815260200160405260405161188f94939291906124d7565b6020604051602081039080840390855afa1580156118b1573d6000803e3d6000fd5b505050602060405103519050600073ffffffffffffffffffffffffffffffffffffffff168173ffffffffffffffffffffffffffffffffffffffff160361190557600060016000801b93509350935050611914565b8060008060001b935093509350505b9450945094915050565b600060038111156119325761193161251c565b5b8260038111156119455761194461251c565b5b0315611a7e576001600381111561195f5761195e61251c565b5b8260038111156119725761197161251c565b5b036119a9576040517ff645eedf00000000000000000000000000000000000000000000000000000000815260040160405180910390fd5b600260038111156119bd576119bc61251c565b5b8260038111156119d0576119cf61251c565b5b03611a15578060001c6040517ffce698f7000000000000000000000000000000000000000000000000000000008152600401611a0c9190611d16565b60405180910390fd5b600380811115611a2857611a2761251c565b5b826003811115611a3b57611a3a61251c565b5b03611a7d57806040517fd78bce0c000000000000000000000000000000000000000000000000000000008152600401611a749190611dd4565b60405180910390fd5b5b5050565b60606000611a8f83611af6565b90506000602067ffffffffffffffff811115611aae57611aad612288565b5b6040519080825280601f01601f191660200182016040528015611ae05781602001600182028036833780820191505090505b5090508181528360208201528092505050919050565b60008060ff8360001c169050601f811115611b3d576040517fb3512b0c00000000000000000000000000000000000000000000000000000000815260040160405180910390fd5b80915050919050565b600081519050919050565b600082825260208201905092915050565b60005b83811015611b80578082015181840152602081019050611b65565b60008484015250505050565b6000601f19601f8301169050919050565b6000611ba882611b46565b611bb28185611b51565b9350611bc2818560208601611b62565b611bcb81611b8c565b840191505092915050565b60006020820190508181036000830152611bf08184611b9d565b905092915050565b600080fd5b600073ffffffffffffffffffffffffffffffffffffffff82169050919050565b6000611c2882611bfd565b9050919050565b611c3881611c1d565b8114611c4357600080fd5b50565b600081359050611c5581611c2f565b92915050565b6000819050919050565b611c6e81611c5b565b8114611c7957600080fd5b50565b600081359050611c8b81611c65565b92915050565b60008060408385031215611ca857611ca7611bf8565b5b6000611cb685828601611c46565b9250506020611cc785828601611c7c565b9150509250929050565b60008115159050919050565b611ce681611cd1565b82525050565b6000602082019050611d016000830184611cdd565b92915050565b611d1081611c5b565b82525050565b6000602082019050611d2b6000830184611d07565b92915050565b600080600060608486031215611d4a57611d49611bf8565b5b6000611d5886828701611c46565b9350506020611d6986828701611c46565b9250506040611d7a86828701611c7c565b9150509250925092565b600060ff82169050919050565b611d9a81611d84565b82525050565b6000602082019050611db56000830184611d91565b92915050565b6000819050919050565b611dce81611dbb565b82525050565b6000602082019050611de96000830184611dc5565b92915050565b600060208284031215611e0557611e04611bf8565b5b6000611e1384828501611c7c565b91505092915050565b611e2581611c1d565b82525050565b6000602082019050611e406000830184611e1c565b92915050565b600060208284031215611e5c57611e5b611bf8565b5b6000611e6a84828501611c46565b91505092915050565b60007fff0000000000000000000000000000000000000000000000000000000000000082169050919050565b611ea881611e73565b82525050565b600081519050919050565b600082825260208201905092915050565b6000819050602082019050919050565b611ee381611c5b565b82525050565b6000611ef58383611eda565b60208301905092915050565b6000602082019050919050565b6000611f1982611eae565b611f238185611eb9565b9350611f2e83611eca565b8060005b83811015611f5f578151611f468882611ee9565b9750611f5183611f01565b925050600181019050611f32565b5085935050505092915050565b600060e082019050611f81600083018a611e9f565b8181036020830152611f938189611b9d565b90508181036040830152611fa78188611b9d565b9050611fb66060830187611d07565b611fc36080830186611e1c565b611fd060a0830185611dc5565b81810360c0830152611fe28184611f0e565b905098975050505050505050565b611ff981611d84565b811461200457600080fd5b50565b60008135905061201681611ff0565b92915050565b61202581611dbb565b811461203057600080fd5b50565b6000813590506120428161201c565b92915050565b60008060008060008060c0878903121561206557612064611bf8565b5b600061207389828a01611c46565b965050602061208489828a01611c7c565b955050604061209589828a01611c7c565b94505060606120a689828a01612007565b93505060806120b789828a01612033565b92505060a06120c889828a01612033565b9150509295509295509295565b600080600080600080600060e0888a0312156120f4576120f3611bf8565b5b60006121028a828b01611c46565b97505060206121138a828b01611c46565b96505060406121248a828b01611c7c565b95505060606121358a828b01611c7c565b94505060806121468a828b01612007565b93505060a06121578a828b01612033565b92505060c06121688a828b01612033565b91505092959891949750929550565b6000806040838503121561218e5761218d611bf8565b5b600061219c85828601611c46565b92505060206121ad85828601611c46565b9150509250929050565b7f4e487b7100000000000000000000000000000000000000000000000000000000600052602260045260246000fd5b600060028204905060018216806121fe57607f821691505b602082108103612211576122106121b7565b5b50919050565b7f4e487b7100000000000000000000000000000000000000000000000000000000600052601160045260246000fd5b600061225182611c5b565b915061225c83611c5b565b925082820261226a81611c5b565b9150828204841483151761228157612280612217565b5b5092915050565b7f4e487b7100000000000000000000000000000000000000000000000000000000600052604160045260246000fd5b7f6e6f7420617574686f72697a6564000000000000000000000000000000000000600082015250565b60006122ed600e83611b51565b91506122f8826122b7565b602082019050919050565b6000602082019050818103600083015261231c816122e0565b9050919050565b7f455243323020636f6e747261637420686173206e6f2066756e64730000000000600082015250565b6000612359601b83611b51565b915061236482612323565b602082019050919050565b600060208201905081810360008301526123888161234c565b9050919050565b600060c0820190506123a46000830189611dc5565b6123b16020830188611e1c565b6123be6040830187611e1c565b6123cb6060830186611d07565b6123d86080830185611d07565b6123e560a0830184611d07565b979650505050505050565b60006040820190506124056000830185611e1c565b6124126020830184611e1c565b9392505050565b600060608201905061242e6000830186611e1c565b61243b6020830185611d07565b6124486040830184611d07565b949350505050565b600061245b82611c5b565b915061246683611c5b565b925082820190508082111561247e5761247d612217565b5b92915050565b600060a0820190506124996000830188611dc5565b6124a66020830187611dc5565b6124b36040830186611dc5565b6124c06060830185611d07565b6124cd6080830184611e1c565b9695505050505050565b60006080820190506124ec6000830187611dc5565b6124f96020830186611d91565b6125066040830185611dc5565b6125136060830184611dc5565b95945050505050565b7f4e487b7100000000000000000000000000000000000000000000000000000000600052602160045260246000fdfea264697066735822122058153be0277a929d7b177cac69730011b61dcebfa40d476336dcc21394d13c0d64736f6c63430008180033",
  "linkReferences": {},
  "deployedLinkReferences": {}
}