{
  "_format": "hh-sol-artifact-1",
  "contractName": "SassyJuggler",
  "sourceName": "contracts/SassyJuggler.sol",
  "abi": [
    {
      "inputs": [
        {
          "internalType": "address",
          "name": "_owner",
          "type": "address"
        }
      ],
      "stateMutability": "nonpayable",
      "type": "constructor"
    },
    {
      "inputs": [],
      "name": "AccessControlBadConfirmation",
      "type": "error"
    },
    {
      "inputs": [
        {
          "internalType": "address",
          "name": "account",
          "type": "address"
        },
        {
          "internalType": "bytes32",
          "name": "neededRole",
          "type": "bytes32"
        }
      ],
      "name": "AccessControlUnauthorizedAccount",
      "type": "error"
    },
    {
      "anonymous": false,
      "inputs": [
        {
          "indexed": true,
          "internalType": "bytes32",
          "name": "role",
          "type": "bytes32"
        },
        {
          "indexed": true,
          "internalType": "bytes32",
          "name": "previousAdminRole",
          "type": "bytes32"
        },
        {
          "indexed": true,
          "internalType": "bytes32",
          "name": "newAdminRole",
          "type": "bytes32"
        }
      ],
      "name": "RoleAdminChanged",
      "type": "event"
    },
    {
      "anonymous": false,
      "inputs": [
        {
          "indexed": true,
          "internalType": "bytes32",
          "name": "role",
          "type": "bytes32"
        },
        {
          "indexed": true,
          "internalType": "address",
          "name": "account",
          "type": "address"
        },
        {
          "indexed": true,
          "internalType": "address",
          "name": "sender",
          "type": "address"
        }
      ],
      "name": "RoleGranted",
      "type": "event"
    },
    {
      "anonymous": false,
      "inputs": [
        {
          "indexed": true,
          "internalType": "bytes32",
          "name": "role",
          "type": "bytes32"
        },
        {
          "indexed": true,
          "internalType": "address",
          "name": "account",
          "type": "address"
        }
      ],
      "name": "RoleGranted",
      "type": "event"
    },
    {
      "anonymous": false,
      "inputs": [
        {
          "indexed": true,
          "internalType": "bytes32",
          "name": "role",
          "type": "bytes32"
        },
        {
          "indexed": true,
          "internalType": "address",
          "name": "account",
          "type": "address"
        },
        {
          "indexed": true,
          "internalType": "address",
          "name": "sender",
          "type": "address"
        }
      ],
      "name": "RoleRevoked",
      "type": "event"
    },
    {
      "anonymous": false,
      "inputs": [
        {
          "indexed": true,
          "internalType": "bytes32",
          "name": "role",
          "type": "bytes32"
        },
        {
          "indexed": true,
          "internalType": "address",
          "name": "account",
          "type": "address"
        }
      ],
      "name": "RoleRevoked",
      "type": "event"
    },
    {
      "anonymous": false,
      "inputs": [
        {
          "indexed": false,
          "internalType": "uint256",
          "name": "caseID",
          "type": "uint256"
        },
        {
          "indexed": true,
          "internalType": "address",
          "name": "user",
          "type": "address"
        }
      ],
      "name": "disputeCaseInteracted",
      "type": "event"
    },
    {
      "anonymous": false,
      "inputs": [
        {
          "indexed": false,
          "internalType": "uint256[]",
          "name": "caseID",
          "type": "uint256[]"
        },
        {
          "indexed": false,
          "internalType": "string[]",
          "name": "ipfsHash",
          "type": "string[]"
        },
        {
          "indexed": true,
          "internalType": "address",
          "name": "submmiter",
          "type": "address"
        }
      ],
      "name": "disputeCasesAdded",
      "type": "event"
    },
    {
      "anonymous": false,
      "inputs": [
        {
          "indexed": true,
          "internalType": "address",
          "name": "user",
          "type": "address"
        },
        {
          "indexed": false,
          "internalType": "uint256",
          "name": "rewardAmount",
          "type": "uint256"
        }
      ],
      "name": "userRewarded",
      "type": "event"
    },
    {
      "inputs": [],
      "name": "DEFAULT_ADMIN_ROLE",
      "outputs": [
        {
          "internalType": "bytes32",
          "name": "",
          "type": "bytes32"
        }
      ],
      "stateMutability": "view",
      "type": "function"
    },
    {
      "inputs": [],
      "name": "SassyBridge",
      "outputs": [
        {
          "internalType": "contract ISassyBridge",
          "name": "",
          "type": "address"
        }
      ],
      "stateMutability": "view",
      "type": "function"
    },
    {
      "inputs": [],
      "name": "SassyToken",
      "outputs": [
        {
          "internalType": "contract ISassyToken",
          "name": "",
          "type": "address"
        }
      ],
      "stateMutability": "view",
      "type": "function"
    },
    {
      "inputs": [
        {
          "internalType": "uint256",
          "name": "",
          "type": "uint256"
        }
      ],
      "name": "_disputeCases",
      "outputs": [
        {
          "internalType": "string",
          "name": "ipfsHash",
          "type": "string"
        },
        {
          "internalType": "address",
          "name": "submitter",
          "type": "address"
        },
        {
          "internalType": "uint256",
          "name": "timestamp",
          "type": "uint256"
        }
      ],
      "stateMutability": "view",
      "type": "function"
    },
    {
      "inputs": [],
      "name": "addDisputeCases",
      "outputs": [],
      "stateMutability": "nonpayable",
      "type": "function"
    },
    {
      "inputs": [
        {
          "internalType": "bytes32",
          "name": "role",
          "type": "bytes32"
        }
      ],
      "name": "getRoleAdmin",
      "outputs": [
        {
          "internalType": "bytes32",
          "name": "",
          "type": "bytes32"
        }
      ],
      "stateMutability": "view",
      "type": "function"
    },
    {
      "inputs": [
        {
          "internalType": "bytes32",
          "name": "role",
          "type": "bytes32"
        },
        {
          "internalType": "address",
          "name": "account",
          "type": "address"
        }
      ],
      "name": "grantRole",
      "outputs": [],
      "stateMutability": "nonpayable",
      "type": "function"
    },
    {
      "inputs": [
        {
          "internalType": "uint256",
          "name": "",
          "type": "uint256"
        },
        {
          "internalType": "address",
          "name": "",
          "type": "address"
        }
      ],
      "name": "hasJuggled",
      "outputs": [
        {
          "internalType": "bool",
          "name": "",
          "type": "bool"
        }
      ],
      "stateMutability": "view",
      "type": "function"
    },
    {
      "inputs": [
        {
          "internalType": "bytes32",
          "name": "role",
          "type": "bytes32"
        },
        {
          "internalType": "address",
          "name": "account",
          "type": "address"
        }
      ],
      "name": "hasRole",
      "outputs": [
        {
          "internalType": "bool",
          "name": "",
          "type": "bool"
        }
      ],
      "stateMutability": "view",
      "type": "function"
    },
    {
      "inputs": [
        {
          "internalType": "uint256",
          "name": "_caseID",
          "type": "uint256"
        },
        {
          "internalType": "uint256",
          "name": "deadline",
          "type": "uint256"
        },
        {
          "internalType": "uint8",
          "name": "v",
          "type": "uint8"
        },
        {
          "internalType": "bytes32",
          "name": "r",
          "type": "bytes32"
        },
        {
          "internalType": "bytes32",
          "name": "s",
          "type": "bytes32"
        }
      ],
      "name": "interactDisputeCase",
      "outputs": [],
      "stateMutability": "nonpayable",
      "type": "function"
    },
    {
      "inputs": [
        {
          "internalType": "bytes32",
          "name": "role",
          "type": "bytes32"
        },
        {
          "internalType": "address",
          "name": "callerConfirmation",
          "type": "address"
        }
      ],
      "name": "renounceRole",
      "outputs": [],
      "stateMutability": "nonpayable",
      "type": "function"
    },
    {
      "inputs": [
        {
          "internalType": "bytes32",
          "name": "role",
          "type": "bytes32"
        },
        {
          "internalType": "address",
          "name": "account",
          "type": "address"
        }
      ],
      "name": "revokeRole",
      "outputs": [],
      "stateMutability": "nonpayable",
      "type": "function"
    },
    {
      "inputs": [],
      "name": "rewardAmount",
      "outputs": [
        {
          "internalType": "uint256",
          "name": "",
          "type": "uint256"
        }
      ],
      "stateMutability": "view",
      "type": "function"
    },
    {
      "inputs": [
        {
          "internalType": "address",
          "name": "_SassyBridge",
          "type": "address"
        }
      ],
      "name": "setSassyBridge",
      "outputs": [],
      "stateMutability": "nonpayable",
      "type": "function"
    },
    {
      "inputs": [
        {
          "internalType": "address",
          "name": "_SassyToken",
          "type": "address"
        },
        {
          "internalType": "uint256",
          "name": "_rewardAmount",
          "type": "uint256"
        }
      ],
      "name": "setSassyToken",
      "outputs": [],
      "stateMutability": "nonpayable",
      "type": "function"
    },
    {
      "inputs": [
        {
          "internalType": "bytes4",
          "name": "interfaceId",
          "type": "bytes4"
        }
      ],
      "name": "supportsInterface",
      "outputs": [
        {
          "internalType": "bool",
          "name": "",
          "type": "bool"
        }
      ],
      "stateMutability": "view",
      "type": "function"
    },
    {
      "inputs": [
        {
          "internalType": "uint256",
          "name": "_rewardAmount",
          "type": "uint256"
        }
      ],
      "name": "updateRewardAmount",
      "outputs": [],
      "stateMutability": "nonpayable",
      "type": "function"
    }
  ],
  "bytecode": "0x60806040523480156200001157600080fd5b50604051620024e0380380620024e0833981810160405281019062000037919062000376565b80600160006101000a81548173ffffffffffffffffffffffffffffffffffffffff021916908373ffffffffffffffffffffffffffffffffffffffff160217905550620000b36000801b604051602001620000919062000403565b604051602081830303815290604052805190602001206200011560201b60201c565b6200010d604051602001620000c89062000403565b60405160208183030381529060405280519060200120600160009054906101000a900473ffffffffffffffffffffffffffffffffffffffff166200017860201b60201c565b50506200041a565b600062000128836200027b60201b60201c565b905081600080858152602001908152602001600020600101819055508181847fbd79b86ffe0ab8e8776151514217cd7cacd52c909f66475c3af44e129f0b00ff60405160405180910390a4505050565b60006200018c83836200029a60201b60201c565b6200027057600160008085815260200190815260200160002060000160008473ffffffffffffffffffffffffffffffffffffffff1673ffffffffffffffffffffffffffffffffffffffff16815260200190815260200160002060006101000a81548160ff0219169083151502179055506200020c6200030460201b60201c565b73ffffffffffffffffffffffffffffffffffffffff168273ffffffffffffffffffffffffffffffffffffffff16847f2f8788117e7eff1d82e926ec794901d17c78024a50270940304540a733656f0d60405160405180910390a46001905062000275565b600090505b92915050565b6000806000838152602001908152602001600020600101549050919050565b600080600084815260200190815260200160002060000160008373ffffffffffffffffffffffffffffffffffffffff1673ffffffffffffffffffffffffffffffffffffffff16815260200190815260200160002060009054906101000a900460ff16905092915050565b600033905090565b600080fd5b600073ffffffffffffffffffffffffffffffffffffffff82169050919050565b60006200033e8262000311565b9050919050565b620003508162000331565b81146200035c57600080fd5b50565b600081519050620003708162000345565b92915050565b6000602082840312156200038f576200038e6200030c565b5b60006200039f848285016200035f565b91505092915050565b600081905092915050565b7f41444d494e000000000000000000000000000000000000000000000000000000600082015250565b6000620003eb600583620003a8565b9150620003f882620003b3565b600582019050919050565b60006200041082620003dc565b9150819050919050565b6120b6806200042a6000396000f3fe608060405234801561001057600080fd5b506004361061010b5760003560e01c806371544362116100a2578063c268606311610071578063c2686063146102a4578063d547741f146102d4578063e35df15b146102f0578063f7b2a7be1461030e578063fc4f79e31461032c5761010b565b8063715443621461022e57806381ac31dc1461023857806391d1485414610256578063a217fddf146102865761010b565b80632f2ff15d116100de5780632f2ff15d146101be57806336568abe146101da57806337d80461146101f65780636f3102b9146102125761010b565b806301ffc9a71461011057806303bd41ad1461014057806315c2ba1414610172578063248a9ca31461018e575b600080fd5b61012a60048036038101906101259190611104565b610348565b604051610137919061114c565b60405180910390f35b61015a6004803603810190610155919061119d565b6103c2565b604051610169939291906112aa565b60405180910390f35b61018c6004803603810190610187919061119d565b6104a4565b005b6101a860048036038101906101a3919061131e565b6104f0565b6040516101b5919061135a565b60405180910390f35b6101d860048036038101906101d391906113a1565b61050f565b005b6101f460048036038101906101ef91906113a1565b610531565b005b610210600480360381019061020b91906113e1565b6105ac565b005b61022c6004803603810190610227919061145a565b61069b565b005b610236610927565b005b610240610c57565b60405161024d9190611534565b60405180910390f35b610270600480360381019061026b91906113a1565b610c7d565b60405161027d919061114c565b60405180910390f35b61028e610ce7565b60405161029b919061135a565b60405180910390f35b6102be60048036038101906102b9919061154f565b610cee565b6040516102cb919061114c565b60405180910390f35b6102ee60048036038101906102e991906113a1565b610d1d565b005b6102f8610d3f565b60405161030591906115b0565b60405180910390f35b610316610d65565b60405161032391906115cb565b60405180910390f35b610346600480360381019061034191906115e6565b610d6b565b005b60007f7965db0b000000000000000000000000000000000000000000000000000000007bffffffffffffffffffffffffffffffffffffffffffffffffffffffff1916827bffffffffffffffffffffffffffffffffffffffffffffffffffffffff191614806103bb57506103ba82610dde565b5b9050919050565b600281815481106103d257600080fd5b90600052602060002090600302016000915090508060000180546103f590611642565b80601f016020809104026020016040519081016040528092919081815260200182805461042190611642565b801561046e5780601f106104435761010080835404028352916020019161046e565b820191906000526020600020905b81548152906001019060200180831161045157829003601f168201915b5050505050908060010160009054906101000a900473ffffffffffffffffffffffffffffffffffffffff16908060020154905083565b6040516020016104b3906116ca565b604051602081830303815290604052805190602001206104d281610e48565b670de0b6b3a7640000826104e6919061170e565b6005819055505050565b6000806000838152602001908152602001600020600101549050919050565b610518826104f0565b61052181610e48565b61052b8383610e5c565b50505050565b610539610f4d565b73ffffffffffffffffffffffffffffffffffffffff168173ffffffffffffffffffffffffffffffffffffffff161461059d576040517f6697b23200000000000000000000000000000000000000000000000000000000815260040160405180910390fd5b6105a78282610f55565b505050565b600160009054906101000a900473ffffffffffffffffffffffffffffffffffffffff1673ffffffffffffffffffffffffffffffffffffffff163373ffffffffffffffffffffffffffffffffffffffff161461063c576040517f08c379a00000000000000000000000000000000000000000000000000000000081526004016106339061179c565b60405180910390fd5b81600360006101000a81548173ffffffffffffffffffffffffffffffffffffffff021916908373ffffffffffffffffffffffffffffffffffffffff160217905550670de0b6b3a764000081610691919061170e565b6005819055505050565b60028054905085106106e2576040517f08c379a00000000000000000000000000000000000000000000000000000000081526004016106d990611808565b60405180910390fd5b6006600086815260200190815260200160002060003373ffffffffffffffffffffffffffffffffffffffff1673ffffffffffffffffffffffffffffffffffffffff16815260200190815260200160002060009054906101000a900460ff1615610780576040517f08c379a00000000000000000000000000000000000000000000000000000000081526004016107779061189a565b60405180910390fd5b60016006600087815260200190815260200160002060003373ffffffffffffffffffffffffffffffffffffffff1673ffffffffffffffffffffffffffffffffffffffff16815260200190815260200160002060006101000a81548160ff0219169083151502179055503373ffffffffffffffffffffffffffffffffffffffff167f61843995d0c694b726a39fb129a6bd8c88bfc38b14e54af1737291d63873f7da8660405161082f91906115cb565b60405180910390a2600360009054906101000a900473ffffffffffffffffffffffffffffffffffffffff1673ffffffffffffffffffffffffffffffffffffffff1663996b2bf733600554878787876040518763ffffffff1660e01b815260040161089e969594939291906118c9565b600060405180830381600087803b1580156108b857600080fd5b505af11580156108cc573d6000803e3d6000fd5b505050503373ffffffffffffffffffffffffffffffffffffffff167f81081730ce4093f5e0561741eab728d174e360df757e24a12773c5b8fea551c860055460405161091891906115cb565b60405180910390a25050505050565b604051602001610936906116ca565b6040516020818303038152906040528051906020012061095581610e48565b6000600460009054906101000a900473ffffffffffffffffffffffffffffffffffffffff1673ffffffffffffffffffffffffffffffffffffffff16632b804ee46040518163ffffffff1660e01b8152600401600060405180830381865afa1580156109c4573d6000803e3d6000fd5b505050506040513d6000823e3d601f19601f820116820180604052508101906109ed9190611b36565b90506000815167ffffffffffffffff811115610a0c57610a0b61192f565b5b604051908082528060200260200182016040528015610a3a5781602001602082028036833780820191505090505b50905060005b600460009054906101000a900473ffffffffffffffffffffffffffffffffffffffff1673ffffffffffffffffffffffffffffffffffffffff16632b804ee46040518163ffffffff1660e01b8152600401600060405180830381865afa158015610aad573d6000803e3d6000fd5b505050506040513d6000823e3d601f19601f82011682018060405250810190610ad69190611b36565b51811015610c015760026040518060600160405280858481518110610afe57610afd611b7f565b5b602002602001015181526020013373ffffffffffffffffffffffffffffffffffffffff1681526020014281525090806001815401808255809150506001900390600052602060002090600302016000909190919091506000820151816000019081610b699190611d50565b5060208201518160010160006101000a81548173ffffffffffffffffffffffffffffffffffffffff021916908373ffffffffffffffffffffffffffffffffffffffff16021790555060408201518160020155505060006001600280549050610bd19190611e22565b905080838381518110610be757610be6611b7f565b5b602002602001018181525050508080600101915050610a40565b503373ffffffffffffffffffffffffffffffffffffffff167f0665dc299b457c7434f5d2bd24da09b5bc091df6d35aa97942b386a53fd396598284604051610c4a929190612020565b60405180910390a2505050565b600360009054906101000a900473ffffffffffffffffffffffffffffffffffffffff1681565b600080600084815260200190815260200160002060000160008373ffffffffffffffffffffffffffffffffffffffff1673ffffffffffffffffffffffffffffffffffffffff16815260200190815260200160002060009054906101000a900460ff16905092915050565b6000801b81565b60066020528160005260406000206020528060005260406000206000915091509054906101000a900460ff1681565b610d26826104f0565b610d2f81610e48565b610d398383610f55565b50505050565b600460009054906101000a900473ffffffffffffffffffffffffffffffffffffffff1681565b60055481565b604051602001610d7a906116ca565b60405160208183030381529060405280519060200120610d9981610e48565b81600460006101000a81548173ffffffffffffffffffffffffffffffffffffffff021916908373ffffffffffffffffffffffffffffffffffffffff1602179055505050565b60007f01ffc9a7000000000000000000000000000000000000000000000000000000007bffffffffffffffffffffffffffffffffffffffffffffffffffffffff1916827bffffffffffffffffffffffffffffffffffffffffffffffffffffffff1916149050919050565b610e5981610e54610f4d565b611047565b50565b6000610e688383610c7d565b610f4257600160008085815260200190815260200160002060000160008473ffffffffffffffffffffffffffffffffffffffff1673ffffffffffffffffffffffffffffffffffffffff16815260200190815260200160002060006101000a81548160ff021916908315150217905550610edf610f4d565b73ffffffffffffffffffffffffffffffffffffffff168273ffffffffffffffffffffffffffffffffffffffff16847f2f8788117e7eff1d82e926ec794901d17c78024a50270940304540a733656f0d60405160405180910390a460019050610f47565b600090505b92915050565b600033905090565b6000610f618383610c7d565b1561103c57600080600085815260200190815260200160002060000160008473ffffffffffffffffffffffffffffffffffffffff1673ffffffffffffffffffffffffffffffffffffffff16815260200190815260200160002060006101000a81548160ff021916908315150217905550610fd9610f4d565b73ffffffffffffffffffffffffffffffffffffffff168273ffffffffffffffffffffffffffffffffffffffff16847ff6391f5c32d9c69d2a47ea670b442974b53935d1edc7fd64eb21e047a839171b60405160405180910390a460019050611041565b600090505b92915050565b6110518282610c7d565b6110945780826040517fe2517d3f00000000000000000000000000000000000000000000000000000000815260040161108b929190612057565b60405180910390fd5b5050565b6000604051905090565b600080fd5b600080fd5b60007fffffffff0000000000000000000000000000000000000000000000000000000082169050919050565b6110e1816110ac565b81146110ec57600080fd5b50565b6000813590506110fe816110d8565b92915050565b60006020828403121561111a576111196110a2565b5b6000611128848285016110ef565b91505092915050565b60008115159050919050565b61114681611131565b82525050565b6000602082019050611161600083018461113d565b92915050565b6000819050919050565b61117a81611167565b811461118557600080fd5b50565b60008135905061119781611171565b92915050565b6000602082840312156111b3576111b26110a2565b5b60006111c184828501611188565b91505092915050565b600081519050919050565b600082825260208201905092915050565b60005b838110156112045780820151818401526020810190506111e9565b60008484015250505050565b6000601f19601f8301169050919050565b600061122c826111ca565b61123681856111d5565b93506112468185602086016111e6565b61124f81611210565b840191505092915050565b600073ffffffffffffffffffffffffffffffffffffffff82169050919050565b60006112858261125a565b9050919050565b6112958161127a565b82525050565b6112a481611167565b82525050565b600060608201905081810360008301526112c48186611221565b90506112d3602083018561128c565b6112e0604083018461129b565b949350505050565b6000819050919050565b6112fb816112e8565b811461130657600080fd5b50565b600081359050611318816112f2565b92915050565b600060208284031215611334576113336110a2565b5b600061134284828501611309565b91505092915050565b611354816112e8565b82525050565b600060208201905061136f600083018461134b565b92915050565b61137e8161127a565b811461138957600080fd5b50565b60008135905061139b81611375565b92915050565b600080604083850312156113b8576113b76110a2565b5b60006113c685828601611309565b92505060206113d78582860161138c565b9150509250929050565b600080604083850312156113f8576113f76110a2565b5b60006114068582860161138c565b925050602061141785828601611188565b9150509250929050565b600060ff82169050919050565b61143781611421565b811461144257600080fd5b50565b6000813590506114548161142e565b92915050565b600080600080600060a08688031215611476576114756110a2565b5b600061148488828901611188565b955050602061149588828901611188565b94505060406114a688828901611445565b93505060606114b788828901611309565b92505060806114c888828901611309565b9150509295509295909350565b6000819050919050565b60006114fa6114f56114f08461125a565b6114d5565b61125a565b9050919050565b600061150c826114df565b9050919050565b600061151e82611501565b9050919050565b61152e81611513565b82525050565b60006020820190506115496000830184611525565b92915050565b60008060408385031215611566576115656110a2565b5b600061157485828601611188565b92505060206115858582860161138c565b9150509250929050565b600061159a82611501565b9050919050565b6115aa8161158f565b82525050565b60006020820190506115c560008301846115a1565b92915050565b60006020820190506115e0600083018461129b565b92915050565b6000602082840312156115fc576115fb6110a2565b5b600061160a8482850161138c565b91505092915050565b7f4e487b7100000000000000000000000000000000000000000000000000000000600052602260045260246000fd5b6000600282049050600182168061165a57607f821691505b60208210810361166d5761166c611613565b5b50919050565b600081905092915050565b7f41444d494e000000000000000000000000000000000000000000000000000000600082015250565b60006116b4600583611673565b91506116bf8261167e565b600582019050919050565b60006116d5826116a7565b9150819050919050565b7f4e487b7100000000000000000000000000000000000000000000000000000000600052601160045260246000fd5b600061171982611167565b915061172483611167565b925082820261173281611167565b91508282048414831517611749576117486116df565b5b5092915050565b7f6e6f7420617574686f72697a6564000000000000000000000000000000000000600082015250565b6000611786600e836111d5565b915061179182611750565b602082019050919050565b600060208201905081810360008301526117b581611779565b9050919050565b7f4361736520646f6573206e6f7420657869737400000000000000000000000000600082015250565b60006117f26013836111d5565b91506117fd826117bc565b602082019050919050565b60006020820190508181036000830152611821816117e5565b9050919050565b7f557365722068617320616c72656164792073746172746564206120636f6e766560008201527f72736174696f6e20776974682074686973206361736500000000000000000000602082015250565b60006118846036836111d5565b915061188f82611828565b604082019050919050565b600060208201905081810360008301526118b381611877565b9050919050565b6118c381611421565b82525050565b600060c0820190506118de600083018961128c565b6118eb602083018861129b565b6118f8604083018761129b565b61190560608301866118ba565b611912608083018561134b565b61191f60a083018461134b565b979650505050505050565b600080fd5b7f4e487b7100000000000000000000000000000000000000000000000000000000600052604160045260246000fd5b61196782611210565b810181811067ffffffffffffffff821117156119865761198561192f565b5b80604052505050565b6000611999611098565b90506119a5828261195e565b919050565b600067ffffffffffffffff8211156119c5576119c461192f565b5b602082029050602081019050919050565b600080fd5b600080fd5b600067ffffffffffffffff8211156119fb576119fa61192f565b5b611a0482611210565b9050602081019050919050565b6000611a24611a1f846119e0565b61198f565b905082815260208101848484011115611a4057611a3f6119db565b5b611a4b8482856111e6565b509392505050565b600082601f830112611a6857611a6761192a565b5b8151611a78848260208601611a11565b91505092915050565b6000611a94611a8f846119aa565b61198f565b90508083825260208201905060208402830185811115611ab757611ab66119d6565b5b835b81811015611afe57805167ffffffffffffffff811115611adc57611adb61192a565b5b808601611ae98982611a53565b85526020850194505050602081019050611ab9565b5050509392505050565b600082601f830112611b1d57611b1c61192a565b5b8151611b2d848260208601611a81565b91505092915050565b600060208284031215611b4c57611b4b6110a2565b5b600082015167ffffffffffffffff811115611b6a57611b696110a7565b5b611b7684828501611b08565b91505092915050565b7f4e487b7100000000000000000000000000000000000000000000000000000000600052603260045260246000fd5b60008190508160005260206000209050919050565b60006020601f8301049050919050565b600082821b905092915050565b600060088302611c107fffffffffffffffffffffffffffffffffffffffffffffffffffffffffffffffff82611bd3565b611c1a8683611bd3565b95508019841693508086168417925050509392505050565b6000611c4d611c48611c4384611167565b6114d5565b611167565b9050919050565b6000819050919050565b611c6783611c32565b611c7b611c7382611c54565b848454611be0565b825550505050565b600090565b611c90611c83565b611c9b818484611c5e565b505050565b5b81811015611cbf57611cb4600082611c88565b600181019050611ca1565b5050565b601f821115611d0457611cd581611bae565b611cde84611bc3565b81016020851015611ced578190505b611d01611cf985611bc3565b830182611ca0565b50505b505050565b600082821c905092915050565b6000611d2760001984600802611d09565b1980831691505092915050565b6000611d408383611d16565b9150826002028217905092915050565b611d59826111ca565b67ffffffffffffffff811115611d7257611d7161192f565b5b611d7c8254611642565b611d87828285611cc3565b600060209050601f831160018114611dba5760008415611da8578287015190505b611db28582611d34565b865550611e1a565b601f198416611dc886611bae565b60005b82811015611df057848901518255600182019150602085019450602081019050611dcb565b86831015611e0d5784890151611e09601f891682611d16565b8355505b6001600288020188555050505b505050505050565b6000611e2d82611167565b9150611e3883611167565b9250828203905081811115611e5057611e4f6116df565b5b92915050565b600081519050919050565b600082825260208201905092915050565b6000819050602082019050919050565b611e8b81611167565b82525050565b6000611e9d8383611e82565b60208301905092915050565b6000602082019050919050565b6000611ec182611e56565b611ecb8185611e61565b9350611ed683611e72565b8060005b83811015611f07578151611eee8882611e91565b9750611ef983611ea9565b925050600181019050611eda565b5085935050505092915050565b600081519050919050565b600082825260208201905092915050565b6000819050602082019050919050565b600082825260208201905092915050565b6000611f5c826111ca565b611f668185611f40565b9350611f768185602086016111e6565b611f7f81611210565b840191505092915050565b6000611f968383611f51565b905092915050565b6000602082019050919050565b6000611fb682611f14565b611fc08185611f1f565b935083602082028501611fd285611f30565b8060005b8581101561200e5784840389528151611fef8582611f8a565b9450611ffa83611f9e565b925060208a01995050600181019050611fd6565b50829750879550505050505092915050565b6000604082019050818103600083015261203a8185611eb6565b9050818103602083015261204e8184611fab565b90509392505050565b600060408201905061206c600083018561128c565b612079602083018461134b565b939250505056fea26469706673582212209118aea670aade55a4177b98eabeac9c81a1cd4e35b6041d11464d08b7f7160d64736f6c63430008180033",
  "linkReferences": {},
  "deployedLinkReferences": {}
}