{
  "_format": "hh-sol-artifact-1",
  "contractName": "SassyBridge",
  "sourceName": "contracts/SassyBridge.sol",
  "abi": [
    {
      "inputs": [
        {
          "internalType": "address",
          "name": "_owner",
          "type": "address"
        }
      ],
      "stateMutability": "nonpayable",
      "type": "constructor"
    },
    {
      "inputs": [],
      "name": "AccessControlBadConfirmation",
      "type": "error"
    },
    {
      "inputs": [
        {
          "internalType": "address",
          "name": "account",
          "type": "address"
        },
        {
          "internalType": "bytes32",
          "name": "neededRole",
          "type": "bytes32"
        }
      ],
      "name": "AccessControlUnauthorizedAccount",
      "type": "error"
    },
    {
      "anonymous": false,
      "inputs": [
        {
          "indexed": true,
          "internalType": "bytes32",
          "name": "role",
          "type": "bytes32"
        },
        {
          "indexed": true,
          "internalType": "bytes32",
          "name": "previousAdminRole",
          "type": "bytes32"
        },
        {
          "indexed": true,
          "internalType": "bytes32",
          "name": "newAdminRole",
          "type": "bytes32"
        }
      ],
      "name": "RoleAdminChanged",
      "type": "event"
    },
    {
      "anonymous": false,
      "inputs": [
        {
          "indexed": true,
          "internalType": "bytes32",
          "name": "role",
          "type": "bytes32"
        },
        {
          "indexed": true,
          "internalType": "address",
          "name": "account",
          "type": "address"
        },
        {
          "indexed": true,
          "internalType": "address",
          "name": "sender",
          "type": "address"
        }
      ],
      "name": "RoleGranted",
      "type": "event"
    },
    {
      "anonymous": false,
      "inputs": [
        {
          "indexed": true,
          "internalType": "bytes32",
          "name": "role",
          "type": "bytes32"
        },
        {
          "indexed": true,
          "internalType": "address",
          "name": "account",
          "type": "address"
        }
      ],
      "name": "RoleGranted",
      "type": "event"
    },
    {
      "anonymous": false,
      "inputs": [
        {
          "indexed": true,
          "internalType": "bytes32",
          "name": "role",
          "type": "bytes32"
        },
        {
          "indexed": true,
          "internalType": "address",
          "name": "account",
          "type": "address"
        },
        {
          "indexed": true,
          "internalType": "address",
          "name": "sender",
          "type": "address"
        }
      ],
      "name": "RoleRevoked",
      "type": "event"
    },
    {
      "anonymous": false,
      "inputs": [
        {
          "indexed": true,
          "internalType": "bytes32",
          "name": "role",
          "type": "bytes32"
        },
        {
          "indexed": true,
          "internalType": "address",
          "name": "account",
          "type": "address"
        }
      ],
      "name": "RoleRevoked",
      "type": "event"
    },
    {
      "anonymous": false,
      "inputs": [
        {
          "indexed": false,
          "internalType": "address",
          "name": "contractAddress",
          "type": "address"
        },
        {
          "indexed": false,
          "internalType": "address",
          "name": "deployer",
          "type": "address"
        }
      ],
      "name": "SassyEscrowCreated",
      "type": "event"
    },
    {
      "anonymous": false,
      "inputs": [
        {
          "indexed": false,
          "internalType": "uint256[]",
          "name": "caseID",
          "type": "uint256[]"
        },
        {
          "indexed": false,
          "internalType": "string[]",
          "name": "ipfsHash",
          "type": "string[]"
        },
        {
          "indexed": true,
          "internalType": "address",
          "name": "submmiter",
          "type": "address"
        }
      ],
      "name": "disputeCasesReceived",
      "type": "event"
    },
    {
      "inputs": [],
      "name": "DEFAULT_ADMIN_ROLE",
      "outputs": [
        {
          "internalType": "bytes32",
          "name": "",
          "type": "bytes32"
        }
      ],
      "stateMutability": "view",
      "type": "function"
    },
    {
      "inputs": [],
      "name": "PartnerContract",
      "outputs": [
        {
          "internalType": "contract IPartnerContract",
          "name": "",
          "type": "address"
        }
      ],
      "stateMutability": "view",
      "type": "function"
    },
    {
      "inputs": [],
      "name": "getDisputeCases",
      "outputs": [
        {
          "internalType": "string[]",
          "name": "",
          "type": "string[]"
        }
      ],
      "stateMutability": "view",
      "type": "function"
    },
    {
      "inputs": [
        {
          "internalType": "bytes32",
          "name": "role",
          "type": "bytes32"
        }
      ],
      "name": "getRoleAdmin",
      "outputs": [
        {
          "internalType": "bytes32",
          "name": "",
          "type": "bytes32"
        }
      ],
      "stateMutability": "view",
      "type": "function"
    },
    {
      "inputs": [
        {
          "internalType": "bytes32",
          "name": "role",
          "type": "bytes32"
        },
        {
          "internalType": "address",
          "name": "account",
          "type": "address"
        }
      ],
      "name": "grantRole",
      "outputs": [],
      "stateMutability": "nonpayable",
      "type": "function"
    },
    {
      "inputs": [
        {
          "internalType": "bytes32",
          "name": "role",
          "type": "bytes32"
        },
        {
          "internalType": "address",
          "name": "account",
          "type": "address"
        }
      ],
      "name": "hasRole",
      "outputs": [
        {
          "internalType": "bool",
          "name": "",
          "type": "bool"
        }
      ],
      "stateMutability": "view",
      "type": "function"
    },
    {
      "inputs": [
        {
          "internalType": "uint256",
          "name": "",
          "type": "uint256"
        }
      ],
      "name": "ipfsHashes",
      "outputs": [
        {
          "internalType": "string",
          "name": "",
          "type": "string"
        }
      ],
      "stateMutability": "view",
      "type": "function"
    },
    {
      "inputs": [
        {
          "internalType": "bytes32",
          "name": "role",
          "type": "bytes32"
        },
        {
          "internalType": "address",
          "name": "callerConfirmation",
          "type": "address"
        }
      ],
      "name": "renounceRole",
      "outputs": [],
      "stateMutability": "nonpayable",
      "type": "function"
    },
    {
      "inputs": [
        {
          "internalType": "bytes32",
          "name": "role",
          "type": "bytes32"
        },
        {
          "internalType": "address",
          "name": "account",
          "type": "address"
        }
      ],
      "name": "revokeRole",
      "outputs": [],
      "stateMutability": "nonpayable",
      "type": "function"
    },
    {
      "inputs": [
        {
          "internalType": "address",
          "name": "_payer",
          "type": "address"
        },
        {
          "internalType": "address",
          "name": "_payee",
          "type": "address"
        },
        {
          "internalType": "uint256",
          "name": "_disputeCasesAgreed",
          "type": "uint256"
        },
        {
          "internalType": "address",
          "name": "_SassyToken",
          "type": "address"
        },
        {
          "internalType": "uint256",
          "name": "_fundsAgreed",
          "type": "uint256"
        },
        {
          "internalType": "uint256",
          "name": "_holdDuration",
          "type": "uint256"
        }
      ],
      "name": "setBridge",
      "outputs": [],
      "stateMutability": "nonpayable",
      "type": "function"
    },
    {
      "inputs": [
        {
          "internalType": "bytes4",
          "name": "interfaceId",
          "type": "bytes4"
        }
      ],
      "name": "supportsInterface",
      "outputs": [
        {
          "internalType": "bool",
          "name": "",
          "type": "bool"
        }
      ],
      "stateMutability": "view",
      "type": "function"
    }
  ],
  "bytecode": "0x60806040523480156200001157600080fd5b5060405162003a7a38038062003a7a833981810160405281019062000037919062000376565b80600160006101000a81548173ffffffffffffffffffffffffffffffffffffffff021916908373ffffffffffffffffffffffffffffffffffffffff160217905550620000b36000801b604051602001620000919062000403565b604051602081830303815290604052805190602001206200011560201b60201c565b6200010d604051602001620000c89062000403565b60405160208183030381529060405280519060200120600160009054906101000a900473ffffffffffffffffffffffffffffffffffffffff166200017860201b60201c565b50506200041a565b600062000128836200027b60201b60201c565b905081600080858152602001908152602001600020600101819055508181847fbd79b86ffe0ab8e8776151514217cd7cacd52c909f66475c3af44e129f0b00ff60405160405180910390a4505050565b60006200018c83836200029a60201b60201c565b6200027057600160008085815260200190815260200160002060000160008473ffffffffffffffffffffffffffffffffffffffff1673ffffffffffffffffffffffffffffffffffffffff16815260200190815260200160002060006101000a81548160ff0219169083151502179055506200020c6200030460201b60201c565b73ffffffffffffffffffffffffffffffffffffffff168273ffffffffffffffffffffffffffffffffffffffff16847f2f8788117e7eff1d82e926ec794901d17c78024a50270940304540a733656f0d60405160405180910390a46001905062000275565b600090505b92915050565b6000806000838152602001908152602001600020600101549050919050565b600080600084815260200190815260200160002060000160008373ffffffffffffffffffffffffffffffffffffffff1673ffffffffffffffffffffffffffffffffffffffff16815260200190815260200160002060009054906101000a900460ff16905092915050565b600033905090565b600080fd5b600073ffffffffffffffffffffffffffffffffffffffff82169050919050565b60006200033e8262000311565b9050919050565b620003508162000331565b81146200035c57600080fd5b50565b600081519050620003708162000345565b92915050565b6000602082840312156200038f576200038e6200030c565b5b60006200039f848285016200035f565b91505092915050565b600081905092915050565b7f41444d494e000000000000000000000000000000000000000000000000000000600082015250565b6000620003eb600583620003a8565b9150620003f882620003b3565b600582019050919050565b60006200041082620003dc565b9150819050919050565b613650806200042a6000396000f3fe60806040523480156200001157600080fd5b5060043610620000b85760003560e01c806336568abe116200007b57806336568abe146200018d57806391d1485414620001ad578063a217fddf14620001e3578063a4de2f5c1462000205578063a7a63ce4146200023b578063d547741f146200025b57620000b8565b806301ffc9a714620000bd5780630633a04214620000f3578063248a9ca314620001155780632b804ee4146200014b5780632f2ff15d146200016d575b600080fd5b620000db6004803603810190620000d5919062000d64565b6200027b565b604051620000ea919062000db3565b60405180910390f35b620000fd620002f8565b6040516200010c919062000e5b565b60405180910390f35b6200013360048036038101906200012d919062000eb3565b6200031e565b60405162000142919062000ef6565b60405180910390f35b620001556200033d565b6040516200016491906200107d565b60405180910390f35b6200018b6004803603810190620001859190620010e6565b62000453565b005b620001ab6004803603810190620001a59190620010e6565b6200047b565b005b620001cb6004803603810190620001c59190620010e6565b620004fb565b604051620001da919062000db3565b60405180910390f35b620001ed62000565565b604051620001fc919062000ef6565b60405180910390f35b6200022360048036038101906200021d919062001168565b6200056c565b604051620002329190620011ec565b60405180910390f35b62000259600480360381019062000253919062001210565b62000621565b005b620002796004803603810190620002739190620010e6565b62000912565b005b60007f7965db0b000000000000000000000000000000000000000000000000000000007bffffffffffffffffffffffffffffffffffffffffffffffffffffffff1916827bffffffffffffffffffffffffffffffffffffffffffffffffffffffff19161480620002f15750620002f0826200093a565b5b9050919050565b600360009054906101000a900473ffffffffffffffffffffffffffffffffffffffff1681565b6000806000838152602001908152602001600020600101549050919050565b6060604051602001620003509062001307565b604051602081830303815290604052805190602001206200037181620009a4565b6002805480602002602001604051908101604052809291908181526020016000905b8282101562000449578382906000526020600020018054620003b5906200134d565b80601f0160208091040260200160405190810160405280929190818152602001828054620003e3906200134d565b8015620004345780601f10620004085761010080835404028352916020019162000434565b820191906000526020600020905b8154815290600101906020018083116200041657829003601f168201915b50505050508152602001906001019062000393565b5050505091505090565b6200045e826200031e565b6200046981620009a4565b620004758383620009bc565b50505050565b6200048562000ab3565b73ffffffffffffffffffffffffffffffffffffffff168173ffffffffffffffffffffffffffffffffffffffff1614620004ea576040517f6697b23200000000000000000000000000000000000000000000000000000000815260040160405180910390fd5b620004f6828262000abb565b505050565b600080600084815260200190815260200160002060000160008373ffffffffffffffffffffffffffffffffffffffff1673ffffffffffffffffffffffffffffffffffffffff16815260200190815260200160002060009054906101000a900460ff16905092915050565b6000801b81565b600281815481106200057d57600080fd5b9060005260206000200160009150905080546200059a906200134d565b80601f0160208091040260200160405190810160405280929190818152602001828054620005c8906200134d565b8015620006195780601f10620005ed5761010080835404028352916020019162000619565b820191906000526020600020905b815481529060010190602001808311620005fb57829003601f168201915b505050505081565b6040516020016200063290620013d2565b604051602081830303815290604052805190602001206200065381620009a4565b84600360009054906101000a900473ffffffffffffffffffffffffffffffffffffffff1673ffffffffffffffffffffffffffffffffffffffff16632b804ee46040518163ffffffff1660e01b8152600401600060405180830381865afa158015620006c2573d6000803e3d6000fd5b505050506040513d6000823e3d601f19601f82011682018060405250810190620006ed919062001627565b511462000731576040517f08c379a0000000000000000000000000000000000000000000000000000000008152600401620007289062001760565b60405180910390fd5b6200073c8562000bb3565b92506000878787878787604051620007549062000ce5565b6200076596959493929190620017a4565b604051809103906000f08015801562000782573d6000803e3d6000fd5b5090507f73ed91ec876a6ef07b2d4bbd36371e6eb6c5269d213084d4ff40ade4e3564f7a8130604051620007b892919062001811565b60405180910390a186600360006101000a81548173ffffffffffffffffffffffffffffffffffffffff021916908373ffffffffffffffffffffffffffffffffffffffff1602179055508073ffffffffffffffffffffffffffffffffffffffff16634be9b707600360009054906101000a900473ffffffffffffffffffffffffffffffffffffffff1673ffffffffffffffffffffffffffffffffffffffff16632b804ee46040518163ffffffff1660e01b8152600401600060405180830381865afa1580156200088b573d6000803e3d6000fd5b505050506040513d6000823e3d601f19601f82011682018060405250810190620008b6919062001627565b6040518263ffffffff1660e01b8152600401620008d491906200107d565b600060405180830381600087803b158015620008ef57600080fd5b505af115801562000904573d6000803e3d6000fd5b505050505050505050505050565b6200091d826200031e565b6200092881620009a4565b62000934838362000abb565b50505050565b60007f01ffc9a7000000000000000000000000000000000000000000000000000000007bffffffffffffffffffffffffffffffffffffffffffffffffffffffff1916827bffffffffffffffffffffffffffffffffffffffffffffffffffffffff1916149050919050565b620009b981620009b362000ab3565b62000c8f565b50565b6000620009ca8383620004fb565b62000aa857600160008085815260200190815260200160002060000160008473ffffffffffffffffffffffffffffffffffffffff1673ffffffffffffffffffffffffffffffffffffffff16815260200190815260200160002060006101000a81548160ff02191690831515021790555062000a4462000ab3565b73ffffffffffffffffffffffffffffffffffffffff168273ffffffffffffffffffffffffffffffffffffffff16847f2f8788117e7eff1d82e926ec794901d17c78024a50270940304540a733656f0d60405160405180910390a46001905062000aad565b600090505b92915050565b600033905090565b600062000ac98383620004fb565b1562000ba857600080600085815260200190815260200160002060000160008473ffffffffffffffffffffffffffffffffffffffff1673ffffffffffffffffffffffffffffffffffffffff16815260200190815260200160002060006101000a81548160ff02191690831515021790555062000b4462000ab3565b73ffffffffffffffffffffffffffffffffffffffff168273ffffffffffffffffffffffffffffffffffffffff16847ff6391f5c32d9c69d2a47ea670b442974b53935d1edc7fd64eb21e047a839171b60405160405180910390a46001905062000bad565b600090505b92915050565b60008066038d7ea4c680009050620186a0831062000bfe5760646023828562000bdd91906200186d565b62000be991906200186d565b62000bf59190620018e7565b91505062000c8a565b612710831062000c3b5760646032828562000c1a91906200186d565b62000c2691906200186d565b62000c329190620018e7565b91505062000c8a565b6103e8831062000c785760646050828562000c5791906200186d565b62000c6391906200186d565b62000c6f9190620018e7565b91505062000c8a565b808362000c8691906200186d565b9150505b919050565b62000c9b8282620004fb565b62000ce15780826040517fe2517d3f00000000000000000000000000000000000000000000000000000000815260040162000cd89291906200191f565b60405180910390fd5b5050565b611cce806200194d83390190565b6000604051905090565b600080fd5b600080fd5b60007fffffffff0000000000000000000000000000000000000000000000000000000082169050919050565b62000d3e8162000d07565b811462000d4a57600080fd5b50565b60008135905062000d5e8162000d33565b92915050565b60006020828403121562000d7d5762000d7c62000cfd565b5b600062000d8d8482850162000d4d565b91505092915050565b60008115159050919050565b62000dad8162000d96565b82525050565b600060208201905062000dca600083018462000da2565b92915050565b600073ffffffffffffffffffffffffffffffffffffffff82169050919050565b6000819050919050565b600062000e1b62000e1562000e0f8462000dd0565b62000df0565b62000dd0565b9050919050565b600062000e2f8262000dfa565b9050919050565b600062000e438262000e22565b9050919050565b62000e558162000e36565b82525050565b600060208201905062000e72600083018462000e4a565b92915050565b6000819050919050565b62000e8d8162000e78565b811462000e9957600080fd5b50565b60008135905062000ead8162000e82565b92915050565b60006020828403121562000ecc5762000ecb62000cfd565b5b600062000edc8482850162000e9c565b91505092915050565b62000ef08162000e78565b82525050565b600060208201905062000f0d600083018462000ee5565b92915050565b600081519050919050565b600082825260208201905092915050565b6000819050602082019050919050565b600081519050919050565b600082825260208201905092915050565b60005b8381101562000f7b57808201518184015260208101905062000f5e565b60008484015250505050565b6000601f19601f8301169050919050565b600062000fa58262000f3f565b62000fb1818562000f4a565b935062000fc381856020860162000f5b565b62000fce8162000f87565b840191505092915050565b600062000fe7838362000f98565b905092915050565b6000602082019050919050565b6000620010098262000f13565b62001015818562000f1e565b935083602082028501620010298562000f2f565b8060005b858110156200106b578484038952815162001049858262000fd9565b9450620010568362000fef565b925060208a019950506001810190506200102d565b50829750879550505050505092915050565b6000602082019050818103600083015262001099818462000ffc565b905092915050565b6000620010ae8262000dd0565b9050919050565b620010c081620010a1565b8114620010cc57600080fd5b50565b600081359050620010e081620010b5565b92915050565b600080604083850312156200110057620010ff62000cfd565b5b6000620011108582860162000e9c565b92505060206200112385828601620010cf565b9150509250929050565b6000819050919050565b62001142816200112d565b81146200114e57600080fd5b50565b600081359050620011628162001137565b92915050565b60006020828403121562001181576200118062000cfd565b5b6000620011918482850162001151565b91505092915050565b600082825260208201905092915050565b6000620011b88262000f3f565b620011c481856200119a565b9350620011d681856020860162000f5b565b620011e18162000f87565b840191505092915050565b60006020820190508181036000830152620012088184620011ab565b905092915050565b60008060008060008060c0878903121562001230576200122f62000cfd565b5b60006200124089828a01620010cf565b96505060206200125389828a01620010cf565b95505060406200126689828a0162001151565b94505060606200127989828a01620010cf565b93505060806200128c89828a0162001151565b92505060a06200129f89828a0162001151565b9150509295509295509295565b600081905092915050565b7f41444d494e000000000000000000000000000000000000000000000000000000600082015250565b6000620012ef600583620012ac565b9150620012fc82620012b7565b600582019050919050565b60006200131482620012e0565b9150819050919050565b7f4e487b7100000000000000000000000000000000000000000000000000000000600052602260045260246000fd5b600060028204905060018216806200136657607f821691505b6020821081036200137c576200137b6200131e565b5b50919050565b7f504152544e455200000000000000000000000000000000000000000000000000600082015250565b6000620013ba600783620012ac565b9150620013c78262001382565b600782019050919050565b6000620013df82620013ab565b9150819050919050565b600080fd5b7f4e487b7100000000000000000000000000000000000000000000000000000000600052604160045260246000fd5b620014288262000f87565b810181811067ffffffffffffffff821117156200144a5762001449620013ee565b5b80604052505050565b60006200145f62000cf3565b90506200146d82826200141d565b919050565b600067ffffffffffffffff82111562001490576200148f620013ee565b5b602082029050602081019050919050565b600080fd5b600080fd5b600067ffffffffffffffff821115620014c957620014c8620013ee565b5b620014d48262000f87565b9050602081019050919050565b6000620014f8620014f284620014ab565b62001453565b905082815260208101848484011115620015175762001516620014a6565b5b6200152484828562000f5b565b509392505050565b600082601f830112620015445762001543620013e9565b5b815162001556848260208601620014e1565b91505092915050565b600062001576620015708462001472565b62001453565b905080838252602082019050602084028301858111156200159c576200159b620014a1565b5b835b81811015620015ea57805167ffffffffffffffff811115620015c557620015c4620013e9565b5b808601620015d489826200152c565b855260208501945050506020810190506200159e565b5050509392505050565b600082601f8301126200160c576200160b620013e9565b5b81516200161e8482602086016200155f565b91505092915050565b60006020828403121562001640576200163f62000cfd565b5b600082015167ffffffffffffffff81111562001661576200166062000d02565b5b6200166f84828501620015f4565b91505092915050565b7f4469737075746520636173657320646f65736e2774206d61746368206469737060008201527f75746520636173657320616772656564207c7c2052657472696576696e67206460208201527f6973707574652063617365732066726f6d20636f6e7472616374206661696c6560408201527f642c20706c65617365207265766973652067657444697370757465436173657360608201527f28292066756e6374696f6e000000000000000000000000000000000000000000608082015250565b600062001748608b836200119a565b9150620017558262001678565b60a082019050919050565b600060208201905081810360008301526200177b8162001739565b9050919050565b6200178d81620010a1565b82525050565b6200179e816200112d565b82525050565b600060c082019050620017bb600083018962001782565b620017ca602083018862001782565b620017d9604083018762001793565b620017e8606083018662001782565b620017f7608083018562001793565b6200180660a083018462001793565b979650505050505050565b600060408201905062001828600083018562001782565b62001837602083018462001782565b9392505050565b7f4e487b7100000000000000000000000000000000000000000000000000000000600052601160045260246000fd5b60006200187a826200112d565b915062001887836200112d565b925082820262001897816200112d565b91508282048414831517620018b157620018b06200183e565b5b5092915050565b7f4e487b7100000000000000000000000000000000000000000000000000000000600052601260045260246000fd5b6000620018f4826200112d565b915062001901836200112d565b925082620019145762001913620018b8565b5b828204905092915050565b600060408201905062001936600083018562001782565b62001945602083018462000ee5565b939250505056fe60806040523480156200001157600080fd5b5060405162001cce38038062001cce83398181016040528101906200003791906200020d565b336000806101000a81548173ffffffffffffffffffffffffffffffffffffffff021916908373ffffffffffffffffffffffffffffffffffffffff16021790555085600160006101000a81548173ffffffffffffffffffffffffffffffffffffffff021916908373ffffffffffffffffffffffffffffffffffffffff16021790555084600260006101000a81548173ffffffffffffffffffffffffffffffffffffffff021916908373ffffffffffffffffffffffffffffffffffffffff1602179055508360038190555082600760006101000a81548173ffffffffffffffffffffffffffffffffffffffff021916908373ffffffffffffffffffffffffffffffffffffffff160217905550816005819055508042620001569190620002d8565b60088190555050505050505062000313565b600080fd5b600073ffffffffffffffffffffffffffffffffffffffff82169050919050565b60006200019a826200016d565b9050919050565b620001ac816200018d565b8114620001b857600080fd5b50565b600081519050620001cc81620001a1565b92915050565b6000819050919050565b620001e781620001d2565b8114620001f357600080fd5b50565b6000815190506200020781620001dc565b92915050565b60008060008060008060c087890312156200022d576200022c62000168565b5b60006200023d89828a01620001bb565b96505060206200025089828a01620001bb565b95505060406200026389828a01620001f6565b94505060606200027689828a01620001bb565b93505060806200028989828a01620001f6565b92505060a06200029c89828a01620001f6565b9150509295509295509295565b7f4e487b7100000000000000000000000000000000000000000000000000000000600052601160045260246000fd5b6000620002e582620001d2565b9150620002f283620001d2565b92508282019050808211156200030d576200030c620002a9565b5b92915050565b6119ab80620003236000396000f3fe608060405234801561001057600080fd5b50600436106100cf5760003560e01c8063aa93b1b31161008c578063be34d4c111610066578063be34d4c1146101dc578063c52f2e08146101fa578063e1f6c09814610218578063fc0c546a14610236576100cf565b8063aa93b1b314610170578063ae90b2131461018e578063b95d387b146101ac576100cf565b80630a3f013f146100d4578063123119cd146100f25780633b76594d14610110578063419791441461012c5780634be9b7071461014a57806369d8957514610166575b600080fd5b6100dc610254565b6040516100e99190610c22565b60405180910390f35b6100fa61025a565b6040516101079190610c7e565b60405180910390f35b61012a60048036038101906101259190610cd9565b610280565b005b6101346104c7565b6040516101419190610c22565b60405180910390f35b610164600480360381019061015f9190610f32565b6104cd565b005b61016e610577565b005b6101786106e3565b6040516101859190610c22565b60405180910390f35b6101966106e9565b6040516101a39190610c7e565b60405180910390f35b6101c660048036038101906101c19190610cd9565b61070f565b6040516101d39190610ffa565b60405180910390f35b6101e46107bb565b6040516101f19190610c22565b60405180910390f35b6102026107c1565b60405161020f9190611037565b60405180910390f35b6102206107d4565b60405161022d9190610c7e565b60405180910390f35b61023e6107f8565b60405161024b91906110b1565b60405180910390f35b60085481565b600160009054906101000a900473ffffffffffffffffffffffffffffffffffffffff1681565b600160009054906101000a900473ffffffffffffffffffffffffffffffffffffffff1673ffffffffffffffffffffffffffffffffffffffff163373ffffffffffffffffffffffffffffffffffffffff1614610310576040517f08c379a000000000000000000000000000000000000000000000000000000000815260040161030790611118565b60405180910390fd5b600960009054906101000a900460ff1615610360576040517f08c379a000000000000000000000000000000000000000000000000000000000815260040161035790611184565b60405180910390fd5b80600554146103a4576040517f08c379a000000000000000000000000000000000000000000000000000000000815260040161039b90611216565b60405180910390fd5b6001600960006101000a81548160ff021916908315150217905550600760009054906101000a900473ffffffffffffffffffffffffffffffffffffffff1673ffffffffffffffffffffffffffffffffffffffff166323b872dd600160009054906101000a900473ffffffffffffffffffffffffffffffffffffffff16306006546040518463ffffffff1660e01b815260040161044293929190611236565b6020604051808303816000875af1158015610461573d6000803e3d6000fd5b505050506040513d601f19601f820116820180604052508101906104859190611299565b6104c4576040517f08c379a00000000000000000000000000000000000000000000000000000000081526004016104bb90611312565b60405180910390fd5b50565b60065481565b600260009054906101000a900473ffffffffffffffffffffffffffffffffffffffff1673ffffffffffffffffffffffffffffffffffffffff163373ffffffffffffffffffffffffffffffffffffffff161461055d576040517f08c379a000000000000000000000000000000000000000000000000000000000815260040161055490611118565b60405180910390fd5b8060049080519060200190610573929190610b2f565b5050565b60008054906101000a900473ffffffffffffffffffffffffffffffffffffffff1673ffffffffffffffffffffffffffffffffffffffff163373ffffffffffffffffffffffffffffffffffffffff1614610605576040517f08c379a00000000000000000000000000000000000000000000000000000000081526004016105fc90611118565b60405180910390fd5b600960009054906101000a900460ff16610654576040517f08c379a000000000000000000000000000000000000000000000000000000000815260040161064b9061137e565b60405180910390fd5b600854421015610699576040517f08c379a0000000000000000000000000000000000000000000000000000000008152600401610690906113ea565b60405180910390fd5b600960009054906101000a900460ff1680156106b757506008544210155b156106e157600354600480549050036106d7576106d261081e565b6106e0565b6106df61097f565b5b5b565b60035481565b600260009054906101000a900473ffffffffffffffffffffffffffffffffffffffff1681565b6004818154811061071f57600080fd5b90600052602060002001600091509050805461073a90611439565b80601f016020809104026020016040519081016040528092919081815260200182805461076690611439565b80156107b35780601f10610788576101008083540402835291602001916107b3565b820191906000526020600020905b81548152906001019060200180831161079657829003601f168201915b505050505081565b60055481565b600960009054906101000a900460ff1681565b60008054906101000a900473ffffffffffffffffffffffffffffffffffffffff1681565b600760009054906101000a900473ffffffffffffffffffffffffffffffffffffffff1681565b600760009054906101000a900473ffffffffffffffffffffffffffffffffffffffff1673ffffffffffffffffffffffffffffffffffffffff1663a9059cbb600260009054906101000a900473ffffffffffffffffffffffffffffffffffffffff166006546040518363ffffffff1660e01b815260040161089f92919061146a565b6020604051808303816000875af11580156108be573d6000803e3d6000fd5b505050506040513d601f19601f820116820180604052508101906108e29190611299565b610921576040517f08c379a0000000000000000000000000000000000000000000000000000000008152600401610918906114df565b60405180910390fd5b6000600960006101000a81548160ff02191690831515021790555060006006819055506040517f08c379a000000000000000000000000000000000000000000000000000000000815260040161097690611597565b60405180910390fd5b600960009054906101000a900460ff166109ce576040517f08c379a00000000000000000000000000000000000000000000000000000000081526004016109c59061137e565b60405180910390fd5b600760009054906101000a900473ffffffffffffffffffffffffffffffffffffffff1673ffffffffffffffffffffffffffffffffffffffff1663a9059cbb600160009054906101000a900473ffffffffffffffffffffffffffffffffffffffff166006546040518363ffffffff1660e01b8152600401610a4f92919061146a565b6020604051808303816000875af1158015610a6e573d6000803e3d6000fd5b505050506040513d601f19601f82011682018060405250810190610a929190611299565b610ad1576040517f08c379a0000000000000000000000000000000000000000000000000000000008152600401610ac890611603565b60405180910390fd5b6000600960006101000a81548160ff02191690831515021790555060006006819055506040517f08c379a0000000000000000000000000000000000000000000000000000000008152600401610b26906116e1565b60405180910390fd5b828054828255906000526020600020908101928215610b77579160200282015b82811115610b76578251829081610b6691906118a3565b5091602001919060010190610b4f565b5b509050610b849190610b88565b5090565b5b80821115610ba85760008181610b9f9190610bac565b50600101610b89565b5090565b508054610bb890611439565b6000825580601f10610bca5750610be9565b601f016020900490600052602060002090810190610be89190610bec565b5b50565b5b80821115610c05576000816000905550600101610bed565b5090565b6000819050919050565b610c1c81610c09565b82525050565b6000602082019050610c376000830184610c13565b92915050565b600073ffffffffffffffffffffffffffffffffffffffff82169050919050565b6000610c6882610c3d565b9050919050565b610c7881610c5d565b82525050565b6000602082019050610c936000830184610c6f565b92915050565b6000604051905090565b600080fd5b600080fd5b610cb681610c09565b8114610cc157600080fd5b50565b600081359050610cd381610cad565b92915050565b600060208284031215610cef57610cee610ca3565b5b6000610cfd84828501610cc4565b91505092915050565b600080fd5b6000601f19601f8301169050919050565b7f4e487b7100000000000000000000000000000000000000000000000000000000600052604160045260246000fd5b610d5482610d0b565b810181811067ffffffffffffffff82111715610d7357610d72610d1c565b5b80604052505050565b6000610d86610c99565b9050610d928282610d4b565b919050565b600067ffffffffffffffff821115610db257610db1610d1c565b5b602082029050602081019050919050565b600080fd5b600080fd5b600067ffffffffffffffff821115610de857610de7610d1c565b5b610df182610d0b565b9050602081019050919050565b82818337600083830152505050565b6000610e20610e1b84610dcd565b610d7c565b905082815260208101848484011115610e3c57610e3b610dc8565b5b610e47848285610dfe565b509392505050565b600082601f830112610e6457610e63610d06565b5b8135610e74848260208601610e0d565b91505092915050565b6000610e90610e8b84610d97565b610d7c565b90508083825260208201905060208402830185811115610eb357610eb2610dc3565b5b835b81811015610efa57803567ffffffffffffffff811115610ed857610ed7610d06565b5b808601610ee58982610e4f565b85526020850194505050602081019050610eb5565b5050509392505050565b600082601f830112610f1957610f18610d06565b5b8135610f29848260208601610e7d565b91505092915050565b600060208284031215610f4857610f47610ca3565b5b600082013567ffffffffffffffff811115610f6657610f65610ca8565b5b610f7284828501610f04565b91505092915050565b600081519050919050565b600082825260208201905092915050565b60005b83811015610fb5578082015181840152602081019050610f9a565b60008484015250505050565b6000610fcc82610f7b565b610fd68185610f86565b9350610fe6818560208601610f97565b610fef81610d0b565b840191505092915050565b600060208201905081810360008301526110148184610fc1565b905092915050565b60008115159050919050565b6110318161101c565b82525050565b600060208201905061104c6000830184611028565b92915050565b6000819050919050565b600061107761107261106d84610c3d565b611052565b610c3d565b9050919050565b60006110898261105c565b9050919050565b600061109b8261107e565b9050919050565b6110ab81611090565b82525050565b60006020820190506110c660008301846110a2565b92915050565b7f6e6f7420617574686f72697a6564000000000000000000000000000000000000600082015250565b6000611102600e83610f86565b915061110d826110cc565b602082019050919050565b60006020820190508181036000830152611131816110f5565b9050919050565b7f46756e647320616c7265616479206465706f7369746564000000000000000000600082015250565b600061116e601783610f86565b915061117982611138565b602082019050919050565b6000602082019050818103600083015261119d81611161565b9050919050565b7f43757272656e742066756e647320646f65736e2774206d6174636820696e697460008201527f69616c206167726565642066756e647300000000000000000000000000000000602082015250565b6000611200603083610f86565b915061120b826111a4565b604082019050919050565b6000602082019050818103600083015261122f816111f3565b9050919050565b600060608201905061124b6000830186610c6f565b6112586020830185610c6f565b6112656040830184610c13565b949350505050565b6112768161101c565b811461128157600080fd5b50565b6000815190506112938161126d565b92915050565b6000602082840312156112af576112ae610ca3565b5b60006112bd84828501611284565b91505092915050565b7f546f6b656e73206465706f736974206661696c65640000000000000000000000600082015250565b60006112fc601583610f86565b9150611307826112c6565b602082019050919050565b6000602082019050818103600083015261132b816112ef565b9050919050565b7f4e6f2066756e6473206465706f73697465640000000000000000000000000000600082015250565b6000611368601283610f86565b915061137382611332565b602082019050919050565b600060208201905081810360008301526113978161135b565b9050919050565b7f46756e647320617265207374696c6c2068656c64000000000000000000000000600082015250565b60006113d4601483610f86565b91506113df8261139e565b602082019050919050565b60006020820190508181036000830152611403816113c7565b9050919050565b7f4e487b7100000000000000000000000000000000000000000000000000000000600052602260045260246000fd5b6000600282049050600182168061145157607f821691505b6020821081036114645761146361140a565b5b50919050565b600060408201905061147f6000830185610c6f565b61148c6020830184610c13565b9392505050565b7f46756e64732072656c65617365206661696c6564000000000000000000000000600082015250565b60006114c9601483610f86565b91506114d482611493565b602082019050919050565b600060208201905081810360008301526114f8816114bc565b9050919050565b7f4465706f73697465642064697370757465206361736573206d6174636820696e60008201527f697469616c2061677265656420646973707574652063617365732c2066756e6460208201527f73206172652073656e7420746f20706179656500000000000000000000000000604082015250565b6000611581605383610f86565b915061158c826114ff565b606082019050919050565b600060208201905081810360008301526115b081611574565b9050919050565b7f46756e64732072657475726e206661696c656400000000000000000000000000600082015250565b60006115ed601383610f86565b91506115f8826115b7565b602082019050919050565b6000602082019050818103600083015261161c816115e0565b9050919050565b7f4465706f73697465642064697370757465206361736573206469646e2774206d60008201527f6174636820696e697469616c206167726565642064697370757465206361736560208201527f732c2066756e6473206172652072657475726e6564206261636b20746f20706160408201527f7965720000000000000000000000000000000000000000000000000000000000606082015250565b60006116cb606383610f86565b91506116d682611623565b608082019050919050565b600060208201905081810360008301526116fa816116be565b9050919050565b60008190508160005260206000209050919050565b60006020601f8301049050919050565b600082821b905092915050565b6000600883026117637fffffffffffffffffffffffffffffffffffffffffffffffffffffffffffffffff82611726565b61176d8683611726565b95508019841693508086168417925050509392505050565b60006117a061179b61179684610c09565b611052565b610c09565b9050919050565b6000819050919050565b6117ba83611785565b6117ce6117c6826117a7565b848454611733565b825550505050565b600090565b6117e36117d6565b6117ee8184846117b1565b505050565b5b81811015611812576118076000826117db565b6001810190506117f4565b5050565b601f8211156118575761182881611701565b61183184611716565b81016020851015611840578190505b61185461184c85611716565b8301826117f3565b50505b505050565b600082821c905092915050565b600061187a6000198460080261185c565b1980831691505092915050565b60006118938383611869565b9150826002028217905092915050565b6118ac82610f7b565b67ffffffffffffffff8111156118c5576118c4610d1c565b5b6118cf8254611439565b6118da828285611816565b600060209050601f83116001811461190d57600084156118fb578287015190505b6119058582611887565b86555061196d565b601f19841661191b86611701565b60005b828110156119435784890151825560018201915060208501945060208101905061191e565b86831015611960578489015161195c601f891682611869565b8355505b6001600288020188555050505b50505050505056fea2646970667358221220f62938d093b4b2d0d4cbde4502248ff1333aaf4bcbbe60978f44024510f0c65964736f6c63430008180033a26469706673582212207fb5237dc002421afdebed54ba4cf33c1e4c4f43abdeeb9e15663efbb372387764736f6c63430008180033",
  "linkReferences": {},
  "deployedLinkReferences": {}
}