{
  "contracts/SassyBridge.sol": {
    "SassyBridgeV2": {
      "abi": [
        {
          "inputs": [
            {
              "internalType": "address",
              "name": "_owner",
              "type": "address"
            }
          ],
          "stateMutability": "nonpayable",
          "type": "constructor"
        },
        {
          "inputs": [],
          "name": "AccessControlBadConfirmation",
          "type": "error"
        },
        {
          "inputs": [
            {
              "internalType": "address",
              "name": "account",
              "type": "address"
            },
            {
              "internalType": "bytes32",
              "name": "neededRole",
              "type": "bytes32"
            }
          ],
          "name": "AccessControlUnauthorizedAccount",
          "type": "error"
        },
        {
          "anonymous": false,
          "inputs": [
            {
              "indexed": true,
              "internalType": "bytes32",
              "name": "role",
              "type": "bytes32"
            },
            {
              "indexed": true,
              "internalType": "bytes32",
              "name": "previousAdminRole",
              "type": "bytes32"
            },
            {
              "indexed": true,
              "internalType": "bytes32",
              "name": "newAdminRole",
              "type": "bytes32"
            }
          ],
          "name": "RoleAdminChanged",
          "type": "event"
        },
        {
          "anonymous": false,
          "inputs": [
            {
              "indexed": true,
              "internalType": "bytes32",
              "name": "role",
              "type": "bytes32"
            },
            {
              "indexed": true,
              "internalType": "address",
              "name": "account",
              "type": "address"
            },
            {
              "indexed": true,
              "internalType": "address",
              "name": "sender",
              "type": "address"
            }
          ],
          "name": "RoleGranted",
          "type": "event"
        },
        {
          "anonymous": false,
          "inputs": [
            {
              "indexed": true,
              "internalType": "bytes32",
              "name": "role",
              "type": "bytes32"
            },
            {
              "indexed": true,
              "internalType": "address",
              "name": "account",
              "type": "address"
            }
          ],
          "name": "RoleGranted",
          "type": "event"
        },
        {
          "anonymous": false,
          "inputs": [
            {
              "indexed": true,
              "internalType": "bytes32",
              "name": "role",
              "type": "bytes32"
            },
            {
              "indexed": true,
              "internalType": "address",
              "name": "account",
              "type": "address"
            },
            {
              "indexed": true,
              "internalType": "address",
              "name": "sender",
              "type": "address"
            }
          ],
          "name": "RoleRevoked",
          "type": "event"
        },
        {
          "anonymous": false,
          "inputs": [
            {
              "indexed": true,
              "internalType": "bytes32",
              "name": "role",
              "type": "bytes32"
            },
            {
              "indexed": true,
              "internalType": "address",
              "name": "account",
              "type": "address"
            }
          ],
          "name": "RoleRevoked",
          "type": "event"
        },
        {
          "anonymous": false,
          "inputs": [
            {
              "indexed": false,
              "internalType": "address",
              "name": "contractAddress",
              "type": "address"
            },
            {
              "indexed": false,
              "internalType": "address",
              "name": "deployer",
              "type": "address"
            }
          ],
          "name": "SassyEscrowCreated",
          "type": "event"
        },
        {
          "anonymous": false,
          "inputs": [
            {
              "indexed": false,
              "internalType": "uint256[]",
              "name": "caseID",
              "type": "uint256[]"
            },
            {
              "indexed": false,
              "internalType": "string[]",
              "name": "ipfsHash",
              "type": "string[]"
            },
            {
              "indexed": true,
              "internalType": "address",
              "name": "submmiter",
              "type": "address"
            }
          ],
          "name": "disputeCasesReceived",
          "type": "event"
        },
        {
          "inputs": [],
          "name": "DEFAULT_ADMIN_ROLE",
          "outputs": [
            {
              "internalType": "bytes32",
              "name": "",
              "type": "bytes32"
            }
          ],
          "stateMutability": "view",
          "type": "function"
        },
        {
          "inputs": [],
          "name": "PartnerContract",
          "outputs": [
            {
              "internalType": "contract IPartnerContract",
              "name": "",
              "type": "address"
            }
          ],
          "stateMutability": "view",
          "type": "function"
        },
        {
          "inputs": [],
          "name": "getDisputeCases",
          "outputs": [
            {
              "internalType": "string[]",
              "name": "",
              "type": "string[]"
            }
          ],
          "stateMutability": "view",
          "type": "function"
        },
        {
          "inputs": [
            {
              "internalType": "bytes32",
              "name": "role",
              "type": "bytes32"
            }
          ],
          "name": "getRoleAdmin",
          "outputs": [
            {
              "internalType": "bytes32",
              "name": "",
              "type": "bytes32"
            }
          ],
          "stateMutability": "view",
          "type": "function"
        },
        {
          "inputs": [
            {
              "internalType": "bytes32",
              "name": "role",
              "type": "bytes32"
            },
            {
              "internalType": "address",
              "name": "account",
              "type": "address"
            }
          ],
          "name": "grantRole",
          "outputs": [],
          "stateMutability": "nonpayable",
          "type": "function"
        },
        {
          "inputs": [
            {
              "internalType": "bytes32",
              "name": "role",
              "type": "bytes32"
            },
            {
              "internalType": "address",
              "name": "account",
              "type": "address"
            }
          ],
          "name": "hasRole",
          "outputs": [
            {
              "internalType": "bool",
              "name": "",
              "type": "bool"
            }
          ],
          "stateMutability": "view",
          "type": "function"
        },
        {
          "inputs": [
            {
              "internalType": "uint256",
              "name": "",
              "type": "uint256"
            }
          ],
          "name": "ipfsHashes",
          "outputs": [
            {
              "internalType": "string",
              "name": "",
              "type": "string"
            }
          ],
          "stateMutability": "view",
          "type": "function"
        },
        {
          "inputs": [
            {
              "internalType": "bytes32",
              "name": "role",
              "type": "bytes32"
            },
            {
              "internalType": "address",
              "name": "callerConfirmation",
              "type": "address"
            }
          ],
          "name": "renounceRole",
          "outputs": [],
          "stateMutability": "nonpayable",
          "type": "function"
        },
        {
          "inputs": [
            {
              "internalType": "bytes32",
              "name": "role",
              "type": "bytes32"
            },
            {
              "internalType": "address",
              "name": "account",
              "type": "address"
            }
          ],
          "name": "revokeRole",
          "outputs": [],
          "stateMutability": "nonpayable",
          "type": "function"
        },
        {
          "inputs": [
            {
              "internalType": "address",
              "name": "_payer",
              "type": "address"
            },
            {
              "internalType": "address",
              "name": "_payee",
              "type": "address"
            },
            {
              "internalType": "uint256",
              "name": "_disputeCasesAgreed",
              "type": "uint256"
            },
            {
              "internalType": "address",
              "name": "_SassyToken",
              "type": "address"
            },
            {
              "internalType": "uint256",
              "name": "_fundsAgreed",
              "type": "uint256"
            },
            {
              "internalType": "uint256",
              "name": "_holdDuration",
              "type": "uint256"
            }
          ],
          "name": "setBridge",
          "outputs": [],
          "stateMutability": "nonpayable",
          "type": "function"
        },
        {
          "inputs": [
            {
              "internalType": "address",
              "name": "_payer",
              "type": "address"
            },
            {
              "internalType": "address",
              "name": "_payee",
              "type": "address"
            },
            {
              "internalType": "uint256",
              "name": "_disputeCasesAgreed",
              "type": "uint256"
            },
            {
              "internalType": "string[]",
              "name": "_disputeCases",
              "type": "string[]"
            },
            {
              "internalType": "address",
              "name": "_SassyToken",
              "type": "address"
            },
            {
              "internalType": "uint256",
              "name": "_fundsAgreed",
              "type": "uint256"
            },
            {
              "internalType": "uint256",
              "name": "_holdDuration",
              "type": "uint256"
            }
          ],
          "name": "setBridge",
          "outputs": [],
          "stateMutability": "nonpayable",
          "type": "function"
        },
        {
          "inputs": [
            {
              "internalType": "bytes4",
              "name": "interfaceId",
              "type": "bytes4"
            }
          ],
          "name": "supportsInterface",
          "outputs": [
            {
              "internalType": "bool",
              "name": "",
              "type": "bool"
            }
          ],
          "stateMutability": "view",
          "type": "function"
        }
      ],
      "evm": {
        "bytecode": {
          "linkReferences": {},
          "object": "60806040523480156200001157600080fd5b5060405162003ee638038062003ee6833981810160405281019062000037919062000376565b80600160006101000a81548173ffffffffffffffffffffffffffffffffffffffff021916908373ffffffffffffffffffffffffffffffffffffffff160217905550620000b36000801b604051602001620000919062000403565b604051602081830303815290604052805190602001206200011560201b60201c565b6200010d604051602001620000c89062000403565b60405160208183030381529060405280519060200120600160009054906101000a900473ffffffffffffffffffffffffffffffffffffffff166200017860201b60201c565b50506200041a565b600062000128836200027b60201b60201c565b905081600080858152602001908152602001600020600101819055508181847fbd79b86ffe0ab8e8776151514217cd7cacd52c909f66475c3af44e129f0b00ff60405160405180910390a4505050565b60006200018c83836200029a60201b60201c565b6200027057600160008085815260200190815260200160002060000160008473ffffffffffffffffffffffffffffffffffffffff1673ffffffffffffffffffffffffffffffffffffffff16815260200190815260200160002060006101000a81548160ff0219169083151502179055506200020c6200030460201b60201c565b73ffffffffffffffffffffffffffffffffffffffff168273ffffffffffffffffffffffffffffffffffffffff16847f2f8788117e7eff1d82e926ec794901d17c78024a50270940304540a733656f0d60405160405180910390a46001905062000275565b600090505b92915050565b6000806000838152602001908152602001600020600101549050919050565b600080600084815260200190815260200160002060000160008373ffffffffffffffffffffffffffffffffffffffff1673ffffffffffffffffffffffffffffffffffffffff16815260200190815260200160002060009054906101000a900460ff16905092915050565b600033905090565b600080fd5b600073ffffffffffffffffffffffffffffffffffffffff82169050919050565b60006200033e8262000311565b9050919050565b620003508162000331565b81146200035c57600080fd5b50565b600081519050620003708162000345565b92915050565b6000602082840312156200038f576200038e6200030c565b5b60006200039f848285016200035f565b91505092915050565b600081905092915050565b7f41444d494e000000000000000000000000000000000000000000000000000000600082015250565b6000620003eb600583620003a8565b9150620003f882620003b3565b600582019050919050565b60006200041082620003dc565b9150819050919050565b613abc806200042a6000396000f3fe60806040523480156200001157600080fd5b5060043610620000c45760003560e01c806391d14854116200007b57806391d1485414620001b9578063a217fddf14620001ef578063a4de2f5c1462000211578063a7a63ce41462000247578063bf8402a01462000267578063d547741f146200028757620000c4565b806301ffc9a714620000c95780630633a04214620000ff578063248a9ca314620001215780632b804ee414620001575780632f2ff15d146200017957806336568abe1462000199575b600080fd5b620000e76004803603810190620000e1919062000f11565b620002a7565b604051620000f6919062000f60565b60405180910390f35b6200010962000324565b60405162000118919062001008565b60405180910390f35b6200013f600480360381019062000139919062001060565b6200034a565b6040516200014e9190620010a3565b60405180910390f35b6200016162000369565b6040516200017091906200122a565b60405180910390f35b62000197600480360381019062000191919062001293565b6200047f565b005b620001b76004803603810190620001b1919062001293565b620004a7565b005b620001d76004803603810190620001d1919062001293565b62000527565b604051620001e6919062000f60565b60405180910390f35b620001f962000591565b604051620002089190620010a3565b60405180910390f35b6200022f600480360381019062000229919062001315565b62000598565b6040516200023e919062001399565b60405180910390f35b6200026560048036038101906200025f9190620013bd565b6200064d565b005b6200028560048036038101906200027f9190620016a6565b6200093e565b005b620002a560048036038101906200029f919062001293565b62000abf565b005b60007f7965db0b000000000000000000000000000000000000000000000000000000007bffffffffffffffffffffffffffffffffffffffffffffffffffffffff1916827bffffffffffffffffffffffffffffffffffffffffffffffffffffffff191614806200031d57506200031c8262000ae7565b5b9050919050565b600360009054906101000a900473ffffffffffffffffffffffffffffffffffffffff1681565b6000806000838152602001908152602001600020600101549050919050565b60606040516020016200037c90620017d3565b604051602081830303815290604052805190602001206200039d8162000b51565b6002805480602002602001604051908101604052809291908181526020016000905b8282101562000475578382906000526020600020018054620003e19062001819565b80601f01602080910402602001604051908101604052809291908181526020018280546200040f9062001819565b8015620004605780601f10620004345761010080835404028352916020019162000460565b820191906000526020600020905b8154815290600101906020018083116200044257829003601f168201915b505050505081526020019060010190620003bf565b5050505091505090565b6200048a826200034a565b620004958162000b51565b620004a1838362000b69565b50505050565b620004b162000c60565b73ffffffffffffffffffffffffffffffffffffffff168173ffffffffffffffffffffffffffffffffffffffff161462000516576040517f6697b23200000000000000000000000000000000000000000000000000000000815260040160405180910390fd5b62000522828262000c68565b505050565b600080600084815260200190815260200160002060000160008373ffffffffffffffffffffffffffffffffffffffff1673ffffffffffffffffffffffffffffffffffffffff16815260200190815260200160002060009054906101000a900460ff16905092915050565b6000801b81565b60028181548110620005a957600080fd5b906000526020600020016000915090508054620005c69062001819565b80601f0160208091040260200160405190810160405280929190818152602001828054620005f49062001819565b8015620006455780601f10620006195761010080835404028352916020019162000645565b820191906000526020600020905b8154815290600101906020018083116200062757829003601f168201915b505050505081565b6040516020016200065e906200189e565b604051602081830303815290604052805190602001206200067f8162000b51565b84600360009054906101000a900473ffffffffffffffffffffffffffffffffffffffff1673ffffffffffffffffffffffffffffffffffffffff16632b804ee46040518163ffffffff1660e01b8152600401600060405180830381865afa158015620006ee573d6000803e3d6000fd5b505050506040513d6000823e3d601f19601f82011682018060405250810190620007199190620019fb565b51146200075d576040517f08c379a0000000000000000000000000000000000000000000000000000000008152600401620007549062001b34565b60405180910390fd5b620007688562000d60565b92506000878787878787604051620007809062000e92565b620007919695949392919062001b78565b604051809103906000f080158015620007ae573d6000803e3d6000fd5b5090507f73ed91ec876a6ef07b2d4bbd36371e6eb6c5269d213084d4ff40ade4e3564f7a8130604051620007e492919062001be5565b60405180910390a186600360006101000a81548173ffffffffffffffffffffffffffffffffffffffff021916908373ffffffffffffffffffffffffffffffffffffffff1602179055508073ffffffffffffffffffffffffffffffffffffffff16634be9b707600360009054906101000a900473ffffffffffffffffffffffffffffffffffffffff1673ffffffffffffffffffffffffffffffffffffffff16632b804ee46040518163ffffffff1660e01b8152600401600060405180830381865afa158015620008b7573d6000803e3d6000fd5b505050506040513d6000823e3d601f19601f82011682018060405250810190620008e29190620019fb565b6040518263ffffffff1660e01b81526004016200090091906200122a565b600060405180830381600087803b1580156200091b57600080fd5b505af115801562000930573d6000803e3d6000fd5b505050505050505050505050565b6040516020016200094f906200189e565b60405160208183030381529060405280519060200120620009708162000b51565b85855114620009b6576040517f08c379a0000000000000000000000000000000000000000000000000000000008152600401620009ad9062001c88565b60405180910390fd5b620009c18662000d60565b92506000888888878787604051620009d99062000e92565b620009ea9695949392919062001b78565b604051809103906000f08015801562000a07573d6000803e3d6000fd5b5090507f73ed91ec876a6ef07b2d4bbd36371e6eb6c5269d213084d4ff40ade4e3564f7a813060405162000a3d92919062001be5565b60405180910390a18073ffffffffffffffffffffffffffffffffffffffff16634be9b707876040518263ffffffff1660e01b815260040162000a8091906200122a565b600060405180830381600087803b15801562000a9b57600080fd5b505af115801562000ab0573d6000803e3d6000fd5b50505050505050505050505050565b62000aca826200034a565b62000ad58162000b51565b62000ae1838362000c68565b50505050565b60007f01ffc9a7000000000000000000000000000000000000000000000000000000007bffffffffffffffffffffffffffffffffffffffffffffffffffffffff1916827bffffffffffffffffffffffffffffffffffffffffffffffffffffffff1916149050919050565b62000b668162000b6062000c60565b62000e3c565b50565b600062000b77838362000527565b62000c5557600160008085815260200190815260200160002060000160008473ffffffffffffffffffffffffffffffffffffffff1673ffffffffffffffffffffffffffffffffffffffff16815260200190815260200160002060006101000a81548160ff02191690831515021790555062000bf162000c60565b73ffffffffffffffffffffffffffffffffffffffff168273ffffffffffffffffffffffffffffffffffffffff16847f2f8788117e7eff1d82e926ec794901d17c78024a50270940304540a733656f0d60405160405180910390a46001905062000c5a565b600090505b92915050565b600033905090565b600062000c76838362000527565b1562000d5557600080600085815260200190815260200160002060000160008473ffffffffffffffffffffffffffffffffffffffff1673ffffffffffffffffffffffffffffffffffffffff16815260200190815260200160002060006101000a81548160ff02191690831515021790555062000cf162000c60565b73ffffffffffffffffffffffffffffffffffffffff168273ffffffffffffffffffffffffffffffffffffffff16847ff6391f5c32d9c69d2a47ea670b442974b53935d1edc7fd64eb21e047a839171b60405160405180910390a46001905062000d5a565b600090505b92915050565b60008066038d7ea4c680009050620186a0831062000dab5760646023828562000d8a919062001cd9565b62000d96919062001cd9565b62000da2919062001d53565b91505062000e37565b612710831062000de85760646032828562000dc7919062001cd9565b62000dd3919062001cd9565b62000ddf919062001d53565b91505062000e37565b6103e8831062000e255760646050828562000e04919062001cd9565b62000e10919062001cd9565b62000e1c919062001d53565b91505062000e37565b808362000e33919062001cd9565b9150505b919050565b62000e48828262000527565b62000e8e5780826040517fe2517d3f00000000000000000000000000000000000000000000000000000000815260040162000e8592919062001d8b565b60405180910390fd5b5050565b611cce8062001db983390190565b6000604051905090565b600080fd5b600080fd5b60007fffffffff0000000000000000000000000000000000000000000000000000000082169050919050565b62000eeb8162000eb4565b811462000ef757600080fd5b50565b60008135905062000f0b8162000ee0565b92915050565b60006020828403121562000f2a5762000f2962000eaa565b5b600062000f3a8482850162000efa565b91505092915050565b60008115159050919050565b62000f5a8162000f43565b82525050565b600060208201905062000f77600083018462000f4f565b92915050565b600073ffffffffffffffffffffffffffffffffffffffff82169050919050565b6000819050919050565b600062000fc862000fc262000fbc8462000f7d565b62000f9d565b62000f7d565b9050919050565b600062000fdc8262000fa7565b9050919050565b600062000ff08262000fcf565b9050919050565b620010028162000fe3565b82525050565b60006020820190506200101f600083018462000ff7565b92915050565b6000819050919050565b6200103a8162001025565b81146200104657600080fd5b50565b6000813590506200105a816200102f565b92915050565b60006020828403121562001079576200107862000eaa565b5b6000620010898482850162001049565b91505092915050565b6200109d8162001025565b82525050565b6000602082019050620010ba600083018462001092565b92915050565b600081519050919050565b600082825260208201905092915050565b6000819050602082019050919050565b600081519050919050565b600082825260208201905092915050565b60005b83811015620011285780820151818401526020810190506200110b565b60008484015250505050565b6000601f19601f8301169050919050565b60006200115282620010ec565b6200115e8185620010f7565b93506200117081856020860162001108565b6200117b8162001134565b840191505092915050565b600062001194838362001145565b905092915050565b6000602082019050919050565b6000620011b682620010c0565b620011c28185620010cb565b935083602082028501620011d685620010dc565b8060005b85811015620012185784840389528151620011f6858262001186565b945062001203836200119c565b925060208a01995050600181019050620011da565b50829750879550505050505092915050565b60006020820190508181036000830152620012468184620011a9565b905092915050565b60006200125b8262000f7d565b9050919050565b6200126d816200124e565b81146200127957600080fd5b50565b6000813590506200128d8162001262565b92915050565b60008060408385031215620012ad57620012ac62000eaa565b5b6000620012bd8582860162001049565b9250506020620012d0858286016200127c565b9150509250929050565b6000819050919050565b620012ef81620012da565b8114620012fb57600080fd5b50565b6000813590506200130f81620012e4565b92915050565b6000602082840312156200132e576200132d62000eaa565b5b60006200133e84828501620012fe565b91505092915050565b600082825260208201905092915050565b60006200136582620010ec565b62001371818562001347565b93506200138381856020860162001108565b6200138e8162001134565b840191505092915050565b60006020820190508181036000830152620013b5818462001358565b905092915050565b60008060008060008060c08789031215620013dd57620013dc62000eaa565b5b6000620013ed89828a016200127c565b96505060206200140089828a016200127c565b95505060406200141389828a01620012fe565b94505060606200142689828a016200127c565b93505060806200143989828a01620012fe565b92505060a06200144c89828a01620012fe565b9150509295509295509295565b600080fd5b7f4e487b7100000000000000000000000000000000000000000000000000000000600052604160045260246000fd5b620014988262001134565b810181811067ffffffffffffffff82111715620014ba57620014b96200145e565b5b80604052505050565b6000620014cf62000ea0565b9050620014dd82826200148d565b919050565b600067ffffffffffffffff8211156200150057620014ff6200145e565b5b602082029050602081019050919050565b600080fd5b600080fd5b600067ffffffffffffffff8211156200153957620015386200145e565b5b620015448262001134565b9050602081019050919050565b82818337600083830152505050565b60006200157762001571846200151b565b620014c3565b90508281526020810184848401111562001596576200159562001516565b5b620015a384828562001551565b509392505050565b600082601f830112620015c357620015c262001459565b5b8135620015d584826020860162001560565b91505092915050565b6000620015f5620015ef84620014e2565b620014c3565b905080838252602082019050602084028301858111156200161b576200161a62001511565b5b835b818110156200166957803567ffffffffffffffff81111562001644576200164362001459565b5b808601620016538982620015ab565b855260208501945050506020810190506200161d565b5050509392505050565b600082601f8301126200168b576200168a62001459565b5b81356200169d848260208601620015de565b91505092915050565b600080600080600080600060e0888a031215620016c857620016c762000eaa565b5b6000620016d88a828b016200127c565b9750506020620016eb8a828b016200127c565b9650506040620016fe8a828b01620012fe565b955050606088013567ffffffffffffffff81111562001722576200172162000eaf565b5b620017308a828b0162001673565b9450506080620017438a828b016200127c565b93505060a0620017568a828b01620012fe565b92505060c0620017698a828b01620012fe565b91505092959891949750929550565b600081905092915050565b7f41444d494e000000000000000000000000000000000000000000000000000000600082015250565b6000620017bb60058362001778565b9150620017c88262001783565b600582019050919050565b6000620017e082620017ac565b9150819050919050565b7f4e487b7100000000000000000000000000000000000000000000000000000000600052602260045260246000fd5b600060028204905060018216806200183257607f821691505b602082108103620018485762001847620017ea565b5b50919050565b7f504152544e455200000000000000000000000000000000000000000000000000600082015250565b60006200188660078362001778565b915062001893826200184e565b600782019050919050565b6000620018ab8262001877565b9150819050919050565b6000620018cc620018c6846200151b565b620014c3565b905082815260208101848484011115620018eb57620018ea62001516565b5b620018f884828562001108565b509392505050565b600082601f83011262001918576200191762001459565b5b81516200192a848260208601620018b5565b91505092915050565b60006200194a6200194484620014e2565b620014c3565b9050808382526020820190506020840283018581111562001970576200196f62001511565b5b835b81811015620019be57805167ffffffffffffffff81111562001999576200199862001459565b5b808601620019a8898262001900565b8552602085019450505060208101905062001972565b5050509392505050565b600082601f830112620019e057620019df62001459565b5b8151620019f284826020860162001933565b91505092915050565b60006020828403121562001a145762001a1362000eaa565b5b600082015167ffffffffffffffff81111562001a355762001a3462000eaf565b5b62001a4384828501620019c8565b91505092915050565b7f4469737075746520636173657320646f65736e2774206d61746368206469737060008201527f75746520636173657320616772656564207c7c2052657472696576696e67206460208201527f6973707574652063617365732066726f6d20636f6e7472616374206661696c6560408201527f642c20706c65617365207265766973652067657444697370757465436173657360608201527f28292066756e6374696f6e000000000000000000000000000000000000000000608082015250565b600062001b1c608b8362001347565b915062001b298262001a4c565b60a082019050919050565b6000602082019050818103600083015262001b4f8162001b0d565b9050919050565b62001b61816200124e565b82525050565b62001b7281620012da565b82525050565b600060c08201905062001b8f600083018962001b56565b62001b9e602083018862001b56565b62001bad604083018762001b67565b62001bbc606083018662001b56565b62001bcb608083018562001b67565b62001bda60a083018462001b67565b979650505050505050565b600060408201905062001bfc600083018562001b56565b62001c0b602083018462001b56565b9392505050565b7f4469737075746520636173657320646f65736e2774206d61746368206469737060008201527f7574652063617365732061677265656400000000000000000000000000000000602082015250565b600062001c7060308362001347565b915062001c7d8262001c12565b604082019050919050565b6000602082019050818103600083015262001ca38162001c61565b9050919050565b7f4e487b7100000000000000000000000000000000000000000000000000000000600052601160045260246000fd5b600062001ce682620012da565b915062001cf383620012da565b925082820262001d0381620012da565b9150828204841483151762001d1d5762001d1c62001caa565b5b5092915050565b7f4e487b7100000000000000000000000000000000000000000000000000000000600052601260045260246000fd5b600062001d6082620012da565b915062001d6d83620012da565b92508262001d805762001d7f62001d24565b5b828204905092915050565b600060408201905062001da2600083018562001b56565b62001db1602083018462001092565b939250505056fe60806040523480156200001157600080fd5b5060405162001cce38038062001cce83398181016040528101906200003791906200020d565b336000806101000a81548173ffffffffffffffffffffffffffffffffffffffff021916908373ffffffffffffffffffffffffffffffffffffffff16021790555085600160006101000a81548173ffffffffffffffffffffffffffffffffffffffff021916908373ffffffffffffffffffffffffffffffffffffffff16021790555084600260006101000a81548173ffffffffffffffffffffffffffffffffffffffff021916908373ffffffffffffffffffffffffffffffffffffffff1602179055508360038190555082600760006101000a81548173ffffffffffffffffffffffffffffffffffffffff021916908373ffffffffffffffffffffffffffffffffffffffff160217905550816005819055508042620001569190620002d8565b60088190555050505050505062000313565b600080fd5b600073ffffffffffffffffffffffffffffffffffffffff82169050919050565b60006200019a826200016d565b9050919050565b620001ac816200018d565b8114620001b857600080fd5b50565b600081519050620001cc81620001a1565b92915050565b6000819050919050565b620001e781620001d2565b8114620001f357600080fd5b50565b6000815190506200020781620001dc565b92915050565b60008060008060008060c087890312156200022d576200022c62000168565b5b60006200023d89828a01620001bb565b96505060206200025089828a01620001bb565b95505060406200026389828a01620001f6565b94505060606200027689828a01620001bb565b93505060806200028989828a01620001f6565b92505060a06200029c89828a01620001f6565b9150509295509295509295565b7f4e487b7100000000000000000000000000000000000000000000000000000000600052601160045260246000fd5b6000620002e582620001d2565b9150620002f283620001d2565b92508282019050808211156200030d576200030c620002a9565b5b92915050565b6119ab80620003236000396000f3fe608060405234801561001057600080fd5b50600436106100cf5760003560e01c8063aa93b1b31161008c578063be34d4c111610066578063be34d4c1146101dc578063c52f2e08146101fa578063e1f6c09814610218578063fc0c546a14610236576100cf565b8063aa93b1b314610170578063ae90b2131461018e578063b95d387b146101ac576100cf565b80630a3f013f146100d4578063123119cd146100f25780633b76594d14610110578063419791441461012c5780634be9b7071461014a57806369d8957514610166575b600080fd5b6100dc610254565b6040516100e99190610c22565b60405180910390f35b6100fa61025a565b6040516101079190610c7e565b60405180910390f35b61012a60048036038101906101259190610cd9565b610280565b005b6101346104c7565b6040516101419190610c22565b60405180910390f35b610164600480360381019061015f9190610f32565b6104cd565b005b61016e610577565b005b6101786106e3565b6040516101859190610c22565b60405180910390f35b6101966106e9565b6040516101a39190610c7e565b60405180910390f35b6101c660048036038101906101c19190610cd9565b61070f565b6040516101d39190610ffa565b60405180910390f35b6101e46107bb565b6040516101f19190610c22565b60405180910390f35b6102026107c1565b60405161020f9190611037565b60405180910390f35b6102206107d4565b60405161022d9190610c7e565b60405180910390f35b61023e6107f8565b60405161024b91906110b1565b60405180910390f35b60085481565b600160009054906101000a900473ffffffffffffffffffffffffffffffffffffffff1681565b600160009054906101000a900473ffffffffffffffffffffffffffffffffffffffff1673ffffffffffffffffffffffffffffffffffffffff163373ffffffffffffffffffffffffffffffffffffffff1614610310576040517f08c379a000000000000000000000000000000000000000000000000000000000815260040161030790611118565b60405180910390fd5b600960009054906101000a900460ff1615610360576040517f08c379a000000000000000000000000000000000000000000000000000000000815260040161035790611184565b60405180910390fd5b80600554146103a4576040517f08c379a000000000000000000000000000000000000000000000000000000000815260040161039b90611216565b60405180910390fd5b6001600960006101000a81548160ff021916908315150217905550600760009054906101000a900473ffffffffffffffffffffffffffffffffffffffff1673ffffffffffffffffffffffffffffffffffffffff166323b872dd600160009054906101000a900473ffffffffffffffffffffffffffffffffffffffff16306006546040518463ffffffff1660e01b815260040161044293929190611236565b6020604051808303816000875af1158015610461573d6000803e3d6000fd5b505050506040513d601f19601f820116820180604052508101906104859190611299565b6104c4576040517f08c379a00000000000000000000000000000000000000000000000000000000081526004016104bb90611312565b60405180910390fd5b50565b60065481565b600260009054906101000a900473ffffffffffffffffffffffffffffffffffffffff1673ffffffffffffffffffffffffffffffffffffffff163373ffffffffffffffffffffffffffffffffffffffff161461055d576040517f08c379a000000000000000000000000000000000000000000000000000000000815260040161055490611118565b60405180910390fd5b8060049080519060200190610573929190610b2f565b5050565b60008054906101000a900473ffffffffffffffffffffffffffffffffffffffff1673ffffffffffffffffffffffffffffffffffffffff163373ffffffffffffffffffffffffffffffffffffffff1614610605576040517f08c379a00000000000000000000000000000000000000000000000000000000081526004016105fc90611118565b60405180910390fd5b600960009054906101000a900460ff16610654576040517f08c379a000000000000000000000000000000000000000000000000000000000815260040161064b9061137e565b60405180910390fd5b600854421015610699576040517f08c379a0000000000000000000000000000000000000000000000000000000008152600401610690906113ea565b60405180910390fd5b600960009054906101000a900460ff1680156106b757506008544210155b156106e157600354600480549050036106d7576106d261081e565b6106e0565b6106df61097f565b5b5b565b60035481565b600260009054906101000a900473ffffffffffffffffffffffffffffffffffffffff1681565b6004818154811061071f57600080fd5b90600052602060002001600091509050805461073a90611439565b80601f016020809104026020016040519081016040528092919081815260200182805461076690611439565b80156107b35780601f10610788576101008083540402835291602001916107b3565b820191906000526020600020905b81548152906001019060200180831161079657829003601f168201915b505050505081565b60055481565b600960009054906101000a900460ff1681565b60008054906101000a900473ffffffffffffffffffffffffffffffffffffffff1681565b600760009054906101000a900473ffffffffffffffffffffffffffffffffffffffff1681565b600760009054906101000a900473ffffffffffffffffffffffffffffffffffffffff1673ffffffffffffffffffffffffffffffffffffffff1663a9059cbb600260009054906101000a900473ffffffffffffffffffffffffffffffffffffffff166006546040518363ffffffff1660e01b815260040161089f92919061146a565b6020604051808303816000875af11580156108be573d6000803e3d6000fd5b505050506040513d601f19601f820116820180604052508101906108e29190611299565b610921576040517f08c379a0000000000000000000000000000000000000000000000000000000008152600401610918906114df565b60405180910390fd5b6000600960006101000a81548160ff02191690831515021790555060006006819055506040517f08c379a000000000000000000000000000000000000000000000000000000000815260040161097690611597565b60405180910390fd5b600960009054906101000a900460ff166109ce576040517f08c379a00000000000000000000000000000000000000000000000000000000081526004016109c59061137e565b60405180910390fd5b600760009054906101000a900473ffffffffffffffffffffffffffffffffffffffff1673ffffffffffffffffffffffffffffffffffffffff1663a9059cbb600160009054906101000a900473ffffffffffffffffffffffffffffffffffffffff166006546040518363ffffffff1660e01b8152600401610a4f92919061146a565b6020604051808303816000875af1158015610a6e573d6000803e3d6000fd5b505050506040513d601f19601f82011682018060405250810190610a929190611299565b610ad1576040517f08c379a0000000000000000000000000000000000000000000000000000000008152600401610ac890611603565b60405180910390fd5b6000600960006101000a81548160ff02191690831515021790555060006006819055506040517f08c379a0000000000000000000000000000000000000000000000000000000008152600401610b26906116e1565b60405180910390fd5b828054828255906000526020600020908101928215610b77579160200282015b82811115610b76578251829081610b6691906118a3565b5091602001919060010190610b4f565b5b509050610b849190610b88565b5090565b5b80821115610ba85760008181610b9f9190610bac565b50600101610b89565b5090565b508054610bb890611439565b6000825580601f10610bca5750610be9565b601f016020900490600052602060002090810190610be89190610bec565b5b50565b5b80821115610c05576000816000905550600101610bed565b5090565b6000819050919050565b610c1c81610c09565b82525050565b6000602082019050610c376000830184610c13565b92915050565b600073ffffffffffffffffffffffffffffffffffffffff82169050919050565b6000610c6882610c3d565b9050919050565b610c7881610c5d565b82525050565b6000602082019050610c936000830184610c6f565b92915050565b6000604051905090565b600080fd5b600080fd5b610cb681610c09565b8114610cc157600080fd5b50565b600081359050610cd381610cad565b92915050565b600060208284031215610cef57610cee610ca3565b5b6000610cfd84828501610cc4565b91505092915050565b600080fd5b6000601f19601f8301169050919050565b7f4e487b7100000000000000000000000000000000000000000000000000000000600052604160045260246000fd5b610d5482610d0b565b810181811067ffffffffffffffff82111715610d7357610d72610d1c565b5b80604052505050565b6000610d86610c99565b9050610d928282610d4b565b919050565b600067ffffffffffffffff821115610db257610db1610d1c565b5b602082029050602081019050919050565b600080fd5b600080fd5b600067ffffffffffffffff821115610de857610de7610d1c565b5b610df182610d0b565b9050602081019050919050565b82818337600083830152505050565b6000610e20610e1b84610dcd565b610d7c565b905082815260208101848484011115610e3c57610e3b610dc8565b5b610e47848285610dfe565b509392505050565b600082601f830112610e6457610e63610d06565b5b8135610e74848260208601610e0d565b91505092915050565b6000610e90610e8b84610d97565b610d7c565b90508083825260208201905060208402830185811115610eb357610eb2610dc3565b5b835b81811015610efa57803567ffffffffffffffff811115610ed857610ed7610d06565b5b808601610ee58982610e4f565b85526020850194505050602081019050610eb5565b5050509392505050565b600082601f830112610f1957610f18610d06565b5b8135610f29848260208601610e7d565b91505092915050565b600060208284031215610f4857610f47610ca3565b5b600082013567ffffffffffffffff811115610f6657610f65610ca8565b5b610f7284828501610f04565b91505092915050565b600081519050919050565b600082825260208201905092915050565b60005b83811015610fb5578082015181840152602081019050610f9a565b60008484015250505050565b6000610fcc82610f7b565b610fd68185610f86565b9350610fe6818560208601610f97565b610fef81610d0b565b840191505092915050565b600060208201905081810360008301526110148184610fc1565b905092915050565b60008115159050919050565b6110318161101c565b82525050565b600060208201905061104c6000830184611028565b92915050565b6000819050919050565b600061107761107261106d84610c3d565b611052565b610c3d565b9050919050565b60006110898261105c565b9050919050565b600061109b8261107e565b9050919050565b6110ab81611090565b82525050565b60006020820190506110c660008301846110a2565b92915050565b7f6e6f7420617574686f72697a6564000000000000000000000000000000000000600082015250565b6000611102600e83610f86565b915061110d826110cc565b602082019050919050565b60006020820190508181036000830152611131816110f5565b9050919050565b7f46756e647320616c7265616479206465706f7369746564000000000000000000600082015250565b600061116e601783610f86565b915061117982611138565b602082019050919050565b6000602082019050818103600083015261119d81611161565b9050919050565b7f43757272656e742066756e647320646f65736e2774206d6174636820696e697460008201527f69616c206167726565642066756e647300000000000000000000000000000000602082015250565b6000611200603083610f86565b915061120b826111a4565b604082019050919050565b6000602082019050818103600083015261122f816111f3565b9050919050565b600060608201905061124b6000830186610c6f565b6112586020830185610c6f565b6112656040830184610c13565b949350505050565b6112768161101c565b811461128157600080fd5b50565b6000815190506112938161126d565b92915050565b6000602082840312156112af576112ae610ca3565b5b60006112bd84828501611284565b91505092915050565b7f546f6b656e73206465706f736974206661696c65640000000000000000000000600082015250565b60006112fc601583610f86565b9150611307826112c6565b602082019050919050565b6000602082019050818103600083015261132b816112ef565b9050919050565b7f4e6f2066756e6473206465706f73697465640000000000000000000000000000600082015250565b6000611368601283610f86565b915061137382611332565b602082019050919050565b600060208201905081810360008301526113978161135b565b9050919050565b7f46756e647320617265207374696c6c2068656c64000000000000000000000000600082015250565b60006113d4601483610f86565b91506113df8261139e565b602082019050919050565b60006020820190508181036000830152611403816113c7565b9050919050565b7f4e487b7100000000000000000000000000000000000000000000000000000000600052602260045260246000fd5b6000600282049050600182168061145157607f821691505b6020821081036114645761146361140a565b5b50919050565b600060408201905061147f6000830185610c6f565b61148c6020830184610c13565b9392505050565b7f46756e64732072656c65617365206661696c6564000000000000000000000000600082015250565b60006114c9601483610f86565b91506114d482611493565b602082019050919050565b600060208201905081810360008301526114f8816114bc565b9050919050565b7f4465706f73697465642064697370757465206361736573206d6174636820696e60008201527f697469616c2061677265656420646973707574652063617365732c2066756e6460208201527f73206172652073656e7420746f20706179656500000000000000000000000000604082015250565b6000611581605383610f86565b915061158c826114ff565b606082019050919050565b600060208201905081810360008301526115b081611574565b9050919050565b7f46756e64732072657475726e206661696c656400000000000000000000000000600082015250565b60006115ed601383610f86565b91506115f8826115b7565b602082019050919050565b6000602082019050818103600083015261161c816115e0565b9050919050565b7f4465706f73697465642064697370757465206361736573206469646e2774206d60008201527f6174636820696e697469616c206167726565642064697370757465206361736560208201527f732c2066756e6473206172652072657475726e6564206261636b20746f20706160408201527f7965720000000000000000000000000000000000000000000000000000000000606082015250565b60006116cb606383610f86565b91506116d682611623565b608082019050919050565b600060208201905081810360008301526116fa816116be565b9050919050565b60008190508160005260206000209050919050565b60006020601f8301049050919050565b600082821b905092915050565b6000600883026117637fffffffffffffffffffffffffffffffffffffffffffffffffffffffffffffffff82611726565b61176d8683611726565b95508019841693508086168417925050509392505050565b60006117a061179b61179684610c09565b611052565b610c09565b9050919050565b6000819050919050565b6117ba83611785565b6117ce6117c6826117a7565b848454611733565b825550505050565b600090565b6117e36117d6565b6117ee8184846117b1565b505050565b5b81811015611812576118076000826117db565b6001810190506117f4565b5050565b601f8211156118575761182881611701565b61183184611716565b81016020851015611840578190505b61185461184c85611716565b8301826117f3565b50505b505050565b600082821c905092915050565b600061187a6000198460080261185c565b1980831691505092915050565b60006118938383611869565b9150826002028217905092915050565b6118ac82610f7b565b67ffffffffffffffff8111156118c5576118c4610d1c565b5b6118cf8254611439565b6118da828285611816565b600060209050601f83116001811461190d57600084156118fb578287015190505b6119058582611887565b86555061196d565b601f19841661191b86611701565b60005b828110156119435784890151825560018201915060208501945060208101905061191e565b86831015611960578489015161195c601f891682611869565b8355505b6001600288020188555050505b50505050505056fea2646970667358221220f62938d093b4b2d0d4cbde4502248ff1333aaf4bcbbe60978f44024510f0c65964736f6c63430008180033a2646970667358221220d4462b859ffcfd865b64650371267f0406efaa323e677414dcc936d08c44f41e64736f6c63430008180033",
          "opcodes": "PUSH1 0x80 PUSH1 0x40 MSTORE CALLVALUE DUP1 ISZERO PUSH3 0x11 JUMPI PUSH1 0x0 DUP1 REVERT JUMPDEST POP PUSH1 0x40 MLOAD PUSH3 0x3EE6 CODESIZE SUB DUP1 PUSH3 0x3EE6 DUP4 CODECOPY DUP2 DUP2 ADD PUSH1 0x40 MSTORE DUP2 ADD SWAP1 PUSH3 0x37 SWAP2 SWAP1 PUSH3 0x376 JUMP JUMPDEST DUP1 PUSH1 0x1 PUSH1 0x0 PUSH2 0x100 EXP DUP2 SLOAD DUP2 PUSH20 0xFFFFFFFFFFFFFFFFFFFFFFFFFFFFFFFFFFFFFFFF MUL NOT AND SWAP1 DUP4 PUSH20 0xFFFFFFFFFFFFFFFFFFFFFFFFFFFFFFFFFFFFFFFF AND MUL OR SWAP1 SSTORE POP PUSH3 0xB3 PUSH1 0x0 DUP1 SHL PUSH1 0x40 MLOAD PUSH1 0x20 ADD PUSH3 0x91 SWAP1 PUSH3 0x403 JUMP JUMPDEST PUSH1 0x40 MLOAD PUSH1 0x20 DUP2 DUP4 SUB SUB DUP2 MSTORE SWAP1 PUSH1 0x40 MSTORE DUP1 MLOAD SWAP1 PUSH1 0x20 ADD KECCAK256 PUSH3 0x115 PUSH1 0x20 SHL PUSH1 0x20 SHR JUMP JUMPDEST PUSH3 0x10D PUSH1 0x40 MLOAD PUSH1 0x20 ADD PUSH3 0xC8 SWAP1 PUSH3 0x403 JUMP JUMPDEST PUSH1 0x40 MLOAD PUSH1 0x20 DUP2 DUP4 SUB SUB DUP2 MSTORE SWAP1 PUSH1 0x40 MSTORE DUP1 MLOAD SWAP1 PUSH1 0x20 ADD KECCAK256 PUSH1 0x1 PUSH1 0x0 SWAP1 SLOAD SWAP1 PUSH2 0x100 EXP SWAP1 DIV PUSH20 0xFFFFFFFFFFFFFFFFFFFFFFFFFFFFFFFFFFFFFFFF AND PUSH3 0x178 PUSH1 0x20 SHL PUSH1 0x20 SHR JUMP JUMPDEST POP POP PUSH3 0x41A JUMP JUMPDEST PUSH1 0x0 PUSH3 0x128 DUP4 PUSH3 0x27B PUSH1 0x20 SHL PUSH1 0x20 SHR JUMP JUMPDEST SWAP1 POP DUP2 PUSH1 0x0 DUP1 DUP6 DUP2 MSTORE PUSH1 0x20 ADD SWAP1 DUP2 MSTORE PUSH1 0x20 ADD PUSH1 0x0 KECCAK256 PUSH1 0x1 ADD DUP2 SWAP1 SSTORE POP DUP2 DUP2 DUP5 PUSH32 0xBD79B86FFE0AB8E8776151514217CD7CACD52C909F66475C3AF44E129F0B00FF PUSH1 0x40 MLOAD PUSH1 0x40 MLOAD DUP1 SWAP2 SUB SWAP1 LOG4 POP POP POP JUMP JUMPDEST PUSH1 0x0 PUSH3 0x18C DUP4 DUP4 PUSH3 0x29A PUSH1 0x20 SHL PUSH1 0x20 SHR JUMP JUMPDEST PUSH3 0x270 JUMPI PUSH1 0x1 PUSH1 0x0 DUP1 DUP6 DUP2 MSTORE PUSH1 0x20 ADD SWAP1 DUP2 MSTORE PUSH1 0x20 ADD PUSH1 0x0 KECCAK256 PUSH1 0x0 ADD PUSH1 0x0 DUP5 PUSH20 0xFFFFFFFFFFFFFFFFFFFFFFFFFFFFFFFFFFFFFFFF AND PUSH20 0xFFFFFFFFFFFFFFFFFFFFFFFFFFFFFFFFFFFFFFFF AND DUP2 MSTORE PUSH1 0x20 ADD SWAP1 DUP2 MSTORE PUSH1 0x20 ADD PUSH1 0x0 KECCAK256 PUSH1 0x0 PUSH2 0x100 EXP DUP2 SLOAD DUP2 PUSH1 0xFF MUL NOT AND SWAP1 DUP4 ISZERO ISZERO MUL OR SWAP1 SSTORE POP PUSH3 0x20C PUSH3 0x304 PUSH1 0x20 SHL PUSH1 0x20 SHR JUMP JUMPDEST PUSH20 0xFFFFFFFFFFFFFFFFFFFFFFFFFFFFFFFFFFFFFFFF AND DUP3 PUSH20 0xFFFFFFFFFFFFFFFFFFFFFFFFFFFFFFFFFFFFFFFF AND DUP5 PUSH32 0x2F8788117E7EFF1D82E926EC794901D17C78024A50270940304540A733656F0D PUSH1 0x40 MLOAD PUSH1 0x40 MLOAD DUP1 SWAP2 SUB SWAP1 LOG4 PUSH1 0x1 SWAP1 POP PUSH3 0x275 JUMP JUMPDEST PUSH1 0x0 SWAP1 POP JUMPDEST SWAP3 SWAP2 POP POP JUMP JUMPDEST PUSH1 0x0 DUP1 PUSH1 0x0 DUP4 DUP2 MSTORE PUSH1 0x20 ADD SWAP1 DUP2 MSTORE PUSH1 0x20 ADD PUSH1 0x0 KECCAK256 PUSH1 0x1 ADD SLOAD SWAP1 POP SWAP2 SWAP1 POP JUMP JUMPDEST PUSH1 0x0 DUP1 PUSH1 0x0 DUP5 DUP2 MSTORE PUSH1 0x20 ADD SWAP1 DUP2 MSTORE PUSH1 0x20 ADD PUSH1 0x0 KECCAK256 PUSH1 0x0 ADD PUSH1 0x0 DUP4 PUSH20 0xFFFFFFFFFFFFFFFFFFFFFFFFFFFFFFFFFFFFFFFF AND PUSH20 0xFFFFFFFFFFFFFFFFFFFFFFFFFFFFFFFFFFFFFFFF AND DUP2 MSTORE PUSH1 0x20 ADD SWAP1 DUP2 MSTORE PUSH1 0x20 ADD PUSH1 0x0 KECCAK256 PUSH1 0x0 SWAP1 SLOAD SWAP1 PUSH2 0x100 EXP SWAP1 DIV PUSH1 0xFF AND SWAP1 POP SWAP3 SWAP2 POP POP JUMP JUMPDEST PUSH1 0x0 CALLER SWAP1 POP SWAP1 JUMP JUMPDEST PUSH1 0x0 DUP1 REVERT JUMPDEST PUSH1 0x0 PUSH20 0xFFFFFFFFFFFFFFFFFFFFFFFFFFFFFFFFFFFFFFFF DUP3 AND SWAP1 POP SWAP2 SWAP1 POP JUMP JUMPDEST PUSH1 0x0 PUSH3 0x33E DUP3 PUSH3 0x311 JUMP JUMPDEST SWAP1 POP SWAP2 SWAP1 POP JUMP JUMPDEST PUSH3 0x350 DUP2 PUSH3 0x331 JUMP JUMPDEST DUP2 EQ PUSH3 0x35C JUMPI PUSH1 0x0 DUP1 REVERT JUMPDEST POP JUMP JUMPDEST PUSH1 0x0 DUP2 MLOAD SWAP1 POP PUSH3 0x370 DUP2 PUSH3 0x345 JUMP JUMPDEST SWAP3 SWAP2 POP POP JUMP JUMPDEST PUSH1 0x0 PUSH1 0x20 DUP3 DUP5 SUB SLT ISZERO PUSH3 0x38F JUMPI PUSH3 0x38E PUSH3 0x30C JUMP JUMPDEST JUMPDEST PUSH1 0x0 PUSH3 0x39F DUP5 DUP3 DUP6 ADD PUSH3 0x35F JUMP JUMPDEST SWAP2 POP POP SWAP3 SWAP2 POP POP JUMP JUMPDEST PUSH1 0x0 DUP2 SWAP1 POP SWAP3 SWAP2 POP POP JUMP JUMPDEST PUSH32 0x41444D494E000000000000000000000000000000000000000000000000000000 PUSH1 0x0 DUP3 ADD MSTORE POP JUMP JUMPDEST PUSH1 0x0 PUSH3 0x3EB PUSH1 0x5 DUP4 PUSH3 0x3A8 JUMP JUMPDEST SWAP2 POP PUSH3 0x3F8 DUP3 PUSH3 0x3B3 JUMP JUMPDEST PUSH1 0x5 DUP3 ADD SWAP1 POP SWAP2 SWAP1 POP JUMP JUMPDEST PUSH1 0x0 PUSH3 0x410 DUP3 PUSH3 0x3DC JUMP JUMPDEST SWAP2 POP DUP2 SWAP1 POP SWAP2 SWAP1 POP JUMP JUMPDEST PUSH2 0x3ABC DUP1 PUSH3 0x42A PUSH1 0x0 CODECOPY PUSH1 0x0 RETURN INVALID PUSH1 0x80 PUSH1 0x40 MSTORE CALLVALUE DUP1 ISZERO PUSH3 0x11 JUMPI PUSH1 0x0 DUP1 REVERT JUMPDEST POP PUSH1 0x4 CALLDATASIZE LT PUSH3 0xC4 JUMPI PUSH1 0x0 CALLDATALOAD PUSH1 0xE0 SHR DUP1 PUSH4 0x91D14854 GT PUSH3 0x7B JUMPI DUP1 PUSH4 0x91D14854 EQ PUSH3 0x1B9 JUMPI DUP1 PUSH4 0xA217FDDF EQ PUSH3 0x1EF JUMPI DUP1 PUSH4 0xA4DE2F5C EQ PUSH3 0x211 JUMPI DUP1 PUSH4 0xA7A63CE4 EQ PUSH3 0x247 JUMPI DUP1 PUSH4 0xBF8402A0 EQ PUSH3 0x267 JUMPI DUP1 PUSH4 0xD547741F EQ PUSH3 0x287 JUMPI PUSH3 0xC4 JUMP JUMPDEST DUP1 PUSH4 0x1FFC9A7 EQ PUSH3 0xC9 JUMPI DUP1 PUSH4 0x633A042 EQ PUSH3 0xFF JUMPI DUP1 PUSH4 0x248A9CA3 EQ PUSH3 0x121 JUMPI DUP1 PUSH4 0x2B804EE4 EQ PUSH3 0x157 JUMPI DUP1 PUSH4 0x2F2FF15D EQ PUSH3 0x179 JUMPI DUP1 PUSH4 0x36568ABE EQ PUSH3 0x199 JUMPI JUMPDEST PUSH1 0x0 DUP1 REVERT JUMPDEST PUSH3 0xE7 PUSH1 0x4 DUP1 CALLDATASIZE SUB DUP2 ADD SWAP1 PUSH3 0xE1 SWAP2 SWAP1 PUSH3 0xF11 JUMP JUMPDEST PUSH3 0x2A7 JUMP JUMPDEST PUSH1 0x40 MLOAD PUSH3 0xF6 SWAP2 SWAP1 PUSH3 0xF60 JUMP JUMPDEST PUSH1 0x40 MLOAD DUP1 SWAP2 SUB SWAP1 RETURN JUMPDEST PUSH3 0x109 PUSH3 0x324 JUMP JUMPDEST PUSH1 0x40 MLOAD PUSH3 0x118 SWAP2 SWAP1 PUSH3 0x1008 JUMP JUMPDEST PUSH1 0x40 MLOAD DUP1 SWAP2 SUB SWAP1 RETURN JUMPDEST PUSH3 0x13F PUSH1 0x4 DUP1 CALLDATASIZE SUB DUP2 ADD SWAP1 PUSH3 0x139 SWAP2 SWAP1 PUSH3 0x1060 JUMP JUMPDEST PUSH3 0x34A JUMP JUMPDEST PUSH1 0x40 MLOAD PUSH3 0x14E SWAP2 SWAP1 PUSH3 0x10A3 JUMP JUMPDEST PUSH1 0x40 MLOAD DUP1 SWAP2 SUB SWAP1 RETURN JUMPDEST PUSH3 0x161 PUSH3 0x369 JUMP JUMPDEST PUSH1 0x40 MLOAD PUSH3 0x170 SWAP2 SWAP1 PUSH3 0x122A JUMP JUMPDEST PUSH1 0x40 MLOAD DUP1 SWAP2 SUB SWAP1 RETURN JUMPDEST PUSH3 0x197 PUSH1 0x4 DUP1 CALLDATASIZE SUB DUP2 ADD SWAP1 PUSH3 0x191 SWAP2 SWAP1 PUSH3 0x1293 JUMP JUMPDEST PUSH3 0x47F JUMP JUMPDEST STOP JUMPDEST PUSH3 0x1B7 PUSH1 0x4 DUP1 CALLDATASIZE SUB DUP2 ADD SWAP1 PUSH3 0x1B1 SWAP2 SWAP1 PUSH3 0x1293 JUMP JUMPDEST PUSH3 0x4A7 JUMP JUMPDEST STOP JUMPDEST PUSH3 0x1D7 PUSH1 0x4 DUP1 CALLDATASIZE SUB DUP2 ADD SWAP1 PUSH3 0x1D1 SWAP2 SWAP1 PUSH3 0x1293 JUMP JUMPDEST PUSH3 0x527 JUMP JUMPDEST PUSH1 0x40 MLOAD PUSH3 0x1E6 SWAP2 SWAP1 PUSH3 0xF60 JUMP JUMPDEST PUSH1 0x40 MLOAD DUP1 SWAP2 SUB SWAP1 RETURN JUMPDEST PUSH3 0x1F9 PUSH3 0x591 JUMP JUMPDEST PUSH1 0x40 MLOAD PUSH3 0x208 SWAP2 SWAP1 PUSH3 0x10A3 JUMP JUMPDEST PUSH1 0x40 MLOAD DUP1 SWAP2 SUB SWAP1 RETURN JUMPDEST PUSH3 0x22F PUSH1 0x4 DUP1 CALLDATASIZE SUB DUP2 ADD SWAP1 PUSH3 0x229 SWAP2 SWAP1 PUSH3 0x1315 JUMP JUMPDEST PUSH3 0x598 JUMP JUMPDEST PUSH1 0x40 MLOAD PUSH3 0x23E SWAP2 SWAP1 PUSH3 0x1399 JUMP JUMPDEST PUSH1 0x40 MLOAD DUP1 SWAP2 SUB SWAP1 RETURN JUMPDEST PUSH3 0x265 PUSH1 0x4 DUP1 CALLDATASIZE SUB DUP2 ADD SWAP1 PUSH3 0x25F SWAP2 SWAP1 PUSH3 0x13BD JUMP JUMPDEST PUSH3 0x64D JUMP JUMPDEST STOP JUMPDEST PUSH3 0x285 PUSH1 0x4 DUP1 CALLDATASIZE SUB DUP2 ADD SWAP1 PUSH3 0x27F SWAP2 SWAP1 PUSH3 0x16A6 JUMP JUMPDEST PUSH3 0x93E JUMP JUMPDEST STOP JUMPDEST PUSH3 0x2A5 PUSH1 0x4 DUP1 CALLDATASIZE SUB DUP2 ADD SWAP1 PUSH3 0x29F SWAP2 SWAP1 PUSH3 0x1293 JUMP JUMPDEST PUSH3 0xABF JUMP JUMPDEST STOP JUMPDEST PUSH1 0x0 PUSH32 0x7965DB0B00000000000000000000000000000000000000000000000000000000 PUSH28 0xFFFFFFFFFFFFFFFFFFFFFFFFFFFFFFFFFFFFFFFFFFFFFFFFFFFFFFFF NOT AND DUP3 PUSH28 0xFFFFFFFFFFFFFFFFFFFFFFFFFFFFFFFFFFFFFFFFFFFFFFFFFFFFFFFF NOT AND EQ DUP1 PUSH3 0x31D JUMPI POP PUSH3 0x31C DUP3 PUSH3 0xAE7 JUMP JUMPDEST JUMPDEST SWAP1 POP SWAP2 SWAP1 POP JUMP JUMPDEST PUSH1 0x3 PUSH1 0x0 SWAP1 SLOAD SWAP1 PUSH2 0x100 EXP SWAP1 DIV PUSH20 0xFFFFFFFFFFFFFFFFFFFFFFFFFFFFFFFFFFFFFFFF AND DUP2 JUMP JUMPDEST PUSH1 0x0 DUP1 PUSH1 0x0 DUP4 DUP2 MSTORE PUSH1 0x20 ADD SWAP1 DUP2 MSTORE PUSH1 0x20 ADD PUSH1 0x0 KECCAK256 PUSH1 0x1 ADD SLOAD SWAP1 POP SWAP2 SWAP1 POP JUMP JUMPDEST PUSH1 0x60 PUSH1 0x40 MLOAD PUSH1 0x20 ADD PUSH3 0x37C SWAP1 PUSH3 0x17D3 JUMP JUMPDEST PUSH1 0x40 MLOAD PUSH1 0x20 DUP2 DUP4 SUB SUB DUP2 MSTORE SWAP1 PUSH1 0x40 MSTORE DUP1 MLOAD SWAP1 PUSH1 0x20 ADD KECCAK256 PUSH3 0x39D DUP2 PUSH3 0xB51 JUMP JUMPDEST PUSH1 0x2 DUP1 SLOAD DUP1 PUSH1 0x20 MUL PUSH1 0x20 ADD PUSH1 0x40 MLOAD SWAP1 DUP2 ADD PUSH1 0x40 MSTORE DUP1 SWAP3 SWAP2 SWAP1 DUP2 DUP2 MSTORE PUSH1 0x20 ADD PUSH1 0x0 SWAP1 JUMPDEST DUP3 DUP3 LT ISZERO PUSH3 0x475 JUMPI DUP4 DUP3 SWAP1 PUSH1 0x0 MSTORE PUSH1 0x20 PUSH1 0x0 KECCAK256 ADD DUP1 SLOAD PUSH3 0x3E1 SWAP1 PUSH3 0x1819 JUMP JUMPDEST DUP1 PUSH1 0x1F ADD PUSH1 0x20 DUP1 SWAP2 DIV MUL PUSH1 0x20 ADD PUSH1 0x40 MLOAD SWAP1 DUP2 ADD PUSH1 0x40 MSTORE DUP1 SWAP3 SWAP2 SWAP1 DUP2 DUP2 MSTORE PUSH1 0x20 ADD DUP3 DUP1 SLOAD PUSH3 0x40F SWAP1 PUSH3 0x1819 JUMP JUMPDEST DUP1 ISZERO PUSH3 0x460 JUMPI DUP1 PUSH1 0x1F LT PUSH3 0x434 JUMPI PUSH2 0x100 DUP1 DUP4 SLOAD DIV MUL DUP4 MSTORE SWAP2 PUSH1 0x20 ADD SWAP2 PUSH3 0x460 JUMP JUMPDEST DUP3 ADD SWAP2 SWAP1 PUSH1 0x0 MSTORE PUSH1 0x20 PUSH1 0x0 KECCAK256 SWAP1 JUMPDEST DUP2 SLOAD DUP2 MSTORE SWAP1 PUSH1 0x1 ADD SWAP1 PUSH1 0x20 ADD DUP1 DUP4 GT PUSH3 0x442 JUMPI DUP3 SWAP1 SUB PUSH1 0x1F AND DUP3 ADD SWAP2 JUMPDEST POP POP POP POP POP DUP2 MSTORE PUSH1 0x20 ADD SWAP1 PUSH1 0x1 ADD SWAP1 PUSH3 0x3BF JUMP JUMPDEST POP POP POP POP SWAP2 POP POP SWAP1 JUMP JUMPDEST PUSH3 0x48A DUP3 PUSH3 0x34A JUMP JUMPDEST PUSH3 0x495 DUP2 PUSH3 0xB51 JUMP JUMPDEST PUSH3 0x4A1 DUP4 DUP4 PUSH3 0xB69 JUMP JUMPDEST POP POP POP POP JUMP JUMPDEST PUSH3 0x4B1 PUSH3 0xC60 JUMP JUMPDEST PUSH20 0xFFFFFFFFFFFFFFFFFFFFFFFFFFFFFFFFFFFFFFFF AND DUP2 PUSH20 0xFFFFFFFFFFFFFFFFFFFFFFFFFFFFFFFFFFFFFFFF AND EQ PUSH3 0x516 JUMPI PUSH1 0x40 MLOAD PUSH32 0x6697B23200000000000000000000000000000000000000000000000000000000 DUP2 MSTORE PUSH1 0x4 ADD PUSH1 0x40 MLOAD DUP1 SWAP2 SUB SWAP1 REVERT JUMPDEST PUSH3 0x522 DUP3 DUP3 PUSH3 0xC68 JUMP JUMPDEST POP POP POP JUMP JUMPDEST PUSH1 0x0 DUP1 PUSH1 0x0 DUP5 DUP2 MSTORE PUSH1 0x20 ADD SWAP1 DUP2 MSTORE PUSH1 0x20 ADD PUSH1 0x0 KECCAK256 PUSH1 0x0 ADD PUSH1 0x0 DUP4 PUSH20 0xFFFFFFFFFFFFFFFFFFFFFFFFFFFFFFFFFFFFFFFF AND PUSH20 0xFFFFFFFFFFFFFFFFFFFFFFFFFFFFFFFFFFFFFFFF AND DUP2 MSTORE PUSH1 0x20 ADD SWAP1 DUP2 MSTORE PUSH1 0x20 ADD PUSH1 0x0 KECCAK256 PUSH1 0x0 SWAP1 SLOAD SWAP1 PUSH2 0x100 EXP SWAP1 DIV PUSH1 0xFF AND SWAP1 POP SWAP3 SWAP2 POP POP JUMP JUMPDEST PUSH1 0x0 DUP1 SHL DUP2 JUMP JUMPDEST PUSH1 0x2 DUP2 DUP2 SLOAD DUP2 LT PUSH3 0x5A9 JUMPI PUSH1 0x0 DUP1 REVERT JUMPDEST SWAP1 PUSH1 0x0 MSTORE PUSH1 0x20 PUSH1 0x0 KECCAK256 ADD PUSH1 0x0 SWAP2 POP SWAP1 POP DUP1 SLOAD PUSH3 0x5C6 SWAP1 PUSH3 0x1819 JUMP JUMPDEST DUP1 PUSH1 0x1F ADD PUSH1 0x20 DUP1 SWAP2 DIV MUL PUSH1 0x20 ADD PUSH1 0x40 MLOAD SWAP1 DUP2 ADD PUSH1 0x40 MSTORE DUP1 SWAP3 SWAP2 SWAP1 DUP2 DUP2 MSTORE PUSH1 0x20 ADD DUP3 DUP1 SLOAD PUSH3 0x5F4 SWAP1 PUSH3 0x1819 JUMP JUMPDEST DUP1 ISZERO PUSH3 0x645 JUMPI DUP1 PUSH1 0x1F LT PUSH3 0x619 JUMPI PUSH2 0x100 DUP1 DUP4 SLOAD DIV MUL DUP4 MSTORE SWAP2 PUSH1 0x20 ADD SWAP2 PUSH3 0x645 JUMP JUMPDEST DUP3 ADD SWAP2 SWAP1 PUSH1 0x0 MSTORE PUSH1 0x20 PUSH1 0x0 KECCAK256 SWAP1 JUMPDEST DUP2 SLOAD DUP2 MSTORE SWAP1 PUSH1 0x1 ADD SWAP1 PUSH1 0x20 ADD DUP1 DUP4 GT PUSH3 0x627 JUMPI DUP3 SWAP1 SUB PUSH1 0x1F AND DUP3 ADD SWAP2 JUMPDEST POP POP POP POP POP DUP2 JUMP JUMPDEST PUSH1 0x40 MLOAD PUSH1 0x20 ADD PUSH3 0x65E SWAP1 PUSH3 0x189E JUMP JUMPDEST PUSH1 0x40 MLOAD PUSH1 0x20 DUP2 DUP4 SUB SUB DUP2 MSTORE SWAP1 PUSH1 0x40 MSTORE DUP1 MLOAD SWAP1 PUSH1 0x20 ADD KECCAK256 PUSH3 0x67F DUP2 PUSH3 0xB51 JUMP JUMPDEST DUP5 PUSH1 0x3 PUSH1 0x0 SWAP1 SLOAD SWAP1 PUSH2 0x100 EXP SWAP1 DIV PUSH20 0xFFFFFFFFFFFFFFFFFFFFFFFFFFFFFFFFFFFFFFFF AND PUSH20 0xFFFFFFFFFFFFFFFFFFFFFFFFFFFFFFFFFFFFFFFF AND PUSH4 0x2B804EE4 PUSH1 0x40 MLOAD DUP2 PUSH4 0xFFFFFFFF AND PUSH1 0xE0 SHL DUP2 MSTORE PUSH1 0x4 ADD PUSH1 0x0 PUSH1 0x40 MLOAD DUP1 DUP4 SUB DUP2 DUP7 GAS STATICCALL ISZERO DUP1 ISZERO PUSH3 0x6EE JUMPI RETURNDATASIZE PUSH1 0x0 DUP1 RETURNDATACOPY RETURNDATASIZE PUSH1 0x0 REVERT JUMPDEST POP POP POP POP PUSH1 0x40 MLOAD RETURNDATASIZE PUSH1 0x0 DUP3 RETURNDATACOPY RETURNDATASIZE PUSH1 0x1F NOT PUSH1 0x1F DUP3 ADD AND DUP3 ADD DUP1 PUSH1 0x40 MSTORE POP DUP2 ADD SWAP1 PUSH3 0x719 SWAP2 SWAP1 PUSH3 0x19FB JUMP JUMPDEST MLOAD EQ PUSH3 0x75D JUMPI PUSH1 0x40 MLOAD PUSH32 0x8C379A000000000000000000000000000000000000000000000000000000000 DUP2 MSTORE PUSH1 0x4 ADD PUSH3 0x754 SWAP1 PUSH3 0x1B34 JUMP JUMPDEST PUSH1 0x40 MLOAD DUP1 SWAP2 SUB SWAP1 REVERT JUMPDEST PUSH3 0x768 DUP6 PUSH3 0xD60 JUMP JUMPDEST SWAP3 POP PUSH1 0x0 DUP8 DUP8 DUP8 DUP8 DUP8 DUP8 PUSH1 0x40 MLOAD PUSH3 0x780 SWAP1 PUSH3 0xE92 JUMP JUMPDEST PUSH3 0x791 SWAP7 SWAP6 SWAP5 SWAP4 SWAP3 SWAP2 SWAP1 PUSH3 0x1B78 JUMP JUMPDEST PUSH1 0x40 MLOAD DUP1 SWAP2 SUB SWAP1 PUSH1 0x0 CREATE DUP1 ISZERO DUP1 ISZERO PUSH3 0x7AE JUMPI RETURNDATASIZE PUSH1 0x0 DUP1 RETURNDATACOPY RETURNDATASIZE PUSH1 0x0 REVERT JUMPDEST POP SWAP1 POP PUSH32 0x73ED91EC876A6EF07B2D4BBD36371E6EB6C5269D213084D4FF40ADE4E3564F7A DUP2 ADDRESS PUSH1 0x40 MLOAD PUSH3 0x7E4 SWAP3 SWAP2 SWAP1 PUSH3 0x1BE5 JUMP JUMPDEST PUSH1 0x40 MLOAD DUP1 SWAP2 SUB SWAP1 LOG1 DUP7 PUSH1 0x3 PUSH1 0x0 PUSH2 0x100 EXP DUP2 SLOAD DUP2 PUSH20 0xFFFFFFFFFFFFFFFFFFFFFFFFFFFFFFFFFFFFFFFF MUL NOT AND SWAP1 DUP4 PUSH20 0xFFFFFFFFFFFFFFFFFFFFFFFFFFFFFFFFFFFFFFFF AND MUL OR SWAP1 SSTORE POP DUP1 PUSH20 0xFFFFFFFFFFFFFFFFFFFFFFFFFFFFFFFFFFFFFFFF AND PUSH4 0x4BE9B707 PUSH1 0x3 PUSH1 0x0 SWAP1 SLOAD SWAP1 PUSH2 0x100 EXP SWAP1 DIV PUSH20 0xFFFFFFFFFFFFFFFFFFFFFFFFFFFFFFFFFFFFFFFF AND PUSH20 0xFFFFFFFFFFFFFFFFFFFFFFFFFFFFFFFFFFFFFFFF AND PUSH4 0x2B804EE4 PUSH1 0x40 MLOAD DUP2 PUSH4 0xFFFFFFFF AND PUSH1 0xE0 SHL DUP2 MSTORE PUSH1 0x4 ADD PUSH1 0x0 PUSH1 0x40 MLOAD DUP1 DUP4 SUB DUP2 DUP7 GAS STATICCALL ISZERO DUP1 ISZERO PUSH3 0x8B7 JUMPI RETURNDATASIZE PUSH1 0x0 DUP1 RETURNDATACOPY RETURNDATASIZE PUSH1 0x0 REVERT JUMPDEST POP POP POP POP PUSH1 0x40 MLOAD RETURNDATASIZE PUSH1 0x0 DUP3 RETURNDATACOPY RETURNDATASIZE PUSH1 0x1F NOT PUSH1 0x1F DUP3 ADD AND DUP3 ADD DUP1 PUSH1 0x40 MSTORE POP DUP2 ADD SWAP1 PUSH3 0x8E2 SWAP2 SWAP1 PUSH3 0x19FB JUMP JUMPDEST PUSH1 0x40 MLOAD DUP3 PUSH4 0xFFFFFFFF AND PUSH1 0xE0 SHL DUP2 MSTORE PUSH1 0x4 ADD PUSH3 0x900 SWAP2 SWAP1 PUSH3 0x122A JUMP JUMPDEST PUSH1 0x0 PUSH1 0x40 MLOAD DUP1 DUP4 SUB DUP2 PUSH1 0x0 DUP8 DUP1 EXTCODESIZE ISZERO DUP1 ISZERO PUSH3 0x91B JUMPI PUSH1 0x0 DUP1 REVERT JUMPDEST POP GAS CALL ISZERO DUP1 ISZERO PUSH3 0x930 JUMPI RETURNDATASIZE PUSH1 0x0 DUP1 RETURNDATACOPY RETURNDATASIZE PUSH1 0x0 REVERT JUMPDEST POP POP POP POP POP POP POP POP POP POP POP POP JUMP JUMPDEST PUSH1 0x40 MLOAD PUSH1 0x20 ADD PUSH3 0x94F SWAP1 PUSH3 0x189E JUMP JUMPDEST PUSH1 0x40 MLOAD PUSH1 0x20 DUP2 DUP4 SUB SUB DUP2 MSTORE SWAP1 PUSH1 0x40 MSTORE DUP1 MLOAD SWAP1 PUSH1 0x20 ADD KECCAK256 PUSH3 0x970 DUP2 PUSH3 0xB51 JUMP JUMPDEST DUP6 DUP6 MLOAD EQ PUSH3 0x9B6 JUMPI PUSH1 0x40 MLOAD PUSH32 0x8C379A000000000000000000000000000000000000000000000000000000000 DUP2 MSTORE PUSH1 0x4 ADD PUSH3 0x9AD SWAP1 PUSH3 0x1C88 JUMP JUMPDEST PUSH1 0x40 MLOAD DUP1 SWAP2 SUB SWAP1 REVERT JUMPDEST PUSH3 0x9C1 DUP7 PUSH3 0xD60 JUMP JUMPDEST SWAP3 POP PUSH1 0x0 DUP9 DUP9 DUP9 DUP8 DUP8 DUP8 PUSH1 0x40 MLOAD PUSH3 0x9D9 SWAP1 PUSH3 0xE92 JUMP JUMPDEST PUSH3 0x9EA SWAP7 SWAP6 SWAP5 SWAP4 SWAP3 SWAP2 SWAP1 PUSH3 0x1B78 JUMP JUMPDEST PUSH1 0x40 MLOAD DUP1 SWAP2 SUB SWAP1 PUSH1 0x0 CREATE DUP1 ISZERO DUP1 ISZERO PUSH3 0xA07 JUMPI RETURNDATASIZE PUSH1 0x0 DUP1 RETURNDATACOPY RETURNDATASIZE PUSH1 0x0 REVERT JUMPDEST POP SWAP1 POP PUSH32 0x73ED91EC876A6EF07B2D4BBD36371E6EB6C5269D213084D4FF40ADE4E3564F7A DUP2 ADDRESS PUSH1 0x40 MLOAD PUSH3 0xA3D SWAP3 SWAP2 SWAP1 PUSH3 0x1BE5 JUMP JUMPDEST PUSH1 0x40 MLOAD DUP1 SWAP2 SUB SWAP1 LOG1 DUP1 PUSH20 0xFFFFFFFFFFFFFFFFFFFFFFFFFFFFFFFFFFFFFFFF AND PUSH4 0x4BE9B707 DUP8 PUSH1 0x40 MLOAD DUP3 PUSH4 0xFFFFFFFF AND PUSH1 0xE0 SHL DUP2 MSTORE PUSH1 0x4 ADD PUSH3 0xA80 SWAP2 SWAP1 PUSH3 0x122A JUMP JUMPDEST PUSH1 0x0 PUSH1 0x40 MLOAD DUP1 DUP4 SUB DUP2 PUSH1 0x0 DUP8 DUP1 EXTCODESIZE ISZERO DUP1 ISZERO PUSH3 0xA9B JUMPI PUSH1 0x0 DUP1 REVERT JUMPDEST POP GAS CALL ISZERO DUP1 ISZERO PUSH3 0xAB0 JUMPI RETURNDATASIZE PUSH1 0x0 DUP1 RETURNDATACOPY RETURNDATASIZE PUSH1 0x0 REVERT JUMPDEST POP POP POP POP POP POP POP POP POP POP POP POP POP JUMP JUMPDEST PUSH3 0xACA DUP3 PUSH3 0x34A JUMP JUMPDEST PUSH3 0xAD5 DUP2 PUSH3 0xB51 JUMP JUMPDEST PUSH3 0xAE1 DUP4 DUP4 PUSH3 0xC68 JUMP JUMPDEST POP POP POP POP JUMP JUMPDEST PUSH1 0x0 PUSH32 0x1FFC9A700000000000000000000000000000000000000000000000000000000 PUSH28 0xFFFFFFFFFFFFFFFFFFFFFFFFFFFFFFFFFFFFFFFFFFFFFFFFFFFFFFFF NOT AND DUP3 PUSH28 0xFFFFFFFFFFFFFFFFFFFFFFFFFFFFFFFFFFFFFFFFFFFFFFFFFFFFFFFF NOT AND EQ SWAP1 POP SWAP2 SWAP1 POP JUMP JUMPDEST PUSH3 0xB66 DUP2 PUSH3 0xB60 PUSH3 0xC60 JUMP JUMPDEST PUSH3 0xE3C JUMP JUMPDEST POP JUMP JUMPDEST PUSH1 0x0 PUSH3 0xB77 DUP4 DUP4 PUSH3 0x527 JUMP JUMPDEST PUSH3 0xC55 JUMPI PUSH1 0x1 PUSH1 0x0 DUP1 DUP6 DUP2 MSTORE PUSH1 0x20 ADD SWAP1 DUP2 MSTORE PUSH1 0x20 ADD PUSH1 0x0 KECCAK256 PUSH1 0x0 ADD PUSH1 0x0 DUP5 PUSH20 0xFFFFFFFFFFFFFFFFFFFFFFFFFFFFFFFFFFFFFFFF AND PUSH20 0xFFFFFFFFFFFFFFFFFFFFFFFFFFFFFFFFFFFFFFFF AND DUP2 MSTORE PUSH1 0x20 ADD SWAP1 DUP2 MSTORE PUSH1 0x20 ADD PUSH1 0x0 KECCAK256 PUSH1 0x0 PUSH2 0x100 EXP DUP2 SLOAD DUP2 PUSH1 0xFF MUL NOT AND SWAP1 DUP4 ISZERO ISZERO MUL OR SWAP1 SSTORE POP PUSH3 0xBF1 PUSH3 0xC60 JUMP JUMPDEST PUSH20 0xFFFFFFFFFFFFFFFFFFFFFFFFFFFFFFFFFFFFFFFF AND DUP3 PUSH20 0xFFFFFFFFFFFFFFFFFFFFFFFFFFFFFFFFFFFFFFFF AND DUP5 PUSH32 0x2F8788117E7EFF1D82E926EC794901D17C78024A50270940304540A733656F0D PUSH1 0x40 MLOAD PUSH1 0x40 MLOAD DUP1 SWAP2 SUB SWAP1 LOG4 PUSH1 0x1 SWAP1 POP PUSH3 0xC5A JUMP JUMPDEST PUSH1 0x0 SWAP1 POP JUMPDEST SWAP3 SWAP2 POP POP JUMP JUMPDEST PUSH1 0x0 CALLER SWAP1 POP SWAP1 JUMP JUMPDEST PUSH1 0x0 PUSH3 0xC76 DUP4 DUP4 PUSH3 0x527 JUMP JUMPDEST ISZERO PUSH3 0xD55 JUMPI PUSH1 0x0 DUP1 PUSH1 0x0 DUP6 DUP2 MSTORE PUSH1 0x20 ADD SWAP1 DUP2 MSTORE PUSH1 0x20 ADD PUSH1 0x0 KECCAK256 PUSH1 0x0 ADD PUSH1 0x0 DUP5 PUSH20 0xFFFFFFFFFFFFFFFFFFFFFFFFFFFFFFFFFFFFFFFF AND PUSH20 0xFFFFFFFFFFFFFFFFFFFFFFFFFFFFFFFFFFFFFFFF AND DUP2 MSTORE PUSH1 0x20 ADD SWAP1 DUP2 MSTORE PUSH1 0x20 ADD PUSH1 0x0 KECCAK256 PUSH1 0x0 PUSH2 0x100 EXP DUP2 SLOAD DUP2 PUSH1 0xFF MUL NOT AND SWAP1 DUP4 ISZERO ISZERO MUL OR SWAP1 SSTORE POP PUSH3 0xCF1 PUSH3 0xC60 JUMP JUMPDEST PUSH20 0xFFFFFFFFFFFFFFFFFFFFFFFFFFFFFFFFFFFFFFFF AND DUP3 PUSH20 0xFFFFFFFFFFFFFFFFFFFFFFFFFFFFFFFFFFFFFFFF AND DUP5 PUSH32 0xF6391F5C32D9C69D2A47EA670B442974B53935D1EDC7FD64EB21E047A839171B PUSH1 0x40 MLOAD PUSH1 0x40 MLOAD DUP1 SWAP2 SUB SWAP1 LOG4 PUSH1 0x1 SWAP1 POP PUSH3 0xD5A JUMP JUMPDEST PUSH1 0x0 SWAP1 POP JUMPDEST SWAP3 SWAP2 POP POP JUMP JUMPDEST PUSH1 0x0 DUP1 PUSH7 0x38D7EA4C68000 SWAP1 POP PUSH3 0x186A0 DUP4 LT PUSH3 0xDAB JUMPI PUSH1 0x64 PUSH1 0x23 DUP3 DUP6 PUSH3 0xD8A SWAP2 SWAP1 PUSH3 0x1CD9 JUMP JUMPDEST PUSH3 0xD96 SWAP2 SWAP1 PUSH3 0x1CD9 JUMP JUMPDEST PUSH3 0xDA2 SWAP2 SWAP1 PUSH3 0x1D53 JUMP JUMPDEST SWAP2 POP POP PUSH3 0xE37 JUMP JUMPDEST PUSH2 0x2710 DUP4 LT PUSH3 0xDE8 JUMPI PUSH1 0x64 PUSH1 0x32 DUP3 DUP6 PUSH3 0xDC7 SWAP2 SWAP1 PUSH3 0x1CD9 JUMP JUMPDEST PUSH3 0xDD3 SWAP2 SWAP1 PUSH3 0x1CD9 JUMP JUMPDEST PUSH3 0xDDF SWAP2 SWAP1 PUSH3 0x1D53 JUMP JUMPDEST SWAP2 POP POP PUSH3 0xE37 JUMP JUMPDEST PUSH2 0x3E8 DUP4 LT PUSH3 0xE25 JUMPI PUSH1 0x64 PUSH1 0x50 DUP3 DUP6 PUSH3 0xE04 SWAP2 SWAP1 PUSH3 0x1CD9 JUMP JUMPDEST PUSH3 0xE10 SWAP2 SWAP1 PUSH3 0x1CD9 JUMP JUMPDEST PUSH3 0xE1C SWAP2 SWAP1 PUSH3 0x1D53 JUMP JUMPDEST SWAP2 POP POP PUSH3 0xE37 JUMP JUMPDEST DUP1 DUP4 PUSH3 0xE33 SWAP2 SWAP1 PUSH3 0x1CD9 JUMP JUMPDEST SWAP2 POP POP JUMPDEST SWAP2 SWAP1 POP JUMP JUMPDEST PUSH3 0xE48 DUP3 DUP3 PUSH3 0x527 JUMP JUMPDEST PUSH3 0xE8E JUMPI DUP1 DUP3 PUSH1 0x40 MLOAD PUSH32 0xE2517D3F00000000000000000000000000000000000000000000000000000000 DUP2 MSTORE PUSH1 0x4 ADD PUSH3 0xE85 SWAP3 SWAP2 SWAP1 PUSH3 0x1D8B JUMP JUMPDEST PUSH1 0x40 MLOAD DUP1 SWAP2 SUB SWAP1 REVERT JUMPDEST POP POP JUMP JUMPDEST PUSH2 0x1CCE DUP1 PUSH3 0x1DB9 DUP4 CODECOPY ADD SWAP1 JUMP JUMPDEST PUSH1 0x0 PUSH1 0x40 MLOAD SWAP1 POP SWAP1 JUMP JUMPDEST PUSH1 0x0 DUP1 REVERT JUMPDEST PUSH1 0x0 DUP1 REVERT JUMPDEST PUSH1 0x0 PUSH32 0xFFFFFFFF00000000000000000000000000000000000000000000000000000000 DUP3 AND SWAP1 POP SWAP2 SWAP1 POP JUMP JUMPDEST PUSH3 0xEEB DUP2 PUSH3 0xEB4 JUMP JUMPDEST DUP2 EQ PUSH3 0xEF7 JUMPI PUSH1 0x0 DUP1 REVERT JUMPDEST POP JUMP JUMPDEST PUSH1 0x0 DUP2 CALLDATALOAD SWAP1 POP PUSH3 0xF0B DUP2 PUSH3 0xEE0 JUMP JUMPDEST SWAP3 SWAP2 POP POP JUMP JUMPDEST PUSH1 0x0 PUSH1 0x20 DUP3 DUP5 SUB SLT ISZERO PUSH3 0xF2A JUMPI PUSH3 0xF29 PUSH3 0xEAA JUMP JUMPDEST JUMPDEST PUSH1 0x0 PUSH3 0xF3A DUP5 DUP3 DUP6 ADD PUSH3 0xEFA JUMP JUMPDEST SWAP2 POP POP SWAP3 SWAP2 POP POP JUMP JUMPDEST PUSH1 0x0 DUP2 ISZERO ISZERO SWAP1 POP SWAP2 SWAP1 POP JUMP JUMPDEST PUSH3 0xF5A DUP2 PUSH3 0xF43 JUMP JUMPDEST DUP3 MSTORE POP POP JUMP JUMPDEST PUSH1 0x0 PUSH1 0x20 DUP3 ADD SWAP1 POP PUSH3 0xF77 PUSH1 0x0 DUP4 ADD DUP5 PUSH3 0xF4F JUMP JUMPDEST SWAP3 SWAP2 POP POP JUMP JUMPDEST PUSH1 0x0 PUSH20 0xFFFFFFFFFFFFFFFFFFFFFFFFFFFFFFFFFFFFFFFF DUP3 AND SWAP1 POP SWAP2 SWAP1 POP JUMP JUMPDEST PUSH1 0x0 DUP2 SWAP1 POP SWAP2 SWAP1 POP JUMP JUMPDEST PUSH1 0x0 PUSH3 0xFC8 PUSH3 0xFC2 PUSH3 0xFBC DUP5 PUSH3 0xF7D JUMP JUMPDEST PUSH3 0xF9D JUMP JUMPDEST PUSH3 0xF7D JUMP JUMPDEST SWAP1 POP SWAP2 SWAP1 POP JUMP JUMPDEST PUSH1 0x0 PUSH3 0xFDC DUP3 PUSH3 0xFA7 JUMP JUMPDEST SWAP1 POP SWAP2 SWAP1 POP JUMP JUMPDEST PUSH1 0x0 PUSH3 0xFF0 DUP3 PUSH3 0xFCF JUMP JUMPDEST SWAP1 POP SWAP2 SWAP1 POP JUMP JUMPDEST PUSH3 0x1002 DUP2 PUSH3 0xFE3 JUMP JUMPDEST DUP3 MSTORE POP POP JUMP JUMPDEST PUSH1 0x0 PUSH1 0x20 DUP3 ADD SWAP1 POP PUSH3 0x101F PUSH1 0x0 DUP4 ADD DUP5 PUSH3 0xFF7 JUMP JUMPDEST SWAP3 SWAP2 POP POP JUMP JUMPDEST PUSH1 0x0 DUP2 SWAP1 POP SWAP2 SWAP1 POP JUMP JUMPDEST PUSH3 0x103A DUP2 PUSH3 0x1025 JUMP JUMPDEST DUP2 EQ PUSH3 0x1046 JUMPI PUSH1 0x0 DUP1 REVERT JUMPDEST POP JUMP JUMPDEST PUSH1 0x0 DUP2 CALLDATALOAD SWAP1 POP PUSH3 0x105A DUP2 PUSH3 0x102F JUMP JUMPDEST SWAP3 SWAP2 POP POP JUMP JUMPDEST PUSH1 0x0 PUSH1 0x20 DUP3 DUP5 SUB SLT ISZERO PUSH3 0x1079 JUMPI PUSH3 0x1078 PUSH3 0xEAA JUMP JUMPDEST JUMPDEST PUSH1 0x0 PUSH3 0x1089 DUP5 DUP3 DUP6 ADD PUSH3 0x1049 JUMP JUMPDEST SWAP2 POP POP SWAP3 SWAP2 POP POP JUMP JUMPDEST PUSH3 0x109D DUP2 PUSH3 0x1025 JUMP JUMPDEST DUP3 MSTORE POP POP JUMP JUMPDEST PUSH1 0x0 PUSH1 0x20 DUP3 ADD SWAP1 POP PUSH3 0x10BA PUSH1 0x0 DUP4 ADD DUP5 PUSH3 0x1092 JUMP JUMPDEST SWAP3 SWAP2 POP POP JUMP JUMPDEST PUSH1 0x0 DUP2 MLOAD SWAP1 POP SWAP2 SWAP1 POP JUMP JUMPDEST PUSH1 0x0 DUP3 DUP3 MSTORE PUSH1 0x20 DUP3 ADD SWAP1 POP SWAP3 SWAP2 POP POP JUMP JUMPDEST PUSH1 0x0 DUP2 SWAP1 POP PUSH1 0x20 DUP3 ADD SWAP1 POP SWAP2 SWAP1 POP JUMP JUMPDEST PUSH1 0x0 DUP2 MLOAD SWAP1 POP SWAP2 SWAP1 POP JUMP JUMPDEST PUSH1 0x0 DUP3 DUP3 MSTORE PUSH1 0x20 DUP3 ADD SWAP1 POP SWAP3 SWAP2 POP POP JUMP JUMPDEST PUSH1 0x0 JUMPDEST DUP4 DUP2 LT ISZERO PUSH3 0x1128 JUMPI DUP1 DUP3 ADD MLOAD DUP2 DUP5 ADD MSTORE PUSH1 0x20 DUP2 ADD SWAP1 POP PUSH3 0x110B JUMP JUMPDEST PUSH1 0x0 DUP5 DUP5 ADD MSTORE POP POP POP POP JUMP JUMPDEST PUSH1 0x0 PUSH1 0x1F NOT PUSH1 0x1F DUP4 ADD AND SWAP1 POP SWAP2 SWAP1 POP JUMP JUMPDEST PUSH1 0x0 PUSH3 0x1152 DUP3 PUSH3 0x10EC JUMP JUMPDEST PUSH3 0x115E DUP2 DUP6 PUSH3 0x10F7 JUMP JUMPDEST SWAP4 POP PUSH3 0x1170 DUP2 DUP6 PUSH1 0x20 DUP7 ADD PUSH3 0x1108 JUMP JUMPDEST PUSH3 0x117B DUP2 PUSH3 0x1134 JUMP JUMPDEST DUP5 ADD SWAP2 POP POP SWAP3 SWAP2 POP POP JUMP JUMPDEST PUSH1 0x0 PUSH3 0x1194 DUP4 DUP4 PUSH3 0x1145 JUMP JUMPDEST SWAP1 POP SWAP3 SWAP2 POP POP JUMP JUMPDEST PUSH1 0x0 PUSH1 0x20 DUP3 ADD SWAP1 POP SWAP2 SWAP1 POP JUMP JUMPDEST PUSH1 0x0 PUSH3 0x11B6 DUP3 PUSH3 0x10C0 JUMP JUMPDEST PUSH3 0x11C2 DUP2 DUP6 PUSH3 0x10CB JUMP JUMPDEST SWAP4 POP DUP4 PUSH1 0x20 DUP3 MUL DUP6 ADD PUSH3 0x11D6 DUP6 PUSH3 0x10DC JUMP JUMPDEST DUP1 PUSH1 0x0 JUMPDEST DUP6 DUP2 LT ISZERO PUSH3 0x1218 JUMPI DUP5 DUP5 SUB DUP10 MSTORE DUP2 MLOAD PUSH3 0x11F6 DUP6 DUP3 PUSH3 0x1186 JUMP JUMPDEST SWAP5 POP PUSH3 0x1203 DUP4 PUSH3 0x119C JUMP JUMPDEST SWAP3 POP PUSH1 0x20 DUP11 ADD SWAP10 POP POP PUSH1 0x1 DUP2 ADD SWAP1 POP PUSH3 0x11DA JUMP JUMPDEST POP DUP3 SWAP8 POP DUP8 SWAP6 POP POP POP POP POP POP SWAP3 SWAP2 POP POP JUMP JUMPDEST PUSH1 0x0 PUSH1 0x20 DUP3 ADD SWAP1 POP DUP2 DUP2 SUB PUSH1 0x0 DUP4 ADD MSTORE PUSH3 0x1246 DUP2 DUP5 PUSH3 0x11A9 JUMP JUMPDEST SWAP1 POP SWAP3 SWAP2 POP POP JUMP JUMPDEST PUSH1 0x0 PUSH3 0x125B DUP3 PUSH3 0xF7D JUMP JUMPDEST SWAP1 POP SWAP2 SWAP1 POP JUMP JUMPDEST PUSH3 0x126D DUP2 PUSH3 0x124E JUMP JUMPDEST DUP2 EQ PUSH3 0x1279 JUMPI PUSH1 0x0 DUP1 REVERT JUMPDEST POP JUMP JUMPDEST PUSH1 0x0 DUP2 CALLDATALOAD SWAP1 POP PUSH3 0x128D DUP2 PUSH3 0x1262 JUMP JUMPDEST SWAP3 SWAP2 POP POP JUMP JUMPDEST PUSH1 0x0 DUP1 PUSH1 0x40 DUP4 DUP6 SUB SLT ISZERO PUSH3 0x12AD JUMPI PUSH3 0x12AC PUSH3 0xEAA JUMP JUMPDEST JUMPDEST PUSH1 0x0 PUSH3 0x12BD DUP6 DUP3 DUP7 ADD PUSH3 0x1049 JUMP JUMPDEST SWAP3 POP POP PUSH1 0x20 PUSH3 0x12D0 DUP6 DUP3 DUP7 ADD PUSH3 0x127C JUMP JUMPDEST SWAP2 POP POP SWAP3 POP SWAP3 SWAP1 POP JUMP JUMPDEST PUSH1 0x0 DUP2 SWAP1 POP SWAP2 SWAP1 POP JUMP JUMPDEST PUSH3 0x12EF DUP2 PUSH3 0x12DA JUMP JUMPDEST DUP2 EQ PUSH3 0x12FB JUMPI PUSH1 0x0 DUP1 REVERT JUMPDEST POP JUMP JUMPDEST PUSH1 0x0 DUP2 CALLDATALOAD SWAP1 POP PUSH3 0x130F DUP2 PUSH3 0x12E4 JUMP JUMPDEST SWAP3 SWAP2 POP POP JUMP JUMPDEST PUSH1 0x0 PUSH1 0x20 DUP3 DUP5 SUB SLT ISZERO PUSH3 0x132E JUMPI PUSH3 0x132D PUSH3 0xEAA JUMP JUMPDEST JUMPDEST PUSH1 0x0 PUSH3 0x133E DUP5 DUP3 DUP6 ADD PUSH3 0x12FE JUMP JUMPDEST SWAP2 POP POP SWAP3 SWAP2 POP POP JUMP JUMPDEST PUSH1 0x0 DUP3 DUP3 MSTORE PUSH1 0x20 DUP3 ADD SWAP1 POP SWAP3 SWAP2 POP POP JUMP JUMPDEST PUSH1 0x0 PUSH3 0x1365 DUP3 PUSH3 0x10EC JUMP JUMPDEST PUSH3 0x1371 DUP2 DUP6 PUSH3 0x1347 JUMP JUMPDEST SWAP4 POP PUSH3 0x1383 DUP2 DUP6 PUSH1 0x20 DUP7 ADD PUSH3 0x1108 JUMP JUMPDEST PUSH3 0x138E DUP2 PUSH3 0x1134 JUMP JUMPDEST DUP5 ADD SWAP2 POP POP SWAP3 SWAP2 POP POP JUMP JUMPDEST PUSH1 0x0 PUSH1 0x20 DUP3 ADD SWAP1 POP DUP2 DUP2 SUB PUSH1 0x0 DUP4 ADD MSTORE PUSH3 0x13B5 DUP2 DUP5 PUSH3 0x1358 JUMP JUMPDEST SWAP1 POP SWAP3 SWAP2 POP POP JUMP JUMPDEST PUSH1 0x0 DUP1 PUSH1 0x0 DUP1 PUSH1 0x0 DUP1 PUSH1 0xC0 DUP8 DUP10 SUB SLT ISZERO PUSH3 0x13DD JUMPI PUSH3 0x13DC PUSH3 0xEAA JUMP JUMPDEST JUMPDEST PUSH1 0x0 PUSH3 0x13ED DUP10 DUP3 DUP11 ADD PUSH3 0x127C JUMP JUMPDEST SWAP7 POP POP PUSH1 0x20 PUSH3 0x1400 DUP10 DUP3 DUP11 ADD PUSH3 0x127C JUMP JUMPDEST SWAP6 POP POP PUSH1 0x40 PUSH3 0x1413 DUP10 DUP3 DUP11 ADD PUSH3 0x12FE JUMP JUMPDEST SWAP5 POP POP PUSH1 0x60 PUSH3 0x1426 DUP10 DUP3 DUP11 ADD PUSH3 0x127C JUMP JUMPDEST SWAP4 POP POP PUSH1 0x80 PUSH3 0x1439 DUP10 DUP3 DUP11 ADD PUSH3 0x12FE JUMP JUMPDEST SWAP3 POP POP PUSH1 0xA0 PUSH3 0x144C DUP10 DUP3 DUP11 ADD PUSH3 0x12FE JUMP JUMPDEST SWAP2 POP POP SWAP3 SWAP6 POP SWAP3 SWAP6 POP SWAP3 SWAP6 JUMP JUMPDEST PUSH1 0x0 DUP1 REVERT JUMPDEST PUSH32 0x4E487B7100000000000000000000000000000000000000000000000000000000 PUSH1 0x0 MSTORE PUSH1 0x41 PUSH1 0x4 MSTORE PUSH1 0x24 PUSH1 0x0 REVERT JUMPDEST PUSH3 0x1498 DUP3 PUSH3 0x1134 JUMP JUMPDEST DUP2 ADD DUP2 DUP2 LT PUSH8 0xFFFFFFFFFFFFFFFF DUP3 GT OR ISZERO PUSH3 0x14BA JUMPI PUSH3 0x14B9 PUSH3 0x145E JUMP JUMPDEST JUMPDEST DUP1 PUSH1 0x40 MSTORE POP POP POP JUMP JUMPDEST PUSH1 0x0 PUSH3 0x14CF PUSH3 0xEA0 JUMP JUMPDEST SWAP1 POP PUSH3 0x14DD DUP3 DUP3 PUSH3 0x148D JUMP JUMPDEST SWAP2 SWAP1 POP JUMP JUMPDEST PUSH1 0x0 PUSH8 0xFFFFFFFFFFFFFFFF DUP3 GT ISZERO PUSH3 0x1500 JUMPI PUSH3 0x14FF PUSH3 0x145E JUMP JUMPDEST JUMPDEST PUSH1 0x20 DUP3 MUL SWAP1 POP PUSH1 0x20 DUP2 ADD SWAP1 POP SWAP2 SWAP1 POP JUMP JUMPDEST PUSH1 0x0 DUP1 REVERT JUMPDEST PUSH1 0x0 DUP1 REVERT JUMPDEST PUSH1 0x0 PUSH8 0xFFFFFFFFFFFFFFFF DUP3 GT ISZERO PUSH3 0x1539 JUMPI PUSH3 0x1538 PUSH3 0x145E JUMP JUMPDEST JUMPDEST PUSH3 0x1544 DUP3 PUSH3 0x1134 JUMP JUMPDEST SWAP1 POP PUSH1 0x20 DUP2 ADD SWAP1 POP SWAP2 SWAP1 POP JUMP JUMPDEST DUP3 DUP2 DUP4 CALLDATACOPY PUSH1 0x0 DUP4 DUP4 ADD MSTORE POP POP POP JUMP JUMPDEST PUSH1 0x0 PUSH3 0x1577 PUSH3 0x1571 DUP5 PUSH3 0x151B JUMP JUMPDEST PUSH3 0x14C3 JUMP JUMPDEST SWAP1 POP DUP3 DUP2 MSTORE PUSH1 0x20 DUP2 ADD DUP5 DUP5 DUP5 ADD GT ISZERO PUSH3 0x1596 JUMPI PUSH3 0x1595 PUSH3 0x1516 JUMP JUMPDEST JUMPDEST PUSH3 0x15A3 DUP5 DUP3 DUP6 PUSH3 0x1551 JUMP JUMPDEST POP SWAP4 SWAP3 POP POP POP JUMP JUMPDEST PUSH1 0x0 DUP3 PUSH1 0x1F DUP4 ADD SLT PUSH3 0x15C3 JUMPI PUSH3 0x15C2 PUSH3 0x1459 JUMP JUMPDEST JUMPDEST DUP2 CALLDATALOAD PUSH3 0x15D5 DUP5 DUP3 PUSH1 0x20 DUP7 ADD PUSH3 0x1560 JUMP JUMPDEST SWAP2 POP POP SWAP3 SWAP2 POP POP JUMP JUMPDEST PUSH1 0x0 PUSH3 0x15F5 PUSH3 0x15EF DUP5 PUSH3 0x14E2 JUMP JUMPDEST PUSH3 0x14C3 JUMP JUMPDEST SWAP1 POP DUP1 DUP4 DUP3 MSTORE PUSH1 0x20 DUP3 ADD SWAP1 POP PUSH1 0x20 DUP5 MUL DUP4 ADD DUP6 DUP2 GT ISZERO PUSH3 0x161B JUMPI PUSH3 0x161A PUSH3 0x1511 JUMP JUMPDEST JUMPDEST DUP4 JUMPDEST DUP2 DUP2 LT ISZERO PUSH3 0x1669 JUMPI DUP1 CALLDATALOAD PUSH8 0xFFFFFFFFFFFFFFFF DUP2 GT ISZERO PUSH3 0x1644 JUMPI PUSH3 0x1643 PUSH3 0x1459 JUMP JUMPDEST JUMPDEST DUP1 DUP7 ADD PUSH3 0x1653 DUP10 DUP3 PUSH3 0x15AB JUMP JUMPDEST DUP6 MSTORE PUSH1 0x20 DUP6 ADD SWAP5 POP POP POP PUSH1 0x20 DUP2 ADD SWAP1 POP PUSH3 0x161D JUMP JUMPDEST POP POP POP SWAP4 SWAP3 POP POP POP JUMP JUMPDEST PUSH1 0x0 DUP3 PUSH1 0x1F DUP4 ADD SLT PUSH3 0x168B JUMPI PUSH3 0x168A PUSH3 0x1459 JUMP JUMPDEST JUMPDEST DUP2 CALLDATALOAD PUSH3 0x169D DUP5 DUP3 PUSH1 0x20 DUP7 ADD PUSH3 0x15DE JUMP JUMPDEST SWAP2 POP POP SWAP3 SWAP2 POP POP JUMP JUMPDEST PUSH1 0x0 DUP1 PUSH1 0x0 DUP1 PUSH1 0x0 DUP1 PUSH1 0x0 PUSH1 0xE0 DUP9 DUP11 SUB SLT ISZERO PUSH3 0x16C8 JUMPI PUSH3 0x16C7 PUSH3 0xEAA JUMP JUMPDEST JUMPDEST PUSH1 0x0 PUSH3 0x16D8 DUP11 DUP3 DUP12 ADD PUSH3 0x127C JUMP JUMPDEST SWAP8 POP POP PUSH1 0x20 PUSH3 0x16EB DUP11 DUP3 DUP12 ADD PUSH3 0x127C JUMP JUMPDEST SWAP7 POP POP PUSH1 0x40 PUSH3 0x16FE DUP11 DUP3 DUP12 ADD PUSH3 0x12FE JUMP JUMPDEST SWAP6 POP POP PUSH1 0x60 DUP9 ADD CALLDATALOAD PUSH8 0xFFFFFFFFFFFFFFFF DUP2 GT ISZERO PUSH3 0x1722 JUMPI PUSH3 0x1721 PUSH3 0xEAF JUMP JUMPDEST JUMPDEST PUSH3 0x1730 DUP11 DUP3 DUP12 ADD PUSH3 0x1673 JUMP JUMPDEST SWAP5 POP POP PUSH1 0x80 PUSH3 0x1743 DUP11 DUP3 DUP12 ADD PUSH3 0x127C JUMP JUMPDEST SWAP4 POP POP PUSH1 0xA0 PUSH3 0x1756 DUP11 DUP3 DUP12 ADD PUSH3 0x12FE JUMP JUMPDEST SWAP3 POP POP PUSH1 0xC0 PUSH3 0x1769 DUP11 DUP3 DUP12 ADD PUSH3 0x12FE JUMP JUMPDEST SWAP2 POP POP SWAP3 SWAP6 SWAP9 SWAP2 SWAP5 SWAP8 POP SWAP3 SWAP6 POP JUMP JUMPDEST PUSH1 0x0 DUP2 SWAP1 POP SWAP3 SWAP2 POP POP JUMP JUMPDEST PUSH32 0x41444D494E000000000000000000000000000000000000000000000000000000 PUSH1 0x0 DUP3 ADD MSTORE POP JUMP JUMPDEST PUSH1 0x0 PUSH3 0x17BB PUSH1 0x5 DUP4 PUSH3 0x1778 JUMP JUMPDEST SWAP2 POP PUSH3 0x17C8 DUP3 PUSH3 0x1783 JUMP JUMPDEST PUSH1 0x5 DUP3 ADD SWAP1 POP SWAP2 SWAP1 POP JUMP JUMPDEST PUSH1 0x0 PUSH3 0x17E0 DUP3 PUSH3 0x17AC JUMP JUMPDEST SWAP2 POP DUP2 SWAP1 POP SWAP2 SWAP1 POP JUMP JUMPDEST PUSH32 0x4E487B7100000000000000000000000000000000000000000000000000000000 PUSH1 0x0 MSTORE PUSH1 0x22 PUSH1 0x4 MSTORE PUSH1 0x24 PUSH1 0x0 REVERT JUMPDEST PUSH1 0x0 PUSH1 0x2 DUP3 DIV SWAP1 POP PUSH1 0x1 DUP3 AND DUP1 PUSH3 0x1832 JUMPI PUSH1 0x7F DUP3 AND SWAP2 POP JUMPDEST PUSH1 0x20 DUP3 LT DUP2 SUB PUSH3 0x1848 JUMPI PUSH3 0x1847 PUSH3 0x17EA JUMP JUMPDEST JUMPDEST POP SWAP2 SWAP1 POP JUMP JUMPDEST PUSH32 0x504152544E455200000000000000000000000000000000000000000000000000 PUSH1 0x0 DUP3 ADD MSTORE POP JUMP JUMPDEST PUSH1 0x0 PUSH3 0x1886 PUSH1 0x7 DUP4 PUSH3 0x1778 JUMP JUMPDEST SWAP2 POP PUSH3 0x1893 DUP3 PUSH3 0x184E JUMP JUMPDEST PUSH1 0x7 DUP3 ADD SWAP1 POP SWAP2 SWAP1 POP JUMP JUMPDEST PUSH1 0x0 PUSH3 0x18AB DUP3 PUSH3 0x1877 JUMP JUMPDEST SWAP2 POP DUP2 SWAP1 POP SWAP2 SWAP1 POP JUMP JUMPDEST PUSH1 0x0 PUSH3 0x18CC PUSH3 0x18C6 DUP5 PUSH3 0x151B JUMP JUMPDEST PUSH3 0x14C3 JUMP JUMPDEST SWAP1 POP DUP3 DUP2 MSTORE PUSH1 0x20 DUP2 ADD DUP5 DUP5 DUP5 ADD GT ISZERO PUSH3 0x18EB JUMPI PUSH3 0x18EA PUSH3 0x1516 JUMP JUMPDEST JUMPDEST PUSH3 0x18F8 DUP5 DUP3 DUP6 PUSH3 0x1108 JUMP JUMPDEST POP SWAP4 SWAP3 POP POP POP JUMP JUMPDEST PUSH1 0x0 DUP3 PUSH1 0x1F DUP4 ADD SLT PUSH3 0x1918 JUMPI PUSH3 0x1917 PUSH3 0x1459 JUMP JUMPDEST JUMPDEST DUP2 MLOAD PUSH3 0x192A DUP5 DUP3 PUSH1 0x20 DUP7 ADD PUSH3 0x18B5 JUMP JUMPDEST SWAP2 POP POP SWAP3 SWAP2 POP POP JUMP JUMPDEST PUSH1 0x0 PUSH3 0x194A PUSH3 0x1944 DUP5 PUSH3 0x14E2 JUMP JUMPDEST PUSH3 0x14C3 JUMP JUMPDEST SWAP1 POP DUP1 DUP4 DUP3 MSTORE PUSH1 0x20 DUP3 ADD SWAP1 POP PUSH1 0x20 DUP5 MUL DUP4 ADD DUP6 DUP2 GT ISZERO PUSH3 0x1970 JUMPI PUSH3 0x196F PUSH3 0x1511 JUMP JUMPDEST JUMPDEST DUP4 JUMPDEST DUP2 DUP2 LT ISZERO PUSH3 0x19BE JUMPI DUP1 MLOAD PUSH8 0xFFFFFFFFFFFFFFFF DUP2 GT ISZERO PUSH3 0x1999 JUMPI PUSH3 0x1998 PUSH3 0x1459 JUMP JUMPDEST JUMPDEST DUP1 DUP7 ADD PUSH3 0x19A8 DUP10 DUP3 PUSH3 0x1900 JUMP JUMPDEST DUP6 MSTORE PUSH1 0x20 DUP6 ADD SWAP5 POP POP POP PUSH1 0x20 DUP2 ADD SWAP1 POP PUSH3 0x1972 JUMP JUMPDEST POP POP POP SWAP4 SWAP3 POP POP POP JUMP JUMPDEST PUSH1 0x0 DUP3 PUSH1 0x1F DUP4 ADD SLT PUSH3 0x19E0 JUMPI PUSH3 0x19DF PUSH3 0x1459 JUMP JUMPDEST JUMPDEST DUP2 MLOAD PUSH3 0x19F2 DUP5 DUP3 PUSH1 0x20 DUP7 ADD PUSH3 0x1933 JUMP JUMPDEST SWAP2 POP POP SWAP3 SWAP2 POP POP JUMP JUMPDEST PUSH1 0x0 PUSH1 0x20 DUP3 DUP5 SUB SLT ISZERO PUSH3 0x1A14 JUMPI PUSH3 0x1A13 PUSH3 0xEAA JUMP JUMPDEST JUMPDEST PUSH1 0x0 DUP3 ADD MLOAD PUSH8 0xFFFFFFFFFFFFFFFF DUP2 GT ISZERO PUSH3 0x1A35 JUMPI PUSH3 0x1A34 PUSH3 0xEAF JUMP JUMPDEST JUMPDEST PUSH3 0x1A43 DUP5 DUP3 DUP6 ADD PUSH3 0x19C8 JUMP JUMPDEST SWAP2 POP POP SWAP3 SWAP2 POP POP JUMP JUMPDEST PUSH32 0x4469737075746520636173657320646F65736E2774206D617463682064697370 PUSH1 0x0 DUP3 ADD MSTORE PUSH32 0x75746520636173657320616772656564207C7C2052657472696576696E672064 PUSH1 0x20 DUP3 ADD MSTORE PUSH32 0x6973707574652063617365732066726F6D20636F6E7472616374206661696C65 PUSH1 0x40 DUP3 ADD MSTORE PUSH32 0x642C20706C656173652072657669736520676574446973707574654361736573 PUSH1 0x60 DUP3 ADD MSTORE PUSH32 0x28292066756E6374696F6E000000000000000000000000000000000000000000 PUSH1 0x80 DUP3 ADD MSTORE POP JUMP JUMPDEST PUSH1 0x0 PUSH3 0x1B1C PUSH1 0x8B DUP4 PUSH3 0x1347 JUMP JUMPDEST SWAP2 POP PUSH3 0x1B29 DUP3 PUSH3 0x1A4C JUMP JUMPDEST PUSH1 0xA0 DUP3 ADD SWAP1 POP SWAP2 SWAP1 POP JUMP JUMPDEST PUSH1 0x0 PUSH1 0x20 DUP3 ADD SWAP1 POP DUP2 DUP2 SUB PUSH1 0x0 DUP4 ADD MSTORE PUSH3 0x1B4F DUP2 PUSH3 0x1B0D JUMP JUMPDEST SWAP1 POP SWAP2 SWAP1 POP JUMP JUMPDEST PUSH3 0x1B61 DUP2 PUSH3 0x124E JUMP JUMPDEST DUP3 MSTORE POP POP JUMP JUMPDEST PUSH3 0x1B72 DUP2 PUSH3 0x12DA JUMP JUMPDEST DUP3 MSTORE POP POP JUMP JUMPDEST PUSH1 0x0 PUSH1 0xC0 DUP3 ADD SWAP1 POP PUSH3 0x1B8F PUSH1 0x0 DUP4 ADD DUP10 PUSH3 0x1B56 JUMP JUMPDEST PUSH3 0x1B9E PUSH1 0x20 DUP4 ADD DUP9 PUSH3 0x1B56 JUMP JUMPDEST PUSH3 0x1BAD PUSH1 0x40 DUP4 ADD DUP8 PUSH3 0x1B67 JUMP JUMPDEST PUSH3 0x1BBC PUSH1 0x60 DUP4 ADD DUP7 PUSH3 0x1B56 JUMP JUMPDEST PUSH3 0x1BCB PUSH1 0x80 DUP4 ADD DUP6 PUSH3 0x1B67 JUMP JUMPDEST PUSH3 0x1BDA PUSH1 0xA0 DUP4 ADD DUP5 PUSH3 0x1B67 JUMP JUMPDEST SWAP8 SWAP7 POP POP POP POP POP POP POP JUMP JUMPDEST PUSH1 0x0 PUSH1 0x40 DUP3 ADD SWAP1 POP PUSH3 0x1BFC PUSH1 0x0 DUP4 ADD DUP6 PUSH3 0x1B56 JUMP JUMPDEST PUSH3 0x1C0B PUSH1 0x20 DUP4 ADD DUP5 PUSH3 0x1B56 JUMP JUMPDEST SWAP4 SWAP3 POP POP POP JUMP JUMPDEST PUSH32 0x4469737075746520636173657320646F65736E2774206D617463682064697370 PUSH1 0x0 DUP3 ADD MSTORE PUSH32 0x7574652063617365732061677265656400000000000000000000000000000000 PUSH1 0x20 DUP3 ADD MSTORE POP JUMP JUMPDEST PUSH1 0x0 PUSH3 0x1C70 PUSH1 0x30 DUP4 PUSH3 0x1347 JUMP JUMPDEST SWAP2 POP PUSH3 0x1C7D DUP3 PUSH3 0x1C12 JUMP JUMPDEST PUSH1 0x40 DUP3 ADD SWAP1 POP SWAP2 SWAP1 POP JUMP JUMPDEST PUSH1 0x0 PUSH1 0x20 DUP3 ADD SWAP1 POP DUP2 DUP2 SUB PUSH1 0x0 DUP4 ADD MSTORE PUSH3 0x1CA3 DUP2 PUSH3 0x1C61 JUMP JUMPDEST SWAP1 POP SWAP2 SWAP1 POP JUMP JUMPDEST PUSH32 0x4E487B7100000000000000000000000000000000000000000000000000000000 PUSH1 0x0 MSTORE PUSH1 0x11 PUSH1 0x4 MSTORE PUSH1 0x24 PUSH1 0x0 REVERT JUMPDEST PUSH1 0x0 PUSH3 0x1CE6 DUP3 PUSH3 0x12DA JUMP JUMPDEST SWAP2 POP PUSH3 0x1CF3 DUP4 PUSH3 0x12DA JUMP JUMPDEST SWAP3 POP DUP3 DUP3 MUL PUSH3 0x1D03 DUP2 PUSH3 0x12DA JUMP JUMPDEST SWAP2 POP DUP3 DUP3 DIV DUP5 EQ DUP4 ISZERO OR PUSH3 0x1D1D JUMPI PUSH3 0x1D1C PUSH3 0x1CAA JUMP JUMPDEST JUMPDEST POP SWAP3 SWAP2 POP POP JUMP JUMPDEST PUSH32 0x4E487B7100000000000000000000000000000000000000000000000000000000 PUSH1 0x0 MSTORE PUSH1 0x12 PUSH1 0x4 MSTORE PUSH1 0x24 PUSH1 0x0 REVERT JUMPDEST PUSH1 0x0 PUSH3 0x1D60 DUP3 PUSH3 0x12DA JUMP JUMPDEST SWAP2 POP PUSH3 0x1D6D DUP4 PUSH3 0x12DA JUMP JUMPDEST SWAP3 POP DUP3 PUSH3 0x1D80 JUMPI PUSH3 0x1D7F PUSH3 0x1D24 JUMP JUMPDEST JUMPDEST DUP3 DUP3 DIV SWAP1 POP SWAP3 SWAP2 POP POP JUMP JUMPDEST PUSH1 0x0 PUSH1 0x40 DUP3 ADD SWAP1 POP PUSH3 0x1DA2 PUSH1 0x0 DUP4 ADD DUP6 PUSH3 0x1B56 JUMP JUMPDEST PUSH3 0x1DB1 PUSH1 0x20 DUP4 ADD DUP5 PUSH3 0x1092 JUMP JUMPDEST SWAP4 SWAP3 POP POP POP JUMP INVALID PUSH1 0x80 PUSH1 0x40 MSTORE CALLVALUE DUP1 ISZERO PUSH3 0x11 JUMPI PUSH1 0x0 DUP1 REVERT JUMPDEST POP PUSH1 0x40 MLOAD PUSH3 0x1CCE CODESIZE SUB DUP1 PUSH3 0x1CCE DUP4 CODECOPY DUP2 DUP2 ADD PUSH1 0x40 MSTORE DUP2 ADD SWAP1 PUSH3 0x37 SWAP2 SWAP1 PUSH3 0x20D JUMP JUMPDEST CALLER PUSH1 0x0 DUP1 PUSH2 0x100 EXP DUP2 SLOAD DUP2 PUSH20 0xFFFFFFFFFFFFFFFFFFFFFFFFFFFFFFFFFFFFFFFF MUL NOT AND SWAP1 DUP4 PUSH20 0xFFFFFFFFFFFFFFFFFFFFFFFFFFFFFFFFFFFFFFFF AND MUL OR SWAP1 SSTORE POP DUP6 PUSH1 0x1 PUSH1 0x0 PUSH2 0x100 EXP DUP2 SLOAD DUP2 PUSH20 0xFFFFFFFFFFFFFFFFFFFFFFFFFFFFFFFFFFFFFFFF MUL NOT AND SWAP1 DUP4 PUSH20 0xFFFFFFFFFFFFFFFFFFFFFFFFFFFFFFFFFFFFFFFF AND MUL OR SWAP1 SSTORE POP DUP5 PUSH1 0x2 PUSH1 0x0 PUSH2 0x100 EXP DUP2 SLOAD DUP2 PUSH20 0xFFFFFFFFFFFFFFFFFFFFFFFFFFFFFFFFFFFFFFFF MUL NOT AND SWAP1 DUP4 PUSH20 0xFFFFFFFFFFFFFFFFFFFFFFFFFFFFFFFFFFFFFFFF AND MUL OR SWAP1 SSTORE POP DUP4 PUSH1 0x3 DUP2 SWAP1 SSTORE POP DUP3 PUSH1 0x7 PUSH1 0x0 PUSH2 0x100 EXP DUP2 SLOAD DUP2 PUSH20 0xFFFFFFFFFFFFFFFFFFFFFFFFFFFFFFFFFFFFFFFF MUL NOT AND SWAP1 DUP4 PUSH20 0xFFFFFFFFFFFFFFFFFFFFFFFFFFFFFFFFFFFFFFFF AND MUL OR SWAP1 SSTORE POP DUP2 PUSH1 0x5 DUP2 SWAP1 SSTORE POP DUP1 TIMESTAMP PUSH3 0x156 SWAP2 SWAP1 PUSH3 0x2D8 JUMP JUMPDEST PUSH1 0x8 DUP2 SWAP1 SSTORE POP POP POP POP POP POP POP PUSH3 0x313 JUMP JUMPDEST PUSH1 0x0 DUP1 REVERT JUMPDEST PUSH1 0x0 PUSH20 0xFFFFFFFFFFFFFFFFFFFFFFFFFFFFFFFFFFFFFFFF DUP3 AND SWAP1 POP SWAP2 SWAP1 POP JUMP JUMPDEST PUSH1 0x0 PUSH3 0x19A DUP3 PUSH3 0x16D JUMP JUMPDEST SWAP1 POP SWAP2 SWAP1 POP JUMP JUMPDEST PUSH3 0x1AC DUP2 PUSH3 0x18D JUMP JUMPDEST DUP2 EQ PUSH3 0x1B8 JUMPI PUSH1 0x0 DUP1 REVERT JUMPDEST POP JUMP JUMPDEST PUSH1 0x0 DUP2 MLOAD SWAP1 POP PUSH3 0x1CC DUP2 PUSH3 0x1A1 JUMP JUMPDEST SWAP3 SWAP2 POP POP JUMP JUMPDEST PUSH1 0x0 DUP2 SWAP1 POP SWAP2 SWAP1 POP JUMP JUMPDEST PUSH3 0x1E7 DUP2 PUSH3 0x1D2 JUMP JUMPDEST DUP2 EQ PUSH3 0x1F3 JUMPI PUSH1 0x0 DUP1 REVERT JUMPDEST POP JUMP JUMPDEST PUSH1 0x0 DUP2 MLOAD SWAP1 POP PUSH3 0x207 DUP2 PUSH3 0x1DC JUMP JUMPDEST SWAP3 SWAP2 POP POP JUMP JUMPDEST PUSH1 0x0 DUP1 PUSH1 0x0 DUP1 PUSH1 0x0 DUP1 PUSH1 0xC0 DUP8 DUP10 SUB SLT ISZERO PUSH3 0x22D JUMPI PUSH3 0x22C PUSH3 0x168 JUMP JUMPDEST JUMPDEST PUSH1 0x0 PUSH3 0x23D DUP10 DUP3 DUP11 ADD PUSH3 0x1BB JUMP JUMPDEST SWAP7 POP POP PUSH1 0x20 PUSH3 0x250 DUP10 DUP3 DUP11 ADD PUSH3 0x1BB JUMP JUMPDEST SWAP6 POP POP PUSH1 0x40 PUSH3 0x263 DUP10 DUP3 DUP11 ADD PUSH3 0x1F6 JUMP JUMPDEST SWAP5 POP POP PUSH1 0x60 PUSH3 0x276 DUP10 DUP3 DUP11 ADD PUSH3 0x1BB JUMP JUMPDEST SWAP4 POP POP PUSH1 0x80 PUSH3 0x289 DUP10 DUP3 DUP11 ADD PUSH3 0x1F6 JUMP JUMPDEST SWAP3 POP POP PUSH1 0xA0 PUSH3 0x29C DUP10 DUP3 DUP11 ADD PUSH3 0x1F6 JUMP JUMPDEST SWAP2 POP POP SWAP3 SWAP6 POP SWAP3 SWAP6 POP SWAP3 SWAP6 JUMP JUMPDEST PUSH32 0x4E487B7100000000000000000000000000000000000000000000000000000000 PUSH1 0x0 MSTORE PUSH1 0x11 PUSH1 0x4 MSTORE PUSH1 0x24 PUSH1 0x0 REVERT JUMPDEST PUSH1 0x0 PUSH3 0x2E5 DUP3 PUSH3 0x1D2 JUMP JUMPDEST SWAP2 POP PUSH3 0x2F2 DUP4 PUSH3 0x1D2 JUMP JUMPDEST SWAP3 POP DUP3 DUP3 ADD SWAP1 POP DUP1 DUP3 GT ISZERO PUSH3 0x30D JUMPI PUSH3 0x30C PUSH3 0x2A9 JUMP JUMPDEST JUMPDEST SWAP3 SWAP2 POP POP JUMP JUMPDEST PUSH2 0x19AB DUP1 PUSH3 0x323 PUSH1 0x0 CODECOPY PUSH1 0x0 RETURN INVALID PUSH1 0x80 PUSH1 0x40 MSTORE CALLVALUE DUP1 ISZERO PUSH2 0x10 JUMPI PUSH1 0x0 DUP1 REVERT JUMPDEST POP PUSH1 0x4 CALLDATASIZE LT PUSH2 0xCF JUMPI PUSH1 0x0 CALLDATALOAD PUSH1 0xE0 SHR DUP1 PUSH4 0xAA93B1B3 GT PUSH2 0x8C JUMPI DUP1 PUSH4 0xBE34D4C1 GT PUSH2 0x66 JUMPI DUP1 PUSH4 0xBE34D4C1 EQ PUSH2 0x1DC JUMPI DUP1 PUSH4 0xC52F2E08 EQ PUSH2 0x1FA JUMPI DUP1 PUSH4 0xE1F6C098 EQ PUSH2 0x218 JUMPI DUP1 PUSH4 0xFC0C546A EQ PUSH2 0x236 JUMPI PUSH2 0xCF JUMP JUMPDEST DUP1 PUSH4 0xAA93B1B3 EQ PUSH2 0x170 JUMPI DUP1 PUSH4 0xAE90B213 EQ PUSH2 0x18E JUMPI DUP1 PUSH4 0xB95D387B EQ PUSH2 0x1AC JUMPI PUSH2 0xCF JUMP JUMPDEST DUP1 PUSH4 0xA3F013F EQ PUSH2 0xD4 JUMPI DUP1 PUSH4 0x123119CD EQ PUSH2 0xF2 JUMPI DUP1 PUSH4 0x3B76594D EQ PUSH2 0x110 JUMPI DUP1 PUSH4 0x41979144 EQ PUSH2 0x12C JUMPI DUP1 PUSH4 0x4BE9B707 EQ PUSH2 0x14A JUMPI DUP1 PUSH4 0x69D89575 EQ PUSH2 0x166 JUMPI JUMPDEST PUSH1 0x0 DUP1 REVERT JUMPDEST PUSH2 0xDC PUSH2 0x254 JUMP JUMPDEST PUSH1 0x40 MLOAD PUSH2 0xE9 SWAP2 SWAP1 PUSH2 0xC22 JUMP JUMPDEST PUSH1 0x40 MLOAD DUP1 SWAP2 SUB SWAP1 RETURN JUMPDEST PUSH2 0xFA PUSH2 0x25A JUMP JUMPDEST PUSH1 0x40 MLOAD PUSH2 0x107 SWAP2 SWAP1 PUSH2 0xC7E JUMP JUMPDEST PUSH1 0x40 MLOAD DUP1 SWAP2 SUB SWAP1 RETURN JUMPDEST PUSH2 0x12A PUSH1 0x4 DUP1 CALLDATASIZE SUB DUP2 ADD SWAP1 PUSH2 0x125 SWAP2 SWAP1 PUSH2 0xCD9 JUMP JUMPDEST PUSH2 0x280 JUMP JUMPDEST STOP JUMPDEST PUSH2 0x134 PUSH2 0x4C7 JUMP JUMPDEST PUSH1 0x40 MLOAD PUSH2 0x141 SWAP2 SWAP1 PUSH2 0xC22 JUMP JUMPDEST PUSH1 0x40 MLOAD DUP1 SWAP2 SUB SWAP1 RETURN JUMPDEST PUSH2 0x164 PUSH1 0x4 DUP1 CALLDATASIZE SUB DUP2 ADD SWAP1 PUSH2 0x15F SWAP2 SWAP1 PUSH2 0xF32 JUMP JUMPDEST PUSH2 0x4CD JUMP JUMPDEST STOP JUMPDEST PUSH2 0x16E PUSH2 0x577 JUMP JUMPDEST STOP JUMPDEST PUSH2 0x178 PUSH2 0x6E3 JUMP JUMPDEST PUSH1 0x40 MLOAD PUSH2 0x185 SWAP2 SWAP1 PUSH2 0xC22 JUMP JUMPDEST PUSH1 0x40 MLOAD DUP1 SWAP2 SUB SWAP1 RETURN JUMPDEST PUSH2 0x196 PUSH2 0x6E9 JUMP JUMPDEST PUSH1 0x40 MLOAD PUSH2 0x1A3 SWAP2 SWAP1 PUSH2 0xC7E JUMP JUMPDEST PUSH1 0x40 MLOAD DUP1 SWAP2 SUB SWAP1 RETURN JUMPDEST PUSH2 0x1C6 PUSH1 0x4 DUP1 CALLDATASIZE SUB DUP2 ADD SWAP1 PUSH2 0x1C1 SWAP2 SWAP1 PUSH2 0xCD9 JUMP JUMPDEST PUSH2 0x70F JUMP JUMPDEST PUSH1 0x40 MLOAD PUSH2 0x1D3 SWAP2 SWAP1 PUSH2 0xFFA JUMP JUMPDEST PUSH1 0x40 MLOAD DUP1 SWAP2 SUB SWAP1 RETURN JUMPDEST PUSH2 0x1E4 PUSH2 0x7BB JUMP JUMPDEST PUSH1 0x40 MLOAD PUSH2 0x1F1 SWAP2 SWAP1 PUSH2 0xC22 JUMP JUMPDEST PUSH1 0x40 MLOAD DUP1 SWAP2 SUB SWAP1 RETURN JUMPDEST PUSH2 0x202 PUSH2 0x7C1 JUMP JUMPDEST PUSH1 0x40 MLOAD PUSH2 0x20F SWAP2 SWAP1 PUSH2 0x1037 JUMP JUMPDEST PUSH1 0x40 MLOAD DUP1 SWAP2 SUB SWAP1 RETURN JUMPDEST PUSH2 0x220 PUSH2 0x7D4 JUMP JUMPDEST PUSH1 0x40 MLOAD PUSH2 0x22D SWAP2 SWAP1 PUSH2 0xC7E JUMP JUMPDEST PUSH1 0x40 MLOAD DUP1 SWAP2 SUB SWAP1 RETURN JUMPDEST PUSH2 0x23E PUSH2 0x7F8 JUMP JUMPDEST PUSH1 0x40 MLOAD PUSH2 0x24B SWAP2 SWAP1 PUSH2 0x10B1 JUMP JUMPDEST PUSH1 0x40 MLOAD DUP1 SWAP2 SUB SWAP1 RETURN JUMPDEST PUSH1 0x8 SLOAD DUP2 JUMP JUMPDEST PUSH1 0x1 PUSH1 0x0 SWAP1 SLOAD SWAP1 PUSH2 0x100 EXP SWAP1 DIV PUSH20 0xFFFFFFFFFFFFFFFFFFFFFFFFFFFFFFFFFFFFFFFF AND DUP2 JUMP JUMPDEST PUSH1 0x1 PUSH1 0x0 SWAP1 SLOAD SWAP1 PUSH2 0x100 EXP SWAP1 DIV PUSH20 0xFFFFFFFFFFFFFFFFFFFFFFFFFFFFFFFFFFFFFFFF AND PUSH20 0xFFFFFFFFFFFFFFFFFFFFFFFFFFFFFFFFFFFFFFFF AND CALLER PUSH20 0xFFFFFFFFFFFFFFFFFFFFFFFFFFFFFFFFFFFFFFFF AND EQ PUSH2 0x310 JUMPI PUSH1 0x40 MLOAD PUSH32 0x8C379A000000000000000000000000000000000000000000000000000000000 DUP2 MSTORE PUSH1 0x4 ADD PUSH2 0x307 SWAP1 PUSH2 0x1118 JUMP JUMPDEST PUSH1 0x40 MLOAD DUP1 SWAP2 SUB SWAP1 REVERT JUMPDEST PUSH1 0x9 PUSH1 0x0 SWAP1 SLOAD SWAP1 PUSH2 0x100 EXP SWAP1 DIV PUSH1 0xFF AND ISZERO PUSH2 0x360 JUMPI PUSH1 0x40 MLOAD PUSH32 0x8C379A000000000000000000000000000000000000000000000000000000000 DUP2 MSTORE PUSH1 0x4 ADD PUSH2 0x357 SWAP1 PUSH2 0x1184 JUMP JUMPDEST PUSH1 0x40 MLOAD DUP1 SWAP2 SUB SWAP1 REVERT JUMPDEST DUP1 PUSH1 0x5 SLOAD EQ PUSH2 0x3A4 JUMPI PUSH1 0x40 MLOAD PUSH32 0x8C379A000000000000000000000000000000000000000000000000000000000 DUP2 MSTORE PUSH1 0x4 ADD PUSH2 0x39B SWAP1 PUSH2 0x1216 JUMP JUMPDEST PUSH1 0x40 MLOAD DUP1 SWAP2 SUB SWAP1 REVERT JUMPDEST PUSH1 0x1 PUSH1 0x9 PUSH1 0x0 PUSH2 0x100 EXP DUP2 SLOAD DUP2 PUSH1 0xFF MUL NOT AND SWAP1 DUP4 ISZERO ISZERO MUL OR SWAP1 SSTORE POP PUSH1 0x7 PUSH1 0x0 SWAP1 SLOAD SWAP1 PUSH2 0x100 EXP SWAP1 DIV PUSH20 0xFFFFFFFFFFFFFFFFFFFFFFFFFFFFFFFFFFFFFFFF AND PUSH20 0xFFFFFFFFFFFFFFFFFFFFFFFFFFFFFFFFFFFFFFFF AND PUSH4 0x23B872DD PUSH1 0x1 PUSH1 0x0 SWAP1 SLOAD SWAP1 PUSH2 0x100 EXP SWAP1 DIV PUSH20 0xFFFFFFFFFFFFFFFFFFFFFFFFFFFFFFFFFFFFFFFF AND ADDRESS PUSH1 0x6 SLOAD PUSH1 0x40 MLOAD DUP5 PUSH4 0xFFFFFFFF AND PUSH1 0xE0 SHL DUP2 MSTORE PUSH1 0x4 ADD PUSH2 0x442 SWAP4 SWAP3 SWAP2 SWAP1 PUSH2 0x1236 JUMP JUMPDEST PUSH1 0x20 PUSH1 0x40 MLOAD DUP1 DUP4 SUB DUP2 PUSH1 0x0 DUP8 GAS CALL ISZERO DUP1 ISZERO PUSH2 0x461 JUMPI RETURNDATASIZE PUSH1 0x0 DUP1 RETURNDATACOPY RETURNDATASIZE PUSH1 0x0 REVERT JUMPDEST POP POP POP POP PUSH1 0x40 MLOAD RETURNDATASIZE PUSH1 0x1F NOT PUSH1 0x1F DUP3 ADD AND DUP3 ADD DUP1 PUSH1 0x40 MSTORE POP DUP2 ADD SWAP1 PUSH2 0x485 SWAP2 SWAP1 PUSH2 0x1299 JUMP JUMPDEST PUSH2 0x4C4 JUMPI PUSH1 0x40 MLOAD PUSH32 0x8C379A000000000000000000000000000000000000000000000000000000000 DUP2 MSTORE PUSH1 0x4 ADD PUSH2 0x4BB SWAP1 PUSH2 0x1312 JUMP JUMPDEST PUSH1 0x40 MLOAD DUP1 SWAP2 SUB SWAP1 REVERT JUMPDEST POP JUMP JUMPDEST PUSH1 0x6 SLOAD DUP2 JUMP JUMPDEST PUSH1 0x2 PUSH1 0x0 SWAP1 SLOAD SWAP1 PUSH2 0x100 EXP SWAP1 DIV PUSH20 0xFFFFFFFFFFFFFFFFFFFFFFFFFFFFFFFFFFFFFFFF AND PUSH20 0xFFFFFFFFFFFFFFFFFFFFFFFFFFFFFFFFFFFFFFFF AND CALLER PUSH20 0xFFFFFFFFFFFFFFFFFFFFFFFFFFFFFFFFFFFFFFFF AND EQ PUSH2 0x55D JUMPI PUSH1 0x40 MLOAD PUSH32 0x8C379A000000000000000000000000000000000000000000000000000000000 DUP2 MSTORE PUSH1 0x4 ADD PUSH2 0x554 SWAP1 PUSH2 0x1118 JUMP JUMPDEST PUSH1 0x40 MLOAD DUP1 SWAP2 SUB SWAP1 REVERT JUMPDEST DUP1 PUSH1 0x4 SWAP1 DUP1 MLOAD SWAP1 PUSH1 0x20 ADD SWAP1 PUSH2 0x573 SWAP3 SWAP2 SWAP1 PUSH2 0xB2F JUMP JUMPDEST POP POP JUMP JUMPDEST PUSH1 0x0 DUP1 SLOAD SWAP1 PUSH2 0x100 EXP SWAP1 DIV PUSH20 0xFFFFFFFFFFFFFFFFFFFFFFFFFFFFFFFFFFFFFFFF AND PUSH20 0xFFFFFFFFFFFFFFFFFFFFFFFFFFFFFFFFFFFFFFFF AND CALLER PUSH20 0xFFFFFFFFFFFFFFFFFFFFFFFFFFFFFFFFFFFFFFFF AND EQ PUSH2 0x605 JUMPI PUSH1 0x40 MLOAD PUSH32 0x8C379A000000000000000000000000000000000000000000000000000000000 DUP2 MSTORE PUSH1 0x4 ADD PUSH2 0x5FC SWAP1 PUSH2 0x1118 JUMP JUMPDEST PUSH1 0x40 MLOAD DUP1 SWAP2 SUB SWAP1 REVERT JUMPDEST PUSH1 0x9 PUSH1 0x0 SWAP1 SLOAD SWAP1 PUSH2 0x100 EXP SWAP1 DIV PUSH1 0xFF AND PUSH2 0x654 JUMPI PUSH1 0x40 MLOAD PUSH32 0x8C379A000000000000000000000000000000000000000000000000000000000 DUP2 MSTORE PUSH1 0x4 ADD PUSH2 0x64B SWAP1 PUSH2 0x137E JUMP JUMPDEST PUSH1 0x40 MLOAD DUP1 SWAP2 SUB SWAP1 REVERT JUMPDEST PUSH1 0x8 SLOAD TIMESTAMP LT ISZERO PUSH2 0x699 JUMPI PUSH1 0x40 MLOAD PUSH32 0x8C379A000000000000000000000000000000000000000000000000000000000 DUP2 MSTORE PUSH1 0x4 ADD PUSH2 0x690 SWAP1 PUSH2 0x13EA JUMP JUMPDEST PUSH1 0x40 MLOAD DUP1 SWAP2 SUB SWAP1 REVERT JUMPDEST PUSH1 0x9 PUSH1 0x0 SWAP1 SLOAD SWAP1 PUSH2 0x100 EXP SWAP1 DIV PUSH1 0xFF AND DUP1 ISZERO PUSH2 0x6B7 JUMPI POP PUSH1 0x8 SLOAD TIMESTAMP LT ISZERO JUMPDEST ISZERO PUSH2 0x6E1 JUMPI PUSH1 0x3 SLOAD PUSH1 0x4 DUP1 SLOAD SWAP1 POP SUB PUSH2 0x6D7 JUMPI PUSH2 0x6D2 PUSH2 0x81E JUMP JUMPDEST PUSH2 0x6E0 JUMP JUMPDEST PUSH2 0x6DF PUSH2 0x97F JUMP JUMPDEST JUMPDEST JUMPDEST JUMP JUMPDEST PUSH1 0x3 SLOAD DUP2 JUMP JUMPDEST PUSH1 0x2 PUSH1 0x0 SWAP1 SLOAD SWAP1 PUSH2 0x100 EXP SWAP1 DIV PUSH20 0xFFFFFFFFFFFFFFFFFFFFFFFFFFFFFFFFFFFFFFFF AND DUP2 JUMP JUMPDEST PUSH1 0x4 DUP2 DUP2 SLOAD DUP2 LT PUSH2 0x71F JUMPI PUSH1 0x0 DUP1 REVERT JUMPDEST SWAP1 PUSH1 0x0 MSTORE PUSH1 0x20 PUSH1 0x0 KECCAK256 ADD PUSH1 0x0 SWAP2 POP SWAP1 POP DUP1 SLOAD PUSH2 0x73A SWAP1 PUSH2 0x1439 JUMP JUMPDEST DUP1 PUSH1 0x1F ADD PUSH1 0x20 DUP1 SWAP2 DIV MUL PUSH1 0x20 ADD PUSH1 0x40 MLOAD SWAP1 DUP2 ADD PUSH1 0x40 MSTORE DUP1 SWAP3 SWAP2 SWAP1 DUP2 DUP2 MSTORE PUSH1 0x20 ADD DUP3 DUP1 SLOAD PUSH2 0x766 SWAP1 PUSH2 0x1439 JUMP JUMPDEST DUP1 ISZERO PUSH2 0x7B3 JUMPI DUP1 PUSH1 0x1F LT PUSH2 0x788 JUMPI PUSH2 0x100 DUP1 DUP4 SLOAD DIV MUL DUP4 MSTORE SWAP2 PUSH1 0x20 ADD SWAP2 PUSH2 0x7B3 JUMP JUMPDEST DUP3 ADD SWAP2 SWAP1 PUSH1 0x0 MSTORE PUSH1 0x20 PUSH1 0x0 KECCAK256 SWAP1 JUMPDEST DUP2 SLOAD DUP2 MSTORE SWAP1 PUSH1 0x1 ADD SWAP1 PUSH1 0x20 ADD DUP1 DUP4 GT PUSH2 0x796 JUMPI DUP3 SWAP1 SUB PUSH1 0x1F AND DUP3 ADD SWAP2 JUMPDEST POP POP POP POP POP DUP2 JUMP JUMPDEST PUSH1 0x5 SLOAD DUP2 JUMP JUMPDEST PUSH1 0x9 PUSH1 0x0 SWAP1 SLOAD SWAP1 PUSH2 0x100 EXP SWAP1 DIV PUSH1 0xFF AND DUP2 JUMP JUMPDEST PUSH1 0x0 DUP1 SLOAD SWAP1 PUSH2 0x100 EXP SWAP1 DIV PUSH20 0xFFFFFFFFFFFFFFFFFFFFFFFFFFFFFFFFFFFFFFFF AND DUP2 JUMP JUMPDEST PUSH1 0x7 PUSH1 0x0 SWAP1 SLOAD SWAP1 PUSH2 0x100 EXP SWAP1 DIV PUSH20 0xFFFFFFFFFFFFFFFFFFFFFFFFFFFFFFFFFFFFFFFF AND DUP2 JUMP JUMPDEST PUSH1 0x7 PUSH1 0x0 SWAP1 SLOAD SWAP1 PUSH2 0x100 EXP SWAP1 DIV PUSH20 0xFFFFFFFFFFFFFFFFFFFFFFFFFFFFFFFFFFFFFFFF AND PUSH20 0xFFFFFFFFFFFFFFFFFFFFFFFFFFFFFFFFFFFFFFFF AND PUSH4 0xA9059CBB PUSH1 0x2 PUSH1 0x0 SWAP1 SLOAD SWAP1 PUSH2 0x100 EXP SWAP1 DIV PUSH20 0xFFFFFFFFFFFFFFFFFFFFFFFFFFFFFFFFFFFFFFFF AND PUSH1 0x6 SLOAD PUSH1 0x40 MLOAD DUP4 PUSH4 0xFFFFFFFF AND PUSH1 0xE0 SHL DUP2 MSTORE PUSH1 0x4 ADD PUSH2 0x89F SWAP3 SWAP2 SWAP1 PUSH2 0x146A JUMP JUMPDEST PUSH1 0x20 PUSH1 0x40 MLOAD DUP1 DUP4 SUB DUP2 PUSH1 0x0 DUP8 GAS CALL ISZERO DUP1 ISZERO PUSH2 0x8BE JUMPI RETURNDATASIZE PUSH1 0x0 DUP1 RETURNDATACOPY RETURNDATASIZE PUSH1 0x0 REVERT JUMPDEST POP POP POP POP PUSH1 0x40 MLOAD RETURNDATASIZE PUSH1 0x1F NOT PUSH1 0x1F DUP3 ADD AND DUP3 ADD DUP1 PUSH1 0x40 MSTORE POP DUP2 ADD SWAP1 PUSH2 0x8E2 SWAP2 SWAP1 PUSH2 0x1299 JUMP JUMPDEST PUSH2 0x921 JUMPI PUSH1 0x40 MLOAD PUSH32 0x8C379A000000000000000000000000000000000000000000000000000000000 DUP2 MSTORE PUSH1 0x4 ADD PUSH2 0x918 SWAP1 PUSH2 0x14DF JUMP JUMPDEST PUSH1 0x40 MLOAD DUP1 SWAP2 SUB SWAP1 REVERT JUMPDEST PUSH1 0x0 PUSH1 0x9 PUSH1 0x0 PUSH2 0x100 EXP DUP2 SLOAD DUP2 PUSH1 0xFF MUL NOT AND SWAP1 DUP4 ISZERO ISZERO MUL OR SWAP1 SSTORE POP PUSH1 0x0 PUSH1 0x6 DUP2 SWAP1 SSTORE POP PUSH1 0x40 MLOAD PUSH32 0x8C379A000000000000000000000000000000000000000000000000000000000 DUP2 MSTORE PUSH1 0x4 ADD PUSH2 0x976 SWAP1 PUSH2 0x1597 JUMP JUMPDEST PUSH1 0x40 MLOAD DUP1 SWAP2 SUB SWAP1 REVERT JUMPDEST PUSH1 0x9 PUSH1 0x0 SWAP1 SLOAD SWAP1 PUSH2 0x100 EXP SWAP1 DIV PUSH1 0xFF AND PUSH2 0x9CE JUMPI PUSH1 0x40 MLOAD PUSH32 0x8C379A000000000000000000000000000000000000000000000000000000000 DUP2 MSTORE PUSH1 0x4 ADD PUSH2 0x9C5 SWAP1 PUSH2 0x137E JUMP JUMPDEST PUSH1 0x40 MLOAD DUP1 SWAP2 SUB SWAP1 REVERT JUMPDEST PUSH1 0x7 PUSH1 0x0 SWAP1 SLOAD SWAP1 PUSH2 0x100 EXP SWAP1 DIV PUSH20 0xFFFFFFFFFFFFFFFFFFFFFFFFFFFFFFFFFFFFFFFF AND PUSH20 0xFFFFFFFFFFFFFFFFFFFFFFFFFFFFFFFFFFFFFFFF AND PUSH4 0xA9059CBB PUSH1 0x1 PUSH1 0x0 SWAP1 SLOAD SWAP1 PUSH2 0x100 EXP SWAP1 DIV PUSH20 0xFFFFFFFFFFFFFFFFFFFFFFFFFFFFFFFFFFFFFFFF AND PUSH1 0x6 SLOAD PUSH1 0x40 MLOAD DUP4 PUSH4 0xFFFFFFFF AND PUSH1 0xE0 SHL DUP2 MSTORE PUSH1 0x4 ADD PUSH2 0xA4F SWAP3 SWAP2 SWAP1 PUSH2 0x146A JUMP JUMPDEST PUSH1 0x20 PUSH1 0x40 MLOAD DUP1 DUP4 SUB DUP2 PUSH1 0x0 DUP8 GAS CALL ISZERO DUP1 ISZERO PUSH2 0xA6E JUMPI RETURNDATASIZE PUSH1 0x0 DUP1 RETURNDATACOPY RETURNDATASIZE PUSH1 0x0 REVERT JUMPDEST POP POP POP POP PUSH1 0x40 MLOAD RETURNDATASIZE PUSH1 0x1F NOT PUSH1 0x1F DUP3 ADD AND DUP3 ADD DUP1 PUSH1 0x40 MSTORE POP DUP2 ADD SWAP1 PUSH2 0xA92 SWAP2 SWAP1 PUSH2 0x1299 JUMP JUMPDEST PUSH2 0xAD1 JUMPI PUSH1 0x40 MLOAD PUSH32 0x8C379A000000000000000000000000000000000000000000000000000000000 DUP2 MSTORE PUSH1 0x4 ADD PUSH2 0xAC8 SWAP1 PUSH2 0x1603 JUMP JUMPDEST PUSH1 0x40 MLOAD DUP1 SWAP2 SUB SWAP1 REVERT JUMPDEST PUSH1 0x0 PUSH1 0x9 PUSH1 0x0 PUSH2 0x100 EXP DUP2 SLOAD DUP2 PUSH1 0xFF MUL NOT AND SWAP1 DUP4 ISZERO ISZERO MUL OR SWAP1 SSTORE POP PUSH1 0x0 PUSH1 0x6 DUP2 SWAP1 SSTORE POP PUSH1 0x40 MLOAD PUSH32 0x8C379A000000000000000000000000000000000000000000000000000000000 DUP2 MSTORE PUSH1 0x4 ADD PUSH2 0xB26 SWAP1 PUSH2 0x16E1 JUMP JUMPDEST PUSH1 0x40 MLOAD DUP1 SWAP2 SUB SWAP1 REVERT JUMPDEST DUP3 DUP1 SLOAD DUP3 DUP3 SSTORE SWAP1 PUSH1 0x0 MSTORE PUSH1 0x20 PUSH1 0x0 KECCAK256 SWAP1 DUP2 ADD SWAP3 DUP3 ISZERO PUSH2 0xB77 JUMPI SWAP2 PUSH1 0x20 MUL DUP3 ADD JUMPDEST DUP3 DUP2 GT ISZERO PUSH2 0xB76 JUMPI DUP3 MLOAD DUP3 SWAP1 DUP2 PUSH2 0xB66 SWAP2 SWAP1 PUSH2 0x18A3 JUMP JUMPDEST POP SWAP2 PUSH1 0x20 ADD SWAP2 SWAP1 PUSH1 0x1 ADD SWAP1 PUSH2 0xB4F JUMP JUMPDEST JUMPDEST POP SWAP1 POP PUSH2 0xB84 SWAP2 SWAP1 PUSH2 0xB88 JUMP JUMPDEST POP SWAP1 JUMP JUMPDEST JUMPDEST DUP1 DUP3 GT ISZERO PUSH2 0xBA8 JUMPI PUSH1 0x0 DUP2 DUP2 PUSH2 0xB9F SWAP2 SWAP1 PUSH2 0xBAC JUMP JUMPDEST POP PUSH1 0x1 ADD PUSH2 0xB89 JUMP JUMPDEST POP SWAP1 JUMP JUMPDEST POP DUP1 SLOAD PUSH2 0xBB8 SWAP1 PUSH2 0x1439 JUMP JUMPDEST PUSH1 0x0 DUP3 SSTORE DUP1 PUSH1 0x1F LT PUSH2 0xBCA JUMPI POP PUSH2 0xBE9 JUMP JUMPDEST PUSH1 0x1F ADD PUSH1 0x20 SWAP1 DIV SWAP1 PUSH1 0x0 MSTORE PUSH1 0x20 PUSH1 0x0 KECCAK256 SWAP1 DUP2 ADD SWAP1 PUSH2 0xBE8 SWAP2 SWAP1 PUSH2 0xBEC JUMP JUMPDEST JUMPDEST POP JUMP JUMPDEST JUMPDEST DUP1 DUP3 GT ISZERO PUSH2 0xC05 JUMPI PUSH1 0x0 DUP2 PUSH1 0x0 SWAP1 SSTORE POP PUSH1 0x1 ADD PUSH2 0xBED JUMP JUMPDEST POP SWAP1 JUMP JUMPDEST PUSH1 0x0 DUP2 SWAP1 POP SWAP2 SWAP1 POP JUMP JUMPDEST PUSH2 0xC1C DUP2 PUSH2 0xC09 JUMP JUMPDEST DUP3 MSTORE POP POP JUMP JUMPDEST PUSH1 0x0 PUSH1 0x20 DUP3 ADD SWAP1 POP PUSH2 0xC37 PUSH1 0x0 DUP4 ADD DUP5 PUSH2 0xC13 JUMP JUMPDEST SWAP3 SWAP2 POP POP JUMP JUMPDEST PUSH1 0x0 PUSH20 0xFFFFFFFFFFFFFFFFFFFFFFFFFFFFFFFFFFFFFFFF DUP3 AND SWAP1 POP SWAP2 SWAP1 POP JUMP JUMPDEST PUSH1 0x0 PUSH2 0xC68 DUP3 PUSH2 0xC3D JUMP JUMPDEST SWAP1 POP SWAP2 SWAP1 POP JUMP JUMPDEST PUSH2 0xC78 DUP2 PUSH2 0xC5D JUMP JUMPDEST DUP3 MSTORE POP POP JUMP JUMPDEST PUSH1 0x0 PUSH1 0x20 DUP3 ADD SWAP1 POP PUSH2 0xC93 PUSH1 0x0 DUP4 ADD DUP5 PUSH2 0xC6F JUMP JUMPDEST SWAP3 SWAP2 POP POP JUMP JUMPDEST PUSH1 0x0 PUSH1 0x40 MLOAD SWAP1 POP SWAP1 JUMP JUMPDEST PUSH1 0x0 DUP1 REVERT JUMPDEST PUSH1 0x0 DUP1 REVERT JUMPDEST PUSH2 0xCB6 DUP2 PUSH2 0xC09 JUMP JUMPDEST DUP2 EQ PUSH2 0xCC1 JUMPI PUSH1 0x0 DUP1 REVERT JUMPDEST POP JUMP JUMPDEST PUSH1 0x0 DUP2 CALLDATALOAD SWAP1 POP PUSH2 0xCD3 DUP2 PUSH2 0xCAD JUMP JUMPDEST SWAP3 SWAP2 POP POP JUMP JUMPDEST PUSH1 0x0 PUSH1 0x20 DUP3 DUP5 SUB SLT ISZERO PUSH2 0xCEF JUMPI PUSH2 0xCEE PUSH2 0xCA3 JUMP JUMPDEST JUMPDEST PUSH1 0x0 PUSH2 0xCFD DUP5 DUP3 DUP6 ADD PUSH2 0xCC4 JUMP JUMPDEST SWAP2 POP POP SWAP3 SWAP2 POP POP JUMP JUMPDEST PUSH1 0x0 DUP1 REVERT JUMPDEST PUSH1 0x0 PUSH1 0x1F NOT PUSH1 0x1F DUP4 ADD AND SWAP1 POP SWAP2 SWAP1 POP JUMP JUMPDEST PUSH32 0x4E487B7100000000000000000000000000000000000000000000000000000000 PUSH1 0x0 MSTORE PUSH1 0x41 PUSH1 0x4 MSTORE PUSH1 0x24 PUSH1 0x0 REVERT JUMPDEST PUSH2 0xD54 DUP3 PUSH2 0xD0B JUMP JUMPDEST DUP2 ADD DUP2 DUP2 LT PUSH8 0xFFFFFFFFFFFFFFFF DUP3 GT OR ISZERO PUSH2 0xD73 JUMPI PUSH2 0xD72 PUSH2 0xD1C JUMP JUMPDEST JUMPDEST DUP1 PUSH1 0x40 MSTORE POP POP POP JUMP JUMPDEST PUSH1 0x0 PUSH2 0xD86 PUSH2 0xC99 JUMP JUMPDEST SWAP1 POP PUSH2 0xD92 DUP3 DUP3 PUSH2 0xD4B JUMP JUMPDEST SWAP2 SWAP1 POP JUMP JUMPDEST PUSH1 0x0 PUSH8 0xFFFFFFFFFFFFFFFF DUP3 GT ISZERO PUSH2 0xDB2 JUMPI PUSH2 0xDB1 PUSH2 0xD1C JUMP JUMPDEST JUMPDEST PUSH1 0x20 DUP3 MUL SWAP1 POP PUSH1 0x20 DUP2 ADD SWAP1 POP SWAP2 SWAP1 POP JUMP JUMPDEST PUSH1 0x0 DUP1 REVERT JUMPDEST PUSH1 0x0 DUP1 REVERT JUMPDEST PUSH1 0x0 PUSH8 0xFFFFFFFFFFFFFFFF DUP3 GT ISZERO PUSH2 0xDE8 JUMPI PUSH2 0xDE7 PUSH2 0xD1C JUMP JUMPDEST JUMPDEST PUSH2 0xDF1 DUP3 PUSH2 0xD0B JUMP JUMPDEST SWAP1 POP PUSH1 0x20 DUP2 ADD SWAP1 POP SWAP2 SWAP1 POP JUMP JUMPDEST DUP3 DUP2 DUP4 CALLDATACOPY PUSH1 0x0 DUP4 DUP4 ADD MSTORE POP POP POP JUMP JUMPDEST PUSH1 0x0 PUSH2 0xE20 PUSH2 0xE1B DUP5 PUSH2 0xDCD JUMP JUMPDEST PUSH2 0xD7C JUMP JUMPDEST SWAP1 POP DUP3 DUP2 MSTORE PUSH1 0x20 DUP2 ADD DUP5 DUP5 DUP5 ADD GT ISZERO PUSH2 0xE3C JUMPI PUSH2 0xE3B PUSH2 0xDC8 JUMP JUMPDEST JUMPDEST PUSH2 0xE47 DUP5 DUP3 DUP6 PUSH2 0xDFE JUMP JUMPDEST POP SWAP4 SWAP3 POP POP POP JUMP JUMPDEST PUSH1 0x0 DUP3 PUSH1 0x1F DUP4 ADD SLT PUSH2 0xE64 JUMPI PUSH2 0xE63 PUSH2 0xD06 JUMP JUMPDEST JUMPDEST DUP2 CALLDATALOAD PUSH2 0xE74 DUP5 DUP3 PUSH1 0x20 DUP7 ADD PUSH2 0xE0D JUMP JUMPDEST SWAP2 POP POP SWAP3 SWAP2 POP POP JUMP JUMPDEST PUSH1 0x0 PUSH2 0xE90 PUSH2 0xE8B DUP5 PUSH2 0xD97 JUMP JUMPDEST PUSH2 0xD7C JUMP JUMPDEST SWAP1 POP DUP1 DUP4 DUP3 MSTORE PUSH1 0x20 DUP3 ADD SWAP1 POP PUSH1 0x20 DUP5 MUL DUP4 ADD DUP6 DUP2 GT ISZERO PUSH2 0xEB3 JUMPI PUSH2 0xEB2 PUSH2 0xDC3 JUMP JUMPDEST JUMPDEST DUP4 JUMPDEST DUP2 DUP2 LT ISZERO PUSH2 0xEFA JUMPI DUP1 CALLDATALOAD PUSH8 0xFFFFFFFFFFFFFFFF DUP2 GT ISZERO PUSH2 0xED8 JUMPI PUSH2 0xED7 PUSH2 0xD06 JUMP JUMPDEST JUMPDEST DUP1 DUP7 ADD PUSH2 0xEE5 DUP10 DUP3 PUSH2 0xE4F JUMP JUMPDEST DUP6 MSTORE PUSH1 0x20 DUP6 ADD SWAP5 POP POP POP PUSH1 0x20 DUP2 ADD SWAP1 POP PUSH2 0xEB5 JUMP JUMPDEST POP POP POP SWAP4 SWAP3 POP POP POP JUMP JUMPDEST PUSH1 0x0 DUP3 PUSH1 0x1F DUP4 ADD SLT PUSH2 0xF19 JUMPI PUSH2 0xF18 PUSH2 0xD06 JUMP JUMPDEST JUMPDEST DUP2 CALLDATALOAD PUSH2 0xF29 DUP5 DUP3 PUSH1 0x20 DUP7 ADD PUSH2 0xE7D JUMP JUMPDEST SWAP2 POP POP SWAP3 SWAP2 POP POP JUMP JUMPDEST PUSH1 0x0 PUSH1 0x20 DUP3 DUP5 SUB SLT ISZERO PUSH2 0xF48 JUMPI PUSH2 0xF47 PUSH2 0xCA3 JUMP JUMPDEST JUMPDEST PUSH1 0x0 DUP3 ADD CALLDATALOAD PUSH8 0xFFFFFFFFFFFFFFFF DUP2 GT ISZERO PUSH2 0xF66 JUMPI PUSH2 0xF65 PUSH2 0xCA8 JUMP JUMPDEST JUMPDEST PUSH2 0xF72 DUP5 DUP3 DUP6 ADD PUSH2 0xF04 JUMP JUMPDEST SWAP2 POP POP SWAP3 SWAP2 POP POP JUMP JUMPDEST PUSH1 0x0 DUP2 MLOAD SWAP1 POP SWAP2 SWAP1 POP JUMP JUMPDEST PUSH1 0x0 DUP3 DUP3 MSTORE PUSH1 0x20 DUP3 ADD SWAP1 POP SWAP3 SWAP2 POP POP JUMP JUMPDEST PUSH1 0x0 JUMPDEST DUP4 DUP2 LT ISZERO PUSH2 0xFB5 JUMPI DUP1 DUP3 ADD MLOAD DUP2 DUP5 ADD MSTORE PUSH1 0x20 DUP2 ADD SWAP1 POP PUSH2 0xF9A JUMP JUMPDEST PUSH1 0x0 DUP5 DUP5 ADD MSTORE POP POP POP POP JUMP JUMPDEST PUSH1 0x0 PUSH2 0xFCC DUP3 PUSH2 0xF7B JUMP JUMPDEST PUSH2 0xFD6 DUP2 DUP6 PUSH2 0xF86 JUMP JUMPDEST SWAP4 POP PUSH2 0xFE6 DUP2 DUP6 PUSH1 0x20 DUP7 ADD PUSH2 0xF97 JUMP JUMPDEST PUSH2 0xFEF DUP2 PUSH2 0xD0B JUMP JUMPDEST DUP5 ADD SWAP2 POP POP SWAP3 SWAP2 POP POP JUMP JUMPDEST PUSH1 0x0 PUSH1 0x20 DUP3 ADD SWAP1 POP DUP2 DUP2 SUB PUSH1 0x0 DUP4 ADD MSTORE PUSH2 0x1014 DUP2 DUP5 PUSH2 0xFC1 JUMP JUMPDEST SWAP1 POP SWAP3 SWAP2 POP POP JUMP JUMPDEST PUSH1 0x0 DUP2 ISZERO ISZERO SWAP1 POP SWAP2 SWAP1 POP JUMP JUMPDEST PUSH2 0x1031 DUP2 PUSH2 0x101C JUMP JUMPDEST DUP3 MSTORE POP POP JUMP JUMPDEST PUSH1 0x0 PUSH1 0x20 DUP3 ADD SWAP1 POP PUSH2 0x104C PUSH1 0x0 DUP4 ADD DUP5 PUSH2 0x1028 JUMP JUMPDEST SWAP3 SWAP2 POP POP JUMP JUMPDEST PUSH1 0x0 DUP2 SWAP1 POP SWAP2 SWAP1 POP JUMP JUMPDEST PUSH1 0x0 PUSH2 0x1077 PUSH2 0x1072 PUSH2 0x106D DUP5 PUSH2 0xC3D JUMP JUMPDEST PUSH2 0x1052 JUMP JUMPDEST PUSH2 0xC3D JUMP JUMPDEST SWAP1 POP SWAP2 SWAP1 POP JUMP JUMPDEST PUSH1 0x0 PUSH2 0x1089 DUP3 PUSH2 0x105C JUMP JUMPDEST SWAP1 POP SWAP2 SWAP1 POP JUMP JUMPDEST PUSH1 0x0 PUSH2 0x109B DUP3 PUSH2 0x107E JUMP JUMPDEST SWAP1 POP SWAP2 SWAP1 POP JUMP JUMPDEST PUSH2 0x10AB DUP2 PUSH2 0x1090 JUMP JUMPDEST DUP3 MSTORE POP POP JUMP JUMPDEST PUSH1 0x0 PUSH1 0x20 DUP3 ADD SWAP1 POP PUSH2 0x10C6 PUSH1 0x0 DUP4 ADD DUP5 PUSH2 0x10A2 JUMP JUMPDEST SWAP3 SWAP2 POP POP JUMP JUMPDEST PUSH32 0x6E6F7420617574686F72697A6564000000000000000000000000000000000000 PUSH1 0x0 DUP3 ADD MSTORE POP JUMP JUMPDEST PUSH1 0x0 PUSH2 0x1102 PUSH1 0xE DUP4 PUSH2 0xF86 JUMP JUMPDEST SWAP2 POP PUSH2 0x110D DUP3 PUSH2 0x10CC JUMP JUMPDEST PUSH1 0x20 DUP3 ADD SWAP1 POP SWAP2 SWAP1 POP JUMP JUMPDEST PUSH1 0x0 PUSH1 0x20 DUP3 ADD SWAP1 POP DUP2 DUP2 SUB PUSH1 0x0 DUP4 ADD MSTORE PUSH2 0x1131 DUP2 PUSH2 0x10F5 JUMP JUMPDEST SWAP1 POP SWAP2 SWAP1 POP JUMP JUMPDEST PUSH32 0x46756E647320616C7265616479206465706F7369746564000000000000000000 PUSH1 0x0 DUP3 ADD MSTORE POP JUMP JUMPDEST PUSH1 0x0 PUSH2 0x116E PUSH1 0x17 DUP4 PUSH2 0xF86 JUMP JUMPDEST SWAP2 POP PUSH2 0x1179 DUP3 PUSH2 0x1138 JUMP JUMPDEST PUSH1 0x20 DUP3 ADD SWAP1 POP SWAP2 SWAP1 POP JUMP JUMPDEST PUSH1 0x0 PUSH1 0x20 DUP3 ADD SWAP1 POP DUP2 DUP2 SUB PUSH1 0x0 DUP4 ADD MSTORE PUSH2 0x119D DUP2 PUSH2 0x1161 JUMP JUMPDEST SWAP1 POP SWAP2 SWAP1 POP JUMP JUMPDEST PUSH32 0x43757272656E742066756E647320646F65736E2774206D6174636820696E6974 PUSH1 0x0 DUP3 ADD MSTORE PUSH32 0x69616C206167726565642066756E647300000000000000000000000000000000 PUSH1 0x20 DUP3 ADD MSTORE POP JUMP JUMPDEST PUSH1 0x0 PUSH2 0x1200 PUSH1 0x30 DUP4 PUSH2 0xF86 JUMP JUMPDEST SWAP2 POP PUSH2 0x120B DUP3 PUSH2 0x11A4 JUMP JUMPDEST PUSH1 0x40 DUP3 ADD SWAP1 POP SWAP2 SWAP1 POP JUMP JUMPDEST PUSH1 0x0 PUSH1 0x20 DUP3 ADD SWAP1 POP DUP2 DUP2 SUB PUSH1 0x0 DUP4 ADD MSTORE PUSH2 0x122F DUP2 PUSH2 0x11F3 JUMP JUMPDEST SWAP1 POP SWAP2 SWAP1 POP JUMP JUMPDEST PUSH1 0x0 PUSH1 0x60 DUP3 ADD SWAP1 POP PUSH2 0x124B PUSH1 0x0 DUP4 ADD DUP7 PUSH2 0xC6F JUMP JUMPDEST PUSH2 0x1258 PUSH1 0x20 DUP4 ADD DUP6 PUSH2 0xC6F JUMP JUMPDEST PUSH2 0x1265 PUSH1 0x40 DUP4 ADD DUP5 PUSH2 0xC13 JUMP JUMPDEST SWAP5 SWAP4 POP POP POP POP JUMP JUMPDEST PUSH2 0x1276 DUP2 PUSH2 0x101C JUMP JUMPDEST DUP2 EQ PUSH2 0x1281 JUMPI PUSH1 0x0 DUP1 REVERT JUMPDEST POP JUMP JUMPDEST PUSH1 0x0 DUP2 MLOAD SWAP1 POP PUSH2 0x1293 DUP2 PUSH2 0x126D JUMP JUMPDEST SWAP3 SWAP2 POP POP JUMP JUMPDEST PUSH1 0x0 PUSH1 0x20 DUP3 DUP5 SUB SLT ISZERO PUSH2 0x12AF JUMPI PUSH2 0x12AE PUSH2 0xCA3 JUMP JUMPDEST JUMPDEST PUSH1 0x0 PUSH2 0x12BD DUP5 DUP3 DUP6 ADD PUSH2 0x1284 JUMP JUMPDEST SWAP2 POP POP SWAP3 SWAP2 POP POP JUMP JUMPDEST PUSH32 0x546F6B656E73206465706F736974206661696C65640000000000000000000000 PUSH1 0x0 DUP3 ADD MSTORE POP JUMP JUMPDEST PUSH1 0x0 PUSH2 0x12FC PUSH1 0x15 DUP4 PUSH2 0xF86 JUMP JUMPDEST SWAP2 POP PUSH2 0x1307 DUP3 PUSH2 0x12C6 JUMP JUMPDEST PUSH1 0x20 DUP3 ADD SWAP1 POP SWAP2 SWAP1 POP JUMP JUMPDEST PUSH1 0x0 PUSH1 0x20 DUP3 ADD SWAP1 POP DUP2 DUP2 SUB PUSH1 0x0 DUP4 ADD MSTORE PUSH2 0x132B DUP2 PUSH2 0x12EF JUMP JUMPDEST SWAP1 POP SWAP2 SWAP1 POP JUMP JUMPDEST PUSH32 0x4E6F2066756E6473206465706F73697465640000000000000000000000000000 PUSH1 0x0 DUP3 ADD MSTORE POP JUMP JUMPDEST PUSH1 0x0 PUSH2 0x1368 PUSH1 0x12 DUP4 PUSH2 0xF86 JUMP JUMPDEST SWAP2 POP PUSH2 0x1373 DUP3 PUSH2 0x1332 JUMP JUMPDEST PUSH1 0x20 DUP3 ADD SWAP1 POP SWAP2 SWAP1 POP JUMP JUMPDEST PUSH1 0x0 PUSH1 0x20 DUP3 ADD SWAP1 POP DUP2 DUP2 SUB PUSH1 0x0 DUP4 ADD MSTORE PUSH2 0x1397 DUP2 PUSH2 0x135B JUMP JUMPDEST SWAP1 POP SWAP2 SWAP1 POP JUMP JUMPDEST PUSH32 0x46756E647320617265207374696C6C2068656C64000000000000000000000000 PUSH1 0x0 DUP3 ADD MSTORE POP JUMP JUMPDEST PUSH1 0x0 PUSH2 0x13D4 PUSH1 0x14 DUP4 PUSH2 0xF86 JUMP JUMPDEST SWAP2 POP PUSH2 0x13DF DUP3 PUSH2 0x139E JUMP JUMPDEST PUSH1 0x20 DUP3 ADD SWAP1 POP SWAP2 SWAP1 POP JUMP JUMPDEST PUSH1 0x0 PUSH1 0x20 DUP3 ADD SWAP1 POP DUP2 DUP2 SUB PUSH1 0x0 DUP4 ADD MSTORE PUSH2 0x1403 DUP2 PUSH2 0x13C7 JUMP JUMPDEST SWAP1 POP SWAP2 SWAP1 POP JUMP JUMPDEST PUSH32 0x4E487B7100000000000000000000000000000000000000000000000000000000 PUSH1 0x0 MSTORE PUSH1 0x22 PUSH1 0x4 MSTORE PUSH1 0x24 PUSH1 0x0 REVERT JUMPDEST PUSH1 0x0 PUSH1 0x2 DUP3 DIV SWAP1 POP PUSH1 0x1 DUP3 AND DUP1 PUSH2 0x1451 JUMPI PUSH1 0x7F DUP3 AND SWAP2 POP JUMPDEST PUSH1 0x20 DUP3 LT DUP2 SUB PUSH2 0x1464 JUMPI PUSH2 0x1463 PUSH2 0x140A JUMP JUMPDEST JUMPDEST POP SWAP2 SWAP1 POP JUMP JUMPDEST PUSH1 0x0 PUSH1 0x40 DUP3 ADD SWAP1 POP PUSH2 0x147F PUSH1 0x0 DUP4 ADD DUP6 PUSH2 0xC6F JUMP JUMPDEST PUSH2 0x148C PUSH1 0x20 DUP4 ADD DUP5 PUSH2 0xC13 JUMP JUMPDEST SWAP4 SWAP3 POP POP POP JUMP JUMPDEST PUSH32 0x46756E64732072656C65617365206661696C6564000000000000000000000000 PUSH1 0x0 DUP3 ADD MSTORE POP JUMP JUMPDEST PUSH1 0x0 PUSH2 0x14C9 PUSH1 0x14 DUP4 PUSH2 0xF86 JUMP JUMPDEST SWAP2 POP PUSH2 0x14D4 DUP3 PUSH2 0x1493 JUMP JUMPDEST PUSH1 0x20 DUP3 ADD SWAP1 POP SWAP2 SWAP1 POP JUMP JUMPDEST PUSH1 0x0 PUSH1 0x20 DUP3 ADD SWAP1 POP DUP2 DUP2 SUB PUSH1 0x0 DUP4 ADD MSTORE PUSH2 0x14F8 DUP2 PUSH2 0x14BC JUMP JUMPDEST SWAP1 POP SWAP2 SWAP1 POP JUMP JUMPDEST PUSH32 0x4465706F73697465642064697370757465206361736573206D6174636820696E PUSH1 0x0 DUP3 ADD MSTORE PUSH32 0x697469616C2061677265656420646973707574652063617365732C2066756E64 PUSH1 0x20 DUP3 ADD MSTORE PUSH32 0x73206172652073656E7420746F20706179656500000000000000000000000000 PUSH1 0x40 DUP3 ADD MSTORE POP JUMP JUMPDEST PUSH1 0x0 PUSH2 0x1581 PUSH1 0x53 DUP4 PUSH2 0xF86 JUMP JUMPDEST SWAP2 POP PUSH2 0x158C DUP3 PUSH2 0x14FF JUMP JUMPDEST PUSH1 0x60 DUP3 ADD SWAP1 POP SWAP2 SWAP1 POP JUMP JUMPDEST PUSH1 0x0 PUSH1 0x20 DUP3 ADD SWAP1 POP DUP2 DUP2 SUB PUSH1 0x0 DUP4 ADD MSTORE PUSH2 0x15B0 DUP2 PUSH2 0x1574 JUMP JUMPDEST SWAP1 POP SWAP2 SWAP1 POP JUMP JUMPDEST PUSH32 0x46756E64732072657475726E206661696C656400000000000000000000000000 PUSH1 0x0 DUP3 ADD MSTORE POP JUMP JUMPDEST PUSH1 0x0 PUSH2 0x15ED PUSH1 0x13 DUP4 PUSH2 0xF86 JUMP JUMPDEST SWAP2 POP PUSH2 0x15F8 DUP3 PUSH2 0x15B7 JUMP JUMPDEST PUSH1 0x20 DUP3 ADD SWAP1 POP SWAP2 SWAP1 POP JUMP JUMPDEST PUSH1 0x0 PUSH1 0x20 DUP3 ADD SWAP1 POP DUP2 DUP2 SUB PUSH1 0x0 DUP4 ADD MSTORE PUSH2 0x161C DUP2 PUSH2 0x15E0 JUMP JUMPDEST SWAP1 POP SWAP2 SWAP1 POP JUMP JUMPDEST PUSH32 0x4465706F73697465642064697370757465206361736573206469646E2774206D PUSH1 0x0 DUP3 ADD MSTORE PUSH32 0x6174636820696E697469616C2061677265656420646973707574652063617365 PUSH1 0x20 DUP3 ADD MSTORE PUSH32 0x732C2066756E6473206172652072657475726E6564206261636B20746F207061 PUSH1 0x40 DUP3 ADD MSTORE PUSH32 0x7965720000000000000000000000000000000000000000000000000000000000 PUSH1 0x60 DUP3 ADD MSTORE POP JUMP JUMPDEST PUSH1 0x0 PUSH2 0x16CB PUSH1 0x63 DUP4 PUSH2 0xF86 JUMP JUMPDEST SWAP2 POP PUSH2 0x16D6 DUP3 PUSH2 0x1623 JUMP JUMPDEST PUSH1 0x80 DUP3 ADD SWAP1 POP SWAP2 SWAP1 POP JUMP JUMPDEST PUSH1 0x0 PUSH1 0x20 DUP3 ADD SWAP1 POP DUP2 DUP2 SUB PUSH1 0x0 DUP4 ADD MSTORE PUSH2 0x16FA DUP2 PUSH2 0x16BE JUMP JUMPDEST SWAP1 POP SWAP2 SWAP1 POP JUMP JUMPDEST PUSH1 0x0 DUP2 SWAP1 POP DUP2 PUSH1 0x0 MSTORE PUSH1 0x20 PUSH1 0x0 KECCAK256 SWAP1 POP SWAP2 SWAP1 POP JUMP JUMPDEST PUSH1 0x0 PUSH1 0x20 PUSH1 0x1F DUP4 ADD DIV SWAP1 POP SWAP2 SWAP1 POP JUMP JUMPDEST PUSH1 0x0 DUP3 DUP3 SHL SWAP1 POP SWAP3 SWAP2 POP POP JUMP JUMPDEST PUSH1 0x0 PUSH1 0x8 DUP4 MUL PUSH2 0x1763 PUSH32 0xFFFFFFFFFFFFFFFFFFFFFFFFFFFFFFFFFFFFFFFFFFFFFFFFFFFFFFFFFFFFFFFF DUP3 PUSH2 0x1726 JUMP JUMPDEST PUSH2 0x176D DUP7 DUP4 PUSH2 0x1726 JUMP JUMPDEST SWAP6 POP DUP1 NOT DUP5 AND SWAP4 POP DUP1 DUP7 AND DUP5 OR SWAP3 POP POP POP SWAP4 SWAP3 POP POP POP JUMP JUMPDEST PUSH1 0x0 PUSH2 0x17A0 PUSH2 0x179B PUSH2 0x1796 DUP5 PUSH2 0xC09 JUMP JUMPDEST PUSH2 0x1052 JUMP JUMPDEST PUSH2 0xC09 JUMP JUMPDEST SWAP1 POP SWAP2 SWAP1 POP JUMP JUMPDEST PUSH1 0x0 DUP2 SWAP1 POP SWAP2 SWAP1 POP JUMP JUMPDEST PUSH2 0x17BA DUP4 PUSH2 0x1785 JUMP JUMPDEST PUSH2 0x17CE PUSH2 0x17C6 DUP3 PUSH2 0x17A7 JUMP JUMPDEST DUP5 DUP5 SLOAD PUSH2 0x1733 JUMP JUMPDEST DUP3 SSTORE POP POP POP POP JUMP JUMPDEST PUSH1 0x0 SWAP1 JUMP JUMPDEST PUSH2 0x17E3 PUSH2 0x17D6 JUMP JUMPDEST PUSH2 0x17EE DUP2 DUP5 DUP5 PUSH2 0x17B1 JUMP JUMPDEST POP POP POP JUMP JUMPDEST JUMPDEST DUP2 DUP2 LT ISZERO PUSH2 0x1812 JUMPI PUSH2 0x1807 PUSH1 0x0 DUP3 PUSH2 0x17DB JUMP JUMPDEST PUSH1 0x1 DUP2 ADD SWAP1 POP PUSH2 0x17F4 JUMP JUMPDEST POP POP JUMP JUMPDEST PUSH1 0x1F DUP3 GT ISZERO PUSH2 0x1857 JUMPI PUSH2 0x1828 DUP2 PUSH2 0x1701 JUMP JUMPDEST PUSH2 0x1831 DUP5 PUSH2 0x1716 JUMP JUMPDEST DUP2 ADD PUSH1 0x20 DUP6 LT ISZERO PUSH2 0x1840 JUMPI DUP2 SWAP1 POP JUMPDEST PUSH2 0x1854 PUSH2 0x184C DUP6 PUSH2 0x1716 JUMP JUMPDEST DUP4 ADD DUP3 PUSH2 0x17F3 JUMP JUMPDEST POP POP JUMPDEST POP POP POP JUMP JUMPDEST PUSH1 0x0 DUP3 DUP3 SHR SWAP1 POP SWAP3 SWAP2 POP POP JUMP JUMPDEST PUSH1 0x0 PUSH2 0x187A PUSH1 0x0 NOT DUP5 PUSH1 0x8 MUL PUSH2 0x185C JUMP JUMPDEST NOT DUP1 DUP4 AND SWAP2 POP POP SWAP3 SWAP2 POP POP JUMP JUMPDEST PUSH1 0x0 PUSH2 0x1893 DUP4 DUP4 PUSH2 0x1869 JUMP JUMPDEST SWAP2 POP DUP3 PUSH1 0x2 MUL DUP3 OR SWAP1 POP SWAP3 SWAP2 POP POP JUMP JUMPDEST PUSH2 0x18AC DUP3 PUSH2 0xF7B JUMP JUMPDEST PUSH8 0xFFFFFFFFFFFFFFFF DUP2 GT ISZERO PUSH2 0x18C5 JUMPI PUSH2 0x18C4 PUSH2 0xD1C JUMP JUMPDEST JUMPDEST PUSH2 0x18CF DUP3 SLOAD PUSH2 0x1439 JUMP JUMPDEST PUSH2 0x18DA DUP3 DUP3 DUP6 PUSH2 0x1816 JUMP JUMPDEST PUSH1 0x0 PUSH1 0x20 SWAP1 POP PUSH1 0x1F DUP4 GT PUSH1 0x1 DUP2 EQ PUSH2 0x190D JUMPI PUSH1 0x0 DUP5 ISZERO PUSH2 0x18FB JUMPI DUP3 DUP8 ADD MLOAD SWAP1 POP JUMPDEST PUSH2 0x1905 DUP6 DUP3 PUSH2 0x1887 JUMP JUMPDEST DUP7 SSTORE POP PUSH2 0x196D JUMP JUMPDEST PUSH1 0x1F NOT DUP5 AND PUSH2 0x191B DUP7 PUSH2 0x1701 JUMP JUMPDEST PUSH1 0x0 JUMPDEST DUP3 DUP2 LT ISZERO PUSH2 0x1943 JUMPI DUP5 DUP10 ADD MLOAD DUP3 SSTORE PUSH1 0x1 DUP3 ADD SWAP2 POP PUSH1 0x20 DUP6 ADD SWAP5 POP PUSH1 0x20 DUP2 ADD SWAP1 POP PUSH2 0x191E JUMP JUMPDEST DUP7 DUP4 LT ISZERO PUSH2 0x1960 JUMPI DUP5 DUP10 ADD MLOAD PUSH2 0x195C PUSH1 0x1F DUP10 AND DUP3 PUSH2 0x1869 JUMP JUMPDEST DUP4 SSTORE POP JUMPDEST PUSH1 0x1 PUSH1 0x2 DUP9 MUL ADD DUP9 SSTORE POP POP POP JUMPDEST POP POP POP POP POP POP JUMP INVALID LOG2 PUSH5 0x6970667358 0x22 SLT KECCAK256 0xF6 0x29 CODESIZE 0xD0 SWAP4 0xB4 0xB2 0xD0 0xD4 0xCB 0xDE GASLIMIT MUL 0x24 DUP16 CALL CALLER GASPRICE 0xAF 0x4B 0xCB 0xBE PUSH1 0x97 DUP16 PREVRANDAO MUL GASLIMIT LT CREATE 0xC6 MSIZE PUSH5 0x736F6C6343 STOP ADDMOD XOR STOP CALLER LOG2 PUSH5 0x6970667358 0x22 SLT KECCAK256 0xD4 CHAINID 0x2B DUP6 SWAP16 0xFC REVERT DUP7 JUMPDEST PUSH5 0x650371267F DIV MOD 0xEF 0xAA ORIGIN RETURNDATACOPY PUSH8 0x7414DCC936D08C44 DELEGATECALL 0x1E PUSH5 0x736F6C6343 STOP ADDMOD XOR STOP CALLER "
        },
        "methodIdentifiers": {
          "DEFAULT_ADMIN_ROLE()": "a217fddf",
          "PartnerContract()": "0633a042",
          "getDisputeCases()": "2b804ee4",
          "getRoleAdmin(bytes32)": "248a9ca3",
          "grantRole(bytes32,address)": "2f2ff15d",
          "hasRole(bytes32,address)": "91d14854",
          "ipfsHashes(uint256)": "a4de2f5c",
          "renounceRole(bytes32,address)": "36568abe",
          "revokeRole(bytes32,address)": "d547741f",
          "setBridge(address,address,uint256,address,uint256,uint256)": "a7a63ce4",
          "setBridge(address,address,uint256,string[],address,uint256,uint256)": "bf8402a0",
          "supportsInterface(bytes4)": "01ffc9a7"
        }
      }
    }
  }
}